:020000040800F2
:10000000F01400204D0200084B4A0008E5440008A7
:10001000494A00085D1A0008A16E000800000000AF
:100020000000000000000000000000005759000818
:10003000811D0008000000007F4B000835650008A6
:1000400067020008670200086702000867020008EC
:1000500067020008670200086702000867020008DC
:10006000670200086702000867020008891A000892
:10007000951A0008A11A0008670200086702000824
:1000800067020008670200086702000867020008AC
:10009000670200086702000867020008670200089C
:1000A000670200086702000867020008670200088C
:1000B000670200086702000867020008670200087C
:1000C000670200086702000867020008670200086C
:1000D000670200086702000867020008356E000822
:1000E000670200086702000867020008670200084C
:1000F000670200086702000867020008670200083C
:10010000670200086702000867020008670200082B
:10011000670200086702000867020008670200081B
:10012000670200086702000867020008670200080B
:1001300067020008670200086702000867020008FB
:1001400067020008670200086702000867020008EB
:1001500067020008670200086702000867020008DB
:1001600067020008670200086702000867020008CB
:10017000670200086702000800000000000000009D
:10018000670200086702000800F002F800F04FF86C
:100190000AA090E8000C82448344AAF10107DA45E2
:1001A00001D100F044F8AFF2090EBAE80F0013F0E5
:1001B000010F18BFFB1A43F00103184778920000A3
:1001C00098920000103A24BF78C878C1FAD8520734
:1001D00024BF30C830C144BF04680C6070470000C1
:1001E0000023002400250026103A28BF78C1FBD840
:1001F000520728BF30C148BF0B607047662908F01E
:100200003487642900F00481782900F06881002097
:1002100070471FB508F01FFF00F0C8FD0400002064
:10022000002108F05BF8E0601FBD10B510BD00F0C4
:10023000C5FE1146FFF7EDFF07F0F6FE00F0E3FE06
:1002400003B4FFF7F2FF03BC07F07DFE09488047C7
:1002500009480047FEE7FEE7FEE7FEE7FEE7FEE7A8
:10026000FEE7FEE7FEE7FEE704480549054A064BC0
:1002700070470000A965000889010008F00E002001
:10028000F0140020F0100020F0100020704753EA16
:10029000020C00F069802DE9F04B4FF00006002BB6
:1002A0001FBFB3FA83F503FA05F424FA05F65E409E
:1002B00012BF1643B2FA82F502FA05F4C5F1200521
:1002C0001EBF22FA05FC44EA0C04203556EA044C11
:1002D0004FEA144418BF641C4FF000084FF00009A7
:1002E000904271EB030C39D3002919BFB1FA81F7A1
:1002F00001FA07F6B0FA80F700FA07F6C7F120070F
:100300001EBF20FA07FC46EA0C062037B6FBF4FCB9
:10031000A7EB0507103F07F01F0BCBF120060CFAE7
:100320000BFB2CFA06F644BFB3460026202FA4BFD1
:100330005E464FF0000B5BEA060C08BF4FF0010B66
:1003400019EB0B09ABFB027C48EB0608C01B06FB54
:1003500002CC0BFB03CC71EB0C01C1E70B46024650
:1003600041464846BDE8F08B13B54FF000004FF012
:100370000001AFF30080BDE81C4070470FB4044992
:1003800010B503AA029800F0CDFC10BC5DF814FB78
:10039000500000200FB41CB5084B06AA7B446946E8
:1003A0000090059800F0A5FC04460020694600F086
:1003B000B3FC20461CBC5DF814FB0000790900006A
:1003C00070B5044685690068C10601D5302600E095
:1003D0002026C00707D070BDD4E9012130469047E0
:1003E000206A401C20626D1EF6D570BD70B50446B3
:1003F00085690078C00707D170BDD4E901212020AC
:100400009047206A401C20626D1EF6D570BD00002A
:100410002DE9F0410646002410687529314616A5DD
:1004200010D0AFF30080002802DA404213A507E0A5
:1004300031688A0701D512A502E0490704D511A544
:10044000012401E0AFF3008000210A2206F1240715
:1004500009E0B0FBF2FCB0FBF2F302FB1C00303011
:1004600078541846491C0028F3D123462A463046C2
:10047000BDE8F04100F0CCB9000000002D00000004
:100480002B00000020000000F0B40D460188090593
:1004900002D5214C7C4402E01F4C7C440E340021E8
:1004A00000F1240608E002F00F071209E75D42EAB6
:1004B00003721B097754491C52EA0307F3D10278EF
:1004C0000023120704D5702D06D009B10223113480
:1004D0002246F0BC00F09CB901231034F8E770B557
:1004E00004460D4621461068AFF3008002462946B7
:1004F0002046BDE870400023C6E7D21D22F0070366
:10050000D3E90023C0E70368126843F020030360C7
:100510000823C3610023B7E7388E00002DE9F05FA0
:10052000894604464FF0000ADFF874B1FB44C0F876
:1005300020A02046E1688847002874D0252806D0EE
:10054000D4E901219047206A401C2062F1E700268F
:100550005F462046E16888472028054607DB312DA5
:1005600005D2781910F8200C08B10643F1E7B0075E
:1005700001D526F00406C4F81CA00027C4F818A072
:100580002A2D09D0284607F0D7FC38B304EB87089A
:10059000303DC8F8185019E059F8041B204604EB08
:1005A00087029161E1688847012F054618D1E0690B
:1005B000002820DA26F020061DE0D8F8180000EB0D
:1005C000800005EB40003038C8F818002046E1688C
:1005D0008847054607F0B0FC0028EED1012F0AD06D
:1005E0002E2D08D12046E16888477F1C0546022F42
:1005F00046F02006C4DBA069002803DA404246F03A
:100600000106A061F00701D026F010066C2D0BD07A
:10061000682D09D04C2D39D06A2D35D0742D35D0A8
:100620007A2D33D016E038E0E1682F46204688471F
:10063000B842054609D16C2F26D04FF48060E1689E
:10064000064320468847054604E06C2F1AD04FF435
:10065000807006430DB3A5F14100192802D820355A
:1006600046F400664A462946204626604E46FFF775
:10067000C5FD80B101280BD0F61D26F0070000F162
:10068000080956E74020E4E78020D8E70020D6E7B5
:1006900006F104094DE7284652E7206A00F002B847
:1006A000C88D000030BCBDE8C09F40EA010310B512
:1006B0009B070FD1042A0DD310C808C9121F9C42F2
:1006C000F8D020BA19BA884201D9012010BD4FF0E4
:1006D000FF3010BD1AB1D30703D0521C07E0002031
:1006E00010BD10F8013B11F8014B1B1B07D110F88E
:1006F000013B11F8014B1B1B01D1921EF1D1184691
:1007000010BD421E12F8013F002BFBD111F8013B36
:10071000002B02F8013BF9D17047032A40F23080E8
:1007200010F0030C00F0158011F8013BBCF1020F32
:10073000624498BF11F801CB00F8013B38BF11F8B3
:10074000013BA2F1040298BF00F801CB38BF00F8CA
:10075000013B11F0030300F0F782083AC0F0088073
:1007600051F8043B083A51F804CBA0E80810F5E72B
:10077000121D5CBF51F8043B40F8043BAFF300800E
:10078000D20724BF11F8013B11F801CB48BF11F883
:10079000012B24BF00F8013B00F801CB48BF00F853
:1007A000012B70474FF0000200B513469446964661
:1007B000203922BFA0E80C50A0E80C50B1F1200174
:1007C000BFF4F7AF090728BFA0E80C5048BF0CC022
:1007D0005DF804EB890028BF40F8042B08BF704780
:1007E00048BF20F8022B11F0804F18BF00F8012BF2
:1007F0007047704770477047704710B500F0DAFADD
:10080000006810BD10B5044600F0D4FA046010BDB5
:100810002DE9F0470D4699469246044600F124081A
:100820000168880604D5E06921F01001216000E02C
:100830000120A84201DD471B00E00027A1697A19C9
:1008400002EB0900081AA0612078C00602D42046F5
:10085000FFF7B6FD002608E0D4E901211AF80600EA
:100860009047206A401C761C20624E45F4DB2078BD
:10087000C0060AD52046FFF7A3FD06E0D4E9012112
:1008800030209047206A401C2062381EA7F10107E3
:10089000F4DC07E0D4E9012118F805009047206A4C
:1008A000401C2062281EA5F10105F3DC2046FFF75D
:1008B0009DFD2078000602D50220BDE8F0870120CA
:1008C000FBE770472DE9FF4F0C461E464FF0FF3700
:1008D0008BB0D2E90001DDF860800A908A46C1F34E
:1008E0000A5505B93D46002108464FF00000BAF10F
:1008F000000F00F4400005DA00EB80004FF44001E7
:1009000001EA50004FEA9059B9F1010F00DDB946F4
:100910000A9850EA4A000ED044F61050A5F2FF356E
:1009200045432F14B8F1000F1ED07542291E1EDD5D
:10093000C9F100021CE0B8F1010F4FF0000001D036
:10094000302103E0F24305E02154401CB042FBDBC0
:1009500030460022002121540B99C1F80880C1E9DA
:1009600000200FB000F0BCB9BD1B6D1CDEE74A468D
:1009700000DA694206A800F0A7FA06AB93E8070080
:1009800003AB83E8070050460A9900F085FB8DE829
:100990000700A0F500501F3800900398002D0ADDD5
:1009A00042F21F014A460844002303A90390684607
:1009B00000F0EEFD09E0A0F500504A461F38002384
:1009C00003A90390684600F0F8FD8DE807000004D5
:1009D000000C03D04FF0FF30410800E01046B8F1A2
:1009E000000F03D00022009215461EE0751E05D4AC
:1009F00000F0E4F9303262556D1EF9D5B34601229C
:100A0000084302D000227F1C04E02078302801D166
:100A100000227F1E002A099784D01DE0112D07DADD
:100A200000F0CCF9303262556D1C50EA0102F5D16C
:100A3000084302D00098C8B10EE00021681E05E00E
:100A4000235C625C63542254401E491C8142F7DBE4
:100A5000AB46A81B401E0990002004F80B000B9821
:100A6000099AC0F80880C0E9002B7AE711264FF0F8
:100A7000000857E72DE9F04F88460446D21D22F0C2
:100A8000070191B0D1E90001CDE90A0106F009FAA8
:100A900002460B98C00F01D02D2007E02068810787
:100AA00001D52B2002E0202101EAC000032A099091
:100AB00001D0072A05DB03464146204600F0C4F971
:100AC0000BE12078800601D5E06900E00620B8F14E
:100AD000650F814606D0B8F1660F18D0B8F1670FE0
:100AE00070D131E00020B9F1110F009001DB11232A
:100AF00001E009F101030AAA01A90CA8FFF7E2FE2F
:100B0000DDE90C70002609F10105834647E001206C
:100B10004B4600904FF000470AAA01A90CA8FFF726
:100B2000D1FEDDE90DB00C995D46002610B909F142
:100B300001000D18B9EB050003D4C0F1FF3609F12F
:100B40000105A5EB09002BE0B9F1010F01DA4FF027
:100B500001090020B9F1110F0090484601DD112371
:100B600000E003460AAA01A90CA8FFF7ABFEDDE9E5
:100B70000C704D4600268346207800070AD4AB450A
:100B800000DA5D4601A8012D04DD411911F8011CB0
:100B9000302907D04F4502DA17F1040F04DA01209B
:100BA00082460FE06D1EEEE7002F02DCED1B3E4497
:100BB00003E0781CA84200DD7D1CB81B00F1010A8F
:100BC0004FF000472078000703D4AA4501DB4FF01F
:100BD000FF3A0021B7F1004F0DF143088DF84310A3
:100BE00024D002202B23002F01DA7F422D230A215B
:100BF000021EA0F1010000DC5FB197FBF1FC97FB46
:100C0000F1F201FB1C7C17460CF1300C08F801CD09
:100C1000EEE7A8F1010003702188090501D54521FF
:100C200000E06521A0F1010800F8011C09980FA956
:100C3000A1EB0807FF1D00B10120411901EBEA708B
:100C4000A1693844081A401EA0612078C00602D469
:100C50002046FFF7B5FB099828B1D4E90121904758
:100C6000206A401C20622078C00622D52046FFF76B
:100C7000A7FB1EE0002E04DBB34502DD01A8805D6A
:100C800000E03020D4E901219047206A401C206216
:100C9000761CAAF101005FEA000A0AD100F086F88A
:100CA000C0680168405CD4E901219047206A401C7B
:100CB0002062281EA5F10105DCDC07E0D4E9012152
:100CC00018F8010B9047206A401C2062381EA7F1DB
:100CD0000107F3DC2046FFF789FB032011B041E652
:100CE00030BCBDE8C08F000001694A1C0261087871
:100CF000704700B58FB0CDE901310021059105495C
:100D00007944CDE9031011466846FFF707FC0FB0A0
:100D100000BD0000E5FFFFFF0A6802F8010B0A6052
:100D200070470000074B70B50D467B44FFF7E1FFAD
:100D30000446284600F03AF910B14FF0FF3070BD7C
:100D4000204670BDE372000010B5203AC0F00B8061
:100D5000B1E81850203AA0E81850B1E81850A0E8BF
:100D60001850BFF4F5AF5FEA027C24BFB1E8185019
:100D7000A0E8185044BF18C918C0BDE810405FEA89
:100D8000827C24BF51F8043B40F8043B08BF704705
:100D9000D20728BF31F8023B48BF11F8012B28BF0A
:100DA00020F8023B48BF00F8012B7047004870470D
:100DB000AC0E0020004870478C0E002030B5B0F11A
:100DC0000A024FEA900E71F100034EEA817EB0EB09
:100DD0000E0061EB91014FEA101E4EEA017E10EB0E
:100DE0000E0041EB11114FEA102E4EEA016E10EB8E
:100DF0000E0041EB11214FEA104E4EEA014E10EB6E
:100E00000E0041EB1141401841F100014FEAD000C2
:100E100040EA41704FEAD10110EB80054FEA8104AE
:100E200044EA907444EB01046D1944EB0404521B32
:100E3000A3414FF0000348BF0A3200D530BD401C2B
:100E400041F1000130BD00002DE9F0411F4604468C
:100E500003260168072A01F4006004DB08B116A527
:100E600005E016A503E008B115A500E015A521F0E1
:100E700010002060A069C01EA0610FB1401EA061DB
:100E80002046FFF79DFA4FB1D4E90121384690473B
:100E9000206A401C2062C01C206206E0206AFAE73B
:100EA000D4E9012115F8010B9047761EF8D22046AF
:100EB000FFF79CFABDE8F0814E414E006E616E0076
:100EC000494E4600696E66002DE9F0478146164698
:100ED0008AB0354878440DC88DE80D003248784412
:100EE000801C03AC0DC884E80D0041F69B3008441B
:100EF000372190FBF1F290FBF1F5A5F1800501FBA4
:100F000012041B3C02D56442012000E00020DFF8FF
:100F100098A080460027FA44AAF1BE0A0EE0E00736
:100F20000AD03246684607EB470101230AEB8101EC
:100F300000F043FB8DE8070064107F1C002CEED10D
:100F4000194F7F44AE3F19E0E80715D007EB0410B6
:100F50000DF1180A90E80E008AE80E00C068F04211
:100F600001D1981908903246012306A903A800F080
:100F700024FB03AB83E807006D10641C002DE3D154
:100F80004FF0010332466946B8F1000F03A802D0C2
:100F900000F0FEFA01E000F010FBC9E90001C9F819
:100FA00008200AB0BDE8F08744850000007B00F00F
:100FB00080007047004870478C0E00207546FFF790
:100FC000F9FFAE4605006946534620F00700854606
:100FD00018B020B5FFF748F9BDE820404FF00006F3
:100FE0004FF000074FF000084FF0000B21F0070111
:100FF000AC46ACE8C009ACE8C009ACE8C009ACE854
:10100000C0098D46704710B50446AFF300802046F6
:10101000BDE81040FFF714B94FF0013C50F8042B25
:1010200051F8043B9A4221D1A2EB0C03934313EAFB
:10103000CC1317D150F8042B51F8043B9A4215D128
:10104000A2EB0C03934313EACC130BD150F8042BFF
:1010500051F8043B9A4209D1A2EB0C03934313EAE3
:10106000CC13DBD04FF00000704700BFD01A01BA9C
:10107000B1FA81F101F0180122FA01F0CB40C1F17F
:101080002001DBB2C0B2C01A2CFA01F3D11A91438D
:1010900011EAC311E6D170475FEA400C08BF91F036
:1010A000000F4FEA8C234FEAC12243EA51514FEA25
:1010B0001C5018BF00F5F0404FEA300018BF41F057
:1010C00000415FEA6C5C00F02980BCF1FF3F08BF83
:1010D00040F080407047130C06BF12044FF0100C14
:1010E0004FF0000C130E04BF12020CF1080C130F8A
:1010F00004BF12010CF1040C930F04BF92000CF119
:10110000020CD30F04BF52000CF1010C11464FF03A
:101110000002A0F11F00A0EB0C00704711F0004F7F
:1011200008BF704731F000413FF4D5AF0B0C06BF4C
:1011300009044FF0100C4FF0000C0B0E04BF090215
:101140000CF1080C0B0F04BF09010CF1040C8B0F00
:1011500004BF89000CF1020CCB0F04BF49000CF155
:10116000010CCCF12003A0EB0C0022FA03F302FAED
:101170000CF241EA030100F10100704720F07F4CBE
:1011800080EA030023F07F47ACEB070303F57C53B1
:1011900000F0004003F1FF032DE980494FEA154BB1
:1011A00009B44FEA144325EA0B4E24EA03480FF230
:1011B000042606EB132749083E785FEA320203FB58
:1011C0000667C7F5000707FB06F64FEA54374FEAF4
:1011D000D64606F1020607FB066CCCF1005C4FEA2E
:1011E0001C472CEA074C07FB06F40CFB06F504EB46
:1011F00015464FEA961634BF00204FF000404FEAE4
:10120000D13706FB07FC4FEA1C4C0CFB0BF7D21B3B
:1012100003FB0CF761EB07010CFB0EF7B0EB07408B
:1012200072EB17420CFB08F734BFA2EB0742B2EB9C
:10123000074261EB17414FEA0C444FEA910706FB66
:1012400007FC4FEA1C4C0CFB0BF7B0EBC74072EBF2
:10125000573203FB0CF734BFA2EBC742B2EBC742D5
:1012600061EB57310CFB0EF7B0EBC70072EB577216
:101270000CFB08F734BFA2EBC702B2EBC70261EB6D
:101280005771039F4FEA816141EA921104EBCC044C
:101290004FEAD1374FEA826206FB07FC42EA90121E
:1012A0004FEA80604FEA1C4C0CFB0BF7D21B03FB90
:1012B0000CF761EB07010CFB0EF7B0EB074072EB8C
:1012C00017420CFB08F734BFA2EB0742B2EB074210
:1012D00061EB17414FEA8C554FEA910704EB9C24D0
:1012E00006FB07FC4FEA1C4C0CFB0BF7B0EBC740AE
:1012F00072EB573203FB0CF734BFA2EBC742B2EBE1
:10130000C74261EB57310CFB0EF7B0EBC70072EB35
:1013100057720CFB08F734BFA2EBC702B2EBC7024F
:1013200061EB577115EB4C254FEA816141EA92114F
:101330004FEA82624FEAD13742EA901206FB07FC7D
:1013400044F100044FEA80604FEA1C4C0CFB0BF7A1
:10135000D21B03FB0CF761EB07010CFB0EF7B0EBA4
:10136000074072EB17420CFB08F734BFA2EB0742B1
:10137000B2EB074261EB174115EB1C154FEA8131C7
:1013800041EA92414FEA823242EA90424FEA80308B
:101390004FEA0C7644F1000448EA03434EEA0B4856
:1013A0004FF0000EB2EB080C71EB030724BF62464E
:1013B00039464EEB0E0E4FF0000B001852414941DA
:1013C0004BEB0B0BB2EB080C71EB03077BF1000B43
:1013D00024BF624639464EEB0E0E4FF0000B00184C
:1013E000524149414BEB0B0BB2EB080C71EB03077D
:1013F0007BF1000B24BF624639464EEB0E0E51EADC
:10140000020718BF46F0010616EB0E7655F10002F2
:1014100054F1000103D5BDE88901BDE80088BDE8AD
:101420008901BDE80048B619524141EB0101A3F121
:101430000103704780807F7E7D7C7B7A7978777628
:1014400076757473727171706F6E6E6D6C6C6B6AA1
:101450006A6968686766666564646363626161603F
:10146000605F5F5E5E5D5D5C5C5B5B5A5A595958BC
:101470005857575656555555545453535252525126
:10148000515050504F4F4F4E4E4D4D4D4C4C4C4B7C
:101490004B4B4A4A4A4949494848484747474746C3
:1014A00046464545454444444443434343424242FF
:1014B00042414141002B9C4630D477002BD01CB5D3
:1014C0004FEA370703B44FF010004FF01001BAF1A4
:1014D000000F06D0BCF1000FDCBF40F0080040F068
:1014E00008014FF000000FBCBDE810400BF1010BEC
:1014F000BBF1010F08BF5FEA170722BF12F101021B
:1015000011F101014FF0004143F1000300F00040F0
:1015100043EA00007047F9D35708D0E746EA064689
:1015200013F1400F4FEA16461FDD13F1200FDFBF06
:1015300016430A46002120335B42BED0C3F1200788
:1015400046EA064602FA07F74FEA164646EA070653
:10155000C3F1200722FA03F201FA07F721FA03F197
:101560004FF0000342EA0702A7E746EA020646EA0E
:1015700006464FEA164646EA0106BCBF46EA06465C
:10158000360C4FF000034FF000024FF0000194E7DB
:101590002DE9804C9A46934670B491E8380007C80C
:1015A00031EA400C48BF34EA430C03D5FFF7E6FDAF
:1015B000FFF780FFF0BCBDE8008C2DE9804C9A4617
:1015C000934670B491E8380007C810F0804F08BF08
:1015D00013F0804F03D100F005F8FFF76BFFF0BC6C
:1015E000BDE8008C20F07F4780EA030023F07F4CA9
:1015F00007EB0C03A3F57C5300F00040A3F1FE03BE
:1016000092F0000F00F0B38095F0000F00F07780AB
:101610002DE901494FEA11404FEA144621EA0048FA
:1016200000FB06FC24EA064708FB06F607FB08F861
:1016300000FB07F718EB06484CEB164C4FEA124B31
:1016400018EB07484FEA15464CEB174022EA0B4EC1
:101650000BFB06FC25EA06470EFB06F607FB0EFE13
:101660000BFB07F71EEB064E4CEB164C4FF000063B
:101670001EEB074E4CEB174B18EB0B0840F100002C
:1016800018EB0E0B58EB000840F100008F1A4FF0DA
:1016900000013CBFC943661B14BFB5EB040C00211D
:1016A0003CBFC943F61B4FEA17444EEA8E0E27EAA9
:1016B00004454FEA1C4704FB07622CEA074C05FB74
:1016C00007F70CFB05F604FB0CFC16EB074642EB98
:1016D000174216EB0C4642EB1C421BEB060658EB7E
:1016E0000202414146EA9E0601D5BDE80189B619CC
:1016F000524141EB0101A3F10103BDE801894FEA29
:1017000014454FEA114724EA054621EA074C05FB38
:1017100007F406FB07F70CFB06F105FB0CFC11EBCD
:10172000074144EB17444FEA124711EB0C4144EBDD
:101730001C4422EA074C05FB07F206FB07F70CFBEB
:1017400006F605FB0CFC16EB074642EB174216EBC0
:101750000C4642EB1C456A1854F1000148BF704723
:10176000B619524141EB0101A3F10103704795F015
:10177000000F37D04FEA11424FEA144721EA0246E0
:1017800024EA074C02FB07F106FB07F70CFB06F403
:1017900002FB0CFC14EB074441EB17414FEA1547E1
:1017A00014EB0C4441EB1C4125EA074C02FB07F506
:1017B00006FB07F70CFB06F602FB0CFC16EB0746D4
:1017C00045EB174516EB0C4645EB1C42121951F13F
:1017D000000148BF7047B619524141EB0101A3F126
:1017E000010370474FEA14454FEA114724EA0546C2
:1017F00021EA074C05FB07F106FB07F70CFB06F295
:101800004FF0000605FB0CFC12EB074241EB1741C1
:1018100012EB0C4251EB1C4148BF7047921841EB50
:101820000101A3F1010370472DE9F04104460E4682
:101830000025006802F0AAFF0746206802F09EFF1C
:10184000074357D02068C168890111D5617E0129FD
:101850000ED1217E01290BD10126274902E08D42BC
:1018600039D26D1C0268D2435206F8D4402101607F
:10187000224D022E0FD0206802F088FF48B1206868
:101880008168C1F3400121B98168294041F010010C
:101890008160012E0DD0206802F070FF48B12068F1
:1018A0008168C1F3400121B98168294041F02001DC
:1018B0008160022E08D0032E04D0042501F0CEFA58
:1018C000064613E00C25F9E70825F7E701F0C6FA0C
:1018D000801B05280AD9606D40F010006065A06D7E
:1018E00040F00100A0650120BDE8F081206880681B
:1018F0002842EBD10020F7E7000040A3C0FFFF7FA4
:1019000010B5846A616D11F0500F06D0616DC90683
:1019100025D5204600F07DFD10BD606D40F40070BF
:10192000606520680168090716D502F033FF78B1B9
:101930002068C068800400280ADB606D20F4807095
:101940006065606DC00403D4606D40F001006065A7
:10195000204600F045FD10BDC0688007EBE7E16C54
:10196000496BBDE81040084710B5806A416D41F0F1
:1019700040014165816D41F00401816500F049FD40
:1019800010BD10B5806A00F043FD10BD70B504466F
:1019900000688168C1F3400502F0F4FE28B325BB5E
:1019A0002068816801F00D01012910D18168104A79
:1019B0001140891C816021680320086001F04EFA03
:1019C00005460EE001F04AFA401B022809D9606D75
:1019D00040F010006065A06D40F00100A06501209E
:1019E00070BD20688068C007ECD1002070BD000089
:1019F000C0FFFF7F70B50446006802F0C3FE48BB1D
:101A000020688168144A114215D18168D64331405B
:101A1000491C816001F022FA054616E002F0B2FE90
:101A200020B9206881683140491C816001F016FAB4
:101A3000401B022809D9606D40F010006065A06D60
:101A400040F00100A065012070BD20680168C94315
:101A5000C907E3D1002070BD3F000080FEE7F0B56C
:101A6000002380254FF6FF7405EA102601F0800759
:101A7000BE4204EA400000D0504049065B1C090EFB
:101A8000DBB2082BF0D3F0BD014800F051BF0000DD
:101A9000AC0B0020014800F04BBF0000580C0020A8
:101AA000014800F045BF0000A00C002030B590F8C0
:101AB000444004F01C050124AC40056C6C600468D3
:101AC00063608368102B036803D099600068C2606C
:101AD00030BD9A600068C16030BD000006484FF418
:101AE000806101600121416081600221C160014685
:101AF000024801F0BFB80000E80C002000040048D4
:101B000010B52DED028B00F0D5F800F051F8CC2087
:101B100000F002F9442000F0FFF8502006F052FADD
:101B200000F0C8F800F044F8CC2000F0F5F8BE2032
:101B300000F0F2F800F078F8044600F075F80002C2
:101B400001B29FED0A8B51EA040001D5C043401C4D
:101B500006F059FE53EC182B06F0BCFE06F0E0FB35
:101B6000BDEC028B00EE100A10BD0000000000006A
:101B70000000B03F10B5FFF7B1FF00F09BF8BDE8E3
:101B8000104000F015B800000249002048600248EB
:101B900001F070B8E80C0020000400480249012060
:101BA0004860024801F066B8E80C002000040048D4
:101BB00070B50024FFF7E8FF4FF48065124E04E093
:101BC000641CE4B2012006F0FDF92946304600F01D
:101BD00043F910B1642CF3D30FE0642C0DD2002430
:101BE00004E0641CE4B2012006F0ECF9294630461A
:101BF00000F032F918B1F02C04D3012070BDF02CA4
:101C0000EFD3FAE7002070BD0004004870B5054628
:101C1000332000F081F8002400F006F82855641CF9
:101C2000E4B2082CF8D370BD2DE9F041002634460B
:101C30004FF48067DFF84880FFF7B0FF0022394695
:101C40004546404601F004F90A2006F0BBF9FFF7CB
:101C50009BFF3946284600F0FFF801280DD00025EB
:101C60002D2006F0AFF9A5403543641CE4B2EEB276
:101C7000082CE1D33046BDE8F0810125F0E70000F3
:101C80000004004870B500F015F8FFF791FFCC2074
:101C900000F042F8BE2000F03FF80024044DFFF7AA
:101CA000C3FF2855641CE4B2082CF8D3004870BD6B
:101CB0005500002070B5FFF771FF0B4D4FF48064A5
:101CC00000222146284601F0C3F840F2EE2006F03B
:101CD00079F901222146284601F0BAF8BDE87040A2
:101CE0000F2006F06FB900000004004810B5FFF7A0
:101CF000E1FFFFF75DFFCC2000F00EF84E2000F072
:101D00000BF8782000F008F8002000F005F8BDE896
:101D100010401F20AFF300802DE9F0410546FFF78A
:101D20003DFF164E00244FF4806715F0010F4FEA77
:101D300055054FF00002394630460BD001F088F8C7
:101D4000082006F03FF901223946304601F080F8BC
:101D50003A200AE001F07CF8462006F033F901222F
:101D60003946304601F074F8022006F02BF9641C65
:101D7000E4B2082CD9D3BDE8F0810000000400488B
:101D8000704772B6FEE70000F0B5304887B0C16C0E
:101D900041F00101C164C16C01F001010591C16C08
:101DA00041F00201C164C16C01F002010591C16CF6
:101DB00041F00401C164C16C01F004010591C16CE2
:101DC00041F00801C164C16C01F008010591C16CCA
:101DD00041F08001C164C06C012500F080000590D5
:101DE00049F6F87000900024CDE9015469464FF09F
:101DF0009040039400F03EFF03260096144FCDE977
:101E0000014569463846039400F034FF40F6FC7003
:101E10000090CDE9015469463846039400F02AFF4A
:101E20002803CDE90005CDE902466946384600F0B1
:101E300021FF43F6FF700090CDE901546946054843
:101E4000039400F017FF07B0F0BD0000001002403F
:101E500000040048000800480246002012690A42B7
:101E600000D001207047000070B504F0A5FA00F022
:101E7000F5FF084C0546207838B900F0EFFF401B0D
:101E80003228F8D32078002803D002F079FE002011
:101E9000207070BD5400002010B502F0B9FC11484C
:101EA0001149002280ED040ACA660A6710EE100A82
:101EB0004A6707F05FF841EC100B0B4853EC102B0E
:101EC0000AA16C30FEF766FA07496C3101F10C008B
:101ED000FEF717FC0448BDE8104006A17830FEF775
:101EE00010BC00000000002010090020252E3066E4
:101EF000000000002C00000010B5FFF701FE1148A3
:101F00001149002280ED030ACA660A6710EE100A22
:101F10004A6707F02FF841EC100B0B4853EC102BDD
:101F20000AA16C30FEF736FA07496C3101F10C005A
:101F3000FEF7E7FB0448BDE8104006A17830FEF745
:101F4000E0BB00000000002010090020252E3066B4
:101F5000000000000D0A0000F8B5002504460095B9
:101F600090F850000E4601280BD0012084F8500054
:101F70002046FFF70BFD0200606D04D040F010001A
:101F80002CE00220F8BD20F4885040F0020060658B
:101F90002068816821F08041314381602068816838
:101FA00041F0004181604FF4912320680EE00099D8
:101FB000491C0091994209D3606D20F0020040F065
:101FC0001000606584F850500120F8BD8168C90F89
:101FD000EDD1606D20F0020040F00100606584F8F2
:101FE00050501046F8BD00002DE9F84F0027044678
:101FF000009790F85000DFF8B0930D46B8460128DE
:1020000010D0012684F85060206802F0BFFB58B160
:10201000606D40F020006065012784F850803846EC
:1020200000F0DAB90220FBE768680C23052812D813
:10203000022807D0032807D0042807D0052807D096
:10204000062007E06B6006E0122003E0182001E0A4
:102050004FF480706860D5E9002103EA911320688D
:1020600001F01F0118444FF01F0C0CFA01FC036B28
:10207000C2F3846223EA0C038A401343036320689B
:1020800002F084FB8246206802F078FB5AEA0001E5
:102090001DD1AA682968206802F084FB20686A695B
:1020A000C168C1F3C10149008A40296904290FD0E0
:1020B00000EB81002B68DFF8F4C2016E03F0F843F7
:1020C00001EA0C011343194341F00041016672E03B
:1020D000002102F04DFB400320684FF0000171D059
:1020E00002F046FB90FAA0F0B0FA80F128684203B3
:1020F0006DD090FAA0F0B0FA80F0814204D10022B5
:102100001146206802F05DFB0121206802F030FBDF
:10211000400320684FF001015CD002F029FB90FAE7
:10212000A0F0B0FA80F12868420358D090FAA0F0ED
:10213000B0FA80F0814204D100220121206802F02F
:1021400040FB0221206802F013FB400320684FF09F
:10215000020147D002F00CFB90FAA0F0B0FA80F137
:102160002868420343D090FAA0F0B0FA80F0814290
:1021700004D100220221206802F023FB0321206801
:1021800002F0F6FA400320684FF0030132D002F06B
:10219000EFFA90FAA0F0B0FA80F1286842032ED04E
:1021A00090FAA0F0B0FA80F0814204D1002203211D
:1021B000206802F006FB206802F0E4FA10B3AAE0FF
:1021C00000E004E002F0D4FAC0F384618EE7C0F3CB
:1021D000846092E702F0CCFAC0F38461A3E7C0F315
:1021E0008460A7E702F0C4FAC0F38461B8E7C0F3E3
:1021F0008460BCE702F0BCFAC0F38461CDE7C0F3B1
:102200008460D1E721682A7B286851F8B03FC0F389
:10221000120C23EA0C0302F0180C654A22FA0CF2A5
:10222000024013430B60E968494574D128684103B3
:102230001AD090FAA0F1B1FA81F1491C01F01F0106
:1022400009294FEA403130D8002910D090FAA0F186
:10225000B1FA81F101F1010101F01F0106FA01F665
:1022600008D1C0F3846109E0C0F38461E5E7C0F3FD
:102270008461EFE790FAA0F1B1FA81F101F1010177
:1022800001F01F0146EA816102D1C0F3846003E0DE
:1022900090FAA0F0B0FA80F000F1010000F01F0009
:1022A00000EB400041EA005131E000290DD090FAE6
:1022B000A0F1B1FA81F101F1010101F01F0106FA6B
:1022C00001F605D1C0F3846106E0C0F38461F2E752
:1022D00090FAA0F1B1FA81F101F1010101F01F01C1
:1022E00046EA816102D1C0F3846003E090FAA0F075
:1022F000B0FA80F000F1010000F01F002D4A00EB61
:10230000400002EB005041EA000141F00071AA6870
:10231000206802F047FA2848296801423FF47DAE60
:10232000264A9068264E274B274D00F0E070B142B8
:102330001CD106021AD42168994202D0A9427FF426
:102340006CAE916840F4000021F0E07101439160AF
:102350001E481F490068B0FBF1F000EB4000800010
:1023600000E0401E00900028FBD156E6194EB14215
:1023700009D1C60107D42168994201D0A942F4D1FC
:1023800040F080700AE06FF00045E942EDD1410273
:10239000EBD421689942E8D140F48000916821F0A3
:1023A000E0710143916038E600007F4000F0FF03D8
:1023B000FFFF0700000020FE00000880000304501B
:1023C000000052C7000004500002045030000020FA
:1023D000400D0300000084CB18BCBDE8E08F000076
:1023E00010B500680649884208D1064801F0C8FDCA
:1023F000054800F0CEF905490120087010BD000025
:1024000000000450FC0C0020480B00205400002069
:1024100070477047F8B54FF0000504002E46009550
:1024200002D0606D10B107E00120F8BD204600F039
:10243000D3F8A66584F8506020688168C1F34071C4
:1024400019B181685A4A1140816020688168C1F3DE
:10245000007179B98168574A114041F0805181601B
:10246000554856490068B0FBF1F000E0401E00906E
:102470000028FBD120688168C1F3007141B9616D0A
:1024800041F010016165A16D41F00101A1650125D7
:1024900002F07CF9616DC90600D430B1606D40F086
:1024A0001000606501252846F8BD606D20F480703D
:1024B00040F002006065206802F064F9A8B9404865
:1024C00080684049C0F300008968C1F300010843F7
:1024D0003D498968C1F30001084306D13B49606862
:1024E0008A6822F47C1202438A60E168606B627E33
:1024F0000843A16841EA4231084394F8201040EAB9
:102500000140012904D1A18C314A02EB4141084329
:10251000A16A29B101F47071E26A014342EA010043
:102520002168CA682B4B1A400243CA60206802F037
:102530002DF90646206802F021F9064315D1207EC8
:1025400094F83010800340EA41012068C26844F2E8
:1025500002039A430A43C26094F8380001280CD061
:102560002068016921F001010161206901282068CA
:10257000016B21F00F0110D012E0D4E90F100143DC
:10258000D4E91102104301432068026940F2FC7350
:102590009A43114341F00101E6E7E269521E1143FB
:1025A0000163606D20F0020040F0010060657AE791
:1025B000C0FFFF5FC0FFFF7F30000020400D030021
:1025C00000000450000104500002045000030450B5
:1025D0000000FEFF07C0F0FF70B5A8B006464FF43C
:1025E000804000904FF040501E90684600F004FD7F
:1025F0001949C86C40F40050C864C86C00F400501D
:102600002790C86C40F00100C864C86C002500F039
:1026100001002790032022900B20CDE9230522A959
:102620004FF0904000F026FB0D4C0C48C4E900052B
:102630008020A560C4E90350400060618000C4E9C7
:1026400006052046256200F0D1F908B1FFF799FB95
:10265000F464A66228B070BD001002400800024079
:10266000AC0B00202DE9F04104463348174688465C
:10267000806800F01F05206802F088F8002859D112
:1026800094F85000012855D0012084F8500000260D
:1026900025B1052D02D0092D00D003E02046FFF71B
:1026A000A9F918B184F85060BDE8F081606D40F67A
:1026B0000161884340F48070606520492068884249
:1026C00001D11F4900E00146814200D01DB9606D73
:1026D00020F480106065606DC00404D5A06D20F00A
:1026E0000600A06500E0A665E16C1648C862E16CD2
:1026F00015480863E16C1548486321681C20086090
:1027000084F850602068416841F010014160206801
:10271000C16841F00101C16021683B464246403139
:10272000E06C00F0D3F921688A68094B1A40121D49
:102730008A60B9E70220B7E70003045000010450A3
:1027400000000450011900088319000869190008E5
:10275000C0FFFF7F10B5044690F85000012808D054
:10276000012084F8500003212046FFF75DF810B1E6
:102770000BE0022010BD2046FFF708F928B9616D73
:1027800021F4885141F001016165002184F8501065
:1027900010BD70B5044690F85000012809D0012002
:1027A00084F8500003212046FFF73EF8050002D0D0
:1027B00027E0022070BD2068C16821F00101C160DE
:1027C000E06C90F82510022907D100F01FF80500F1
:1027D00003D0606D40F0400060652068416821F0E2
:1027E00010014160204615B1FFF7D0F809E0FFF76E
:1027F000CDF8050005D1606D20F4885040F001004F
:102800006065002084F85000284670BDC8B101689A
:102810000A6822F00E020A6001680A6822F00102CA
:102820000A6090F84410012301F01C0203FA02F13F
:10283000026C516080F82530002180F82410084691
:1028400070470120704710B590F825100024022928
:1028500003D00421C16301241AE001680A6822F050
:102860000E020A6001680A6822F001020A6090F80C
:102870004410012301F01C0203FA02F1026C5160C2
:1028800080F82530002180F82410816B01B1884741
:10289000204610BD30B590B101680A6822F00102EF
:1028A0000A60204C026814211F4BA24209D21F4C1F
:1028B0001444B4FBF1F18900C0E910310BE00120B0
:1028C00030BD184C64421444B4FBF1F189004164FA
:1028D0001449083901640021116090F8442002F085
:1028E0001C040122A240046C6260046C0F229C4212
:1028F00002D153F8A84F02E00A4BA0331C6890F8AD
:10290000445005F01C05AA4094431C60C162016359
:1029100041638163C16380F8251080F82410002092
:1029200030BD00000804024000000240F8FFFDBF77
:10293000F0B4016C0B6801680A6890F84440042503
:1029400004F01C0405FA04F61E4211D056070FD5F8
:102950000A68920603D40A6822F004020A6090F81A
:10296000441001F01C018D40016C4D60016B1DE0B5
:10297000022606FA04F71F424FF0000C4FF0010543
:1029800018D0970716D50A68920605D40A6822F06F
:102990000A020A6080F8255090F8441001F01C01EA
:1029A0008E40016C4E6080F824C0C16A00291AD0A4
:1029B000F0BC08470826A6401E4214D0120712D5C4
:1029C0000A6822F00E020A6090F84410026C01F0CE
:1029D0001C0105FA01F15160C56380F8255080F8AB
:1029E00024C0416BE2E7F0BC7047000070B568B1ED
:1029F000334C01681423334AA14209D2324C0C44AF
:102A0000B4FBF3F39B00C0E910230BE0012070BD81
:102A10002B4C64420C44B4FBF3F39B004364284BFF
:102A2000083B0364022380F825300C6847F6F073F6
:102A30009C43D0E902352B43D0E9045635432B4360
:102A400085692B43C5692B43056A2B4323430B60E0
:102A50008168B1F5804F29D0016C0F23914212D1CA
:102A600052F8A81F90F8444004F01C04A340994376
:102A7000116090F84430416803F01C0399401368DA
:102A80001943116012E00E49A0310A6890F84440E1
:102A900004F01C04A3409A430A6090F84430426852
:102AA00003F01C039A400B681A430A600021C163BB
:102AB000012280F8252080F82410084670BD00000F
:102AC0000804024000000240F8FFFDBF70B5044654
:102AD00090F82400002501280CD0012084F824005F
:102AE00094F825600020012E06D084F824000225E9
:102AF000284670BD022070BD022684F82560E06380
:102B00002068066826F0010606602046FEF7CEFF24
:102B1000206B00282068016802D041F00E0106E019
:102B200021F0040101602068016841F00A010160A0
:102B30002068016841F001010160D9E770B50446E1
:102B400000F08CF90546601C00D0641C00F086F98A
:102B5000401BA042FAD370BD2DE9F04F00224FF088
:102B6000010A4FF00F08DFF8E4B069E00AFA02F456
:102B700014EA010363D0066857000325BD402E43C5
:102B80000660D60800EB8606D6F820C057074FEA45
:102B9000D76908FA09F72CEA070CC6F820C086683E
:102BA000AE4386604668A6434660C668AE43C660CC
:102BB000C56AA543C56222F003055D44AC6896076B
:102BC000370F08FA07F606EA040CB0F1904F04D06C
:102BD0001F4CA04203D101241BE0002419E01D4C2E
:102BE000A04201D1022414E01B4CA04201D10324D5
:102BF0000FE01A4CA04201D104240AE0184CA04274
:102C000001D1052405E0174CA04201D1062400E0C3
:102C10000724BC40644512D1AC68B443AC60124C8C
:102C200025689D432560241D25689D432560241D3E
:102C300025689D432560241D25689D432560521C01
:102C400031FA02F392D100F011B800000000014007
:102C50000004004800080048000C0048001000482C
:102C600000140048001800480004014030BCBDE8D2
:102C7000C08F00002DE9F84FDFF8A091002209F184
:102C8000040A0AF1040B4FF00F080BF1040EBEE02A
:102C900001249440234075D04D68022D01D0122D9F
:102CA00011D1D50800EB85073E6A5507ED0E08FAED
:102CB00005FC26EA0C06D1F810C00CFA05FC4CEA1B
:102CC000060CC7F820C007685500032691F804C019
:102CD000AE400CF0030CB7430CFA05FC4CEA070CB1
:102CE000C0F800C04F68012F05D0022F03D0112F6C
:102CF00001D0122F15D18768D1F80CC0B7430CFA58
:102D000005FC4CEA070CC0F808C0476891F804C0FD
:102D1000A743CCF3001C0CFA02FC4CEA070CC0F8E9
:102D200004C0D1F804C06FEA0C07BF0706D1C76A18
:102D3000A743CCF3C00494403C43C462C468B4438A
:102D40008E68AE402643C6604C68E4005ED5344CC5
:102D5000256E45F001052566246E22F0030504F07A
:102D6000010400942F4C2E19B7689407250F08FA18
:102D700005F4A743B0F1904F05D02B4CA04204D1ED
:102D800001241CE042E0002419E0284CA04201D1BB
:102D9000022414E0264CA04201D103240FE0254C6C
:102DA000A04201D104240AE0234CA04201D1052411
:102DB00005E0224CA04201D1062400E00724AC40EB
:102DC0003C43B460D9F800404D464E689C43F6033E
:102DD00000D51C432C60DAF8004055464E689C43F1
:102DE000B60300D51C432C60DBF800405D464E68FE
:102DF0009C43F60200D51C432C60DEF8004075466B
:102E00004E689C43B60200D51C432C60521C0B68D4
:102E100033FA02F47FF43CAF00F012B80004014032
:102E20000010024000000140000400480008004873
:102E3000000C00480010004800140048001800482A
:102E400018BCBDE8E08F0069084000D00120704741
:102E50000AB18161704781627047000001480068D3
:102E6000704700003400002002480168491C0160DE
:102E7000704700003400002038B50024052000F021
:102E80006DF8002000F01AF808B1012412E00A4998
:102E9000086E40F001000866086E00F00100009026
:102EA000886D40F080508865886D00F080500090FB
:102EB00000F01CF8204638BD0010024070B50546F1
:102EC00009484FF47A7100240068B0FBF1F000F07B
:102ED000B3FF08B1012404E000222946501E00F08F
:102EE0001DF8204670BD000030000020704700F043
:102EF0001F02012191404009800000F1E020C0F84C
:102F00008011704700F01F020121914040098000AC
:102F100000F1E020C0F8001170470000F0B40E4B43
:102F20001B68C3F30223C3F10704042C00D9042453
:102F30001D1D072D01D2002300E0DB1E012606FA2D
:102F400004F56D1E0D409D409E40761E164045EADC
:102F50000601F0BC01F07ABD0CED00E0064A00F07D
:102F6000070110684FF6FF03184040EA01200349AB
:102F700008431060704700000CED00E00000FA0507
:102F80001649B0F5007F0868C0F3412009D0022837
:102F900005D0086820F4C06040F48060086000201C
:102FA00070470128FBD0086820F4C06040F400702E
:102FB00008600B483222006850430A4AB0FBF2F026
:102FC000401C00E0401E4A69520501D50028F9D195
:102FD00048694005E3D503207047000000700040B9
:102FE0003000002040420F000248006800F4C0603A
:102FF00070470000007000402DE9F84F044600259E
:103000000088E44E2F46010504F1200B1DD5606EAB
:1030100078B1B0F5800F11D0B0F5000F04D0B0F545
:10302000400F22D001250FE0F06840F48030F060BE
:103030001BE00021201D01F0C7FD03E000215846E0
:1030400001F058FE050010D02F462088C00426D578
:10305000A06EC0B1B0F1807F1AD0B0F1007F0DD06A
:10306000B0F1407F19D0012518E0D6F88800616ED4
:1030700020F440000843C6F88800E6E7F06840F412
:103080008030F06009E00021201D01F09DFD03E08B
:103090000021584601F02EFE0546F5B12F46206866
:1030A000800366D5B06D4FF00009C00009D4B06D43
:1030B00040F08050B065B06D4FF0010900F08050D5
:1030C0000090DFF8D4A2DAF8001041F48071CAF859
:1030D0000010FFF7C3FE804610E0D6F88800A16E0E
:1030E00020F040700843C6F88800D8E7FFF7B6FE26
:1030F000A0EB0800022801D9032532E0DAF800002D
:10310000C005F3D56DBBD6F8900010F4407015D013
:10311000D4F88410814211D0D6F89000D6F89010DF
:1031200020F4407041F48031C6F89010D6F8901029
:1031300021F48031C6F89010C6F89000C0074ED038
:10314000FFF78CFE804641F2883A05E0FFF786FEE5
:10315000A0EB08015145CFD8D6F890008007F5D5EF
:10316000EDB32F46B9F1000F03D0B06D20F08050C1
:10317000B0652078C00707D0D6F88800A16B20F092
:1031800003000843C6F888002078800707D5D6F8E2
:103190008800E16B20F00C000843C6F88800207816
:1031A000400707D5D6F88800216C20F0300008438E
:1031B000C6F888002078000707D5D6F88800616C2B
:1031C00020F0C0000843C6F888002078C00609D562
:1031D000D6F88800A16C20F44070084300E05AE063
:1031E000C6F888002078800607D5D6F88800E16CFC
:1031F00020F440600843C6F888002088800507D581
:10320000D6F88800E16D20F440200843C6F8880015
:103210002088400507D5D6F88800216E20F440109C
:103220000843C6F888002078400607D5D6F88800FD
:10323000216D20F440500843C6F88800207800062D
:1032400007D5D6F88800616D20F440400843C6F8E1
:1032500088002088C00507D5D6F88800A16D20F425
:1032600040300843C6F8880020884FF0006580048D
:103270004FF0806821D5D6F88800E16E20F04060DC
:103280000843C6F88800E06EA8420ED1F06840F40A
:103290008010F06011E0D6F89000D4F8841020F48B
:1032A00040700843C6F890005CE7404505D1012115
:1032B000201D01F089FC00B107462068000317D5E6
:1032C000D6F88800216F20F040600843C6F88800D7
:1032D000206FA84204D1F06840F48010F06007E04D
:1032E000404505D10121201D01F06EFC00B10746CB
:1032F0002068400317D5D6F88800616F20F0406041
:103300000843C6F88800606FA84204D1F06840F412
:103310008010F06007E0404505D10121201D01F03B
:1033200053FC00B10746208840041AD5D6F888001F
:10333000A16F20F040500843C6F88800A06FB0F19C
:10334000805F03D0B0F1005F05D00AE00221201DAC
:1033500001F03AFC03E00221584601F0CBFC00B139
:1033600007462088000407D5D6F88800E16F20F0D2
:1033700080400843C6F888002068C00307D556F887
:10338000880FD4F8801020F00040084330603846A1
:1033900000F004B8001002400070004018BCBDE806
:1033A000E08F00002DE9F0470D4604005ED0DFF805
:1033B0000881D8F8000000F00700A8420CD2D8F825
:1033C000001021F007012943C8F80010D8F80000C8
:1033D00000F00700A84249D12078384EC0072BD012
:1033E0006068032811D0022812D0316898B14905CD
:1033F00000293BDAB16821F003010143B160FFF716
:103400002DFD074641F288390FE031688901EFE769
:1034100031688903ECE78907EAE7FFF71FFDC11B65
:10342000494502D90320BDE8F087B068616800F023
:103430000C00B0EB810FF0D12078800705D5B06883
:10344000A16820F0F0000843B060D8F800104046B2
:1034500001F00701A9420BD9016821F007012943B6
:103460000160006800F00700A84201D00120DAE7FF
:103470002078400705D5B068E16820F4E060084393
:10348000B0602078000706D5B068216920F460504C
:1034900040EAC100B06000F03BF8B168084AC1F3EF
:1034A0000311515C01F01F01C84006490860BDE8E6
:1034B000F0470020FFF702BD00200240001002404C
:1034C00068910008300000200548064900688968B6
:1034D000054AC1F30221515C01F01F01C840704749
:1034E0003000002000100240A8910008054806495D
:1034F00000688968054AC1F3C221515C01F01F01CF
:10350000C84070473000002000100240A891000819
:1035100070B5264B002210469968DC6811F00C014A
:1035200004F00306224C4FEA640508D00C2904D0AD
:10353000042925D0082925D010E0012E10D11A68C1
:10354000120704D4D3F89420C2F3032202E01A68CD
:10355000C2F30312174E56F8222079B10C290ED16E
:10356000D86800F00301D868C0F30210401C02299B
:103570000AD003290BD0B2FBF0F00AE0104670BD70
:10358000204670BD284670BDB4FBF0F001E0B5FBED
:10359000F0F0D968C1F306214843D968C1F341610D
:1035A000491C4900B0FBF1F070BD00000010024062
:1035B0000024F400789100082DE9F84304007CD041
:1035C000FA4DA86800F00C06E86800F003072078C0
:1035D000C00662D576B10C2E01D1012F0AD0A069A8
:1035E0000028286878D040F001002860FFF736FCFA
:1035F000804659E02868800702D5A0690028DED0FF
:10360000216A2868000703D5286800F0F00004E06C
:10361000D5F89400F02202EA1010814216D908462B
:1036200001F0EEFB002848D1286840F0080028602F
:103630002868216A20F0F000084328606868E16982
:1036400020F47F4040EA0120686015E0286840F0DF
:10365000080028602868216A20F0F00008432860EC
:103660006868E16920F47F4040EA01206860206AD0
:1036700001F0C6FB0028D6D1FFF74AFFA968CC4A63
:10368000C1F30311515C01F01F01C840C949086032
:103690000020FFF713FC00287ED12DE0FFF7DEFBB2
:1036A000A0EB0800022878D828688007F6D528689B
:1036B00040F008002860286801E0B8E00CE0216ACA
:1036C00020F0F000084328606868E16920F47F403A
:1036D00040EA012068600FE020F001002860FFF759
:1036E000BDFB804605E0FFF7B9FBA0EB0800022810
:1036F000D9D828688007F6D42078C00740D0082E93
:1037000018D00C2E01D1032F14D06068B0F5803F83
:1037100017D0B0F5A02F286817D020F4803028608B
:10372000286820F4802028606068E0B1FFF796FBED
:10373000804614E02868800322D56068002876D08F
:103740001EE0286840F48030EDE740F480202860D7
:10375000F7E7FFF783FBA0EB08006428A3D82868ED
:103760008003F6D50CE0FFF779FB804605E0FFF714
:1037700075FBA0EB0800642895D828688003F6D470
:103780002078800739D5042E11D00C2E01D1022FBC
:103790000DD0E068002801E02DE19BE028681DD0F5
:1037A00040F480702860FFF759FB07460BE028685B
:1037B00040050BD5E0680028C1D007E0FFF74EFBBD
:1037C000C01B022894D828684005F7D56868217C7A
:1037D00020F0F85040EA016068600EE020F480704C
:1037E0002860FFF73BFB074604E0FFF737FBC01BF1
:1037F00002286FD828684005F7D42078000728D51C
:1038000060690028D5F8940012D040F00100C5F896
:103810009400FFF723FB074604E0FFF71FFBC01BE4
:10382000022857D8D5F894008007F6D511E0E9E0D2
:1038300020F00100C5F89400FFF710FB074604E0F4
:10384000FFF70CFBC01B022844D8D5F89400800772
:10385000F6D42078400766D5A86D4FF00008C00068
:1038600009D4A86D40F08050A865A86D4FF00108FC
:1038700000F08050009050480168C90511D40168DB
:10388000814641F480710160FFF7E8FA074604E0E1
:10389000FFF7E4FAC01B02281CD8D9F80000C005C5
:1038A000F6D5A068012816D00528D5F8900017D0C5
:1038B00020F00100C5F89000D5F8900020F0040039
:1038C000C5F89000A06841F28839C0B1FFF7C6FA88
:1038D00007460FE069E0D5F8900040F00100EFE7FF
:1038E00040F00400C5F89000F5E7FFF7B7FAC11BF8
:1038F00049457FD8D5F890008007F6D50CE0FFF752
:10390000ADFA074604E0FFF7A9FAC11B494571D893
:10391000D5F890008007F6D4B8F1000F03D0A86D59
:1039200020F08050A865A06AF0B30C2E6AD002285F
:10393000286820F08070286004D0286810F0205F8C
:1039400047D04AE0FFF78AFA064604E0FFF786FA16
:10395000801B02284ED828688001F7D4206BE16ACA
:10396000000110380843616BA26B0902120941EA99
:1039700042410843A18F114A490802EB41510843D3
:1039800094F840104908120102EB41610843E860D5
:10399000286840F080702860E86840F08070E86037
:1039A000FFF75CFA044610E02AE023E00010024032
:1039B0006891000830000020007000400000E0FF27
:1039C000FFF74CFA001B022814D828688001F7D5AD
:1039D00016E0E86820F00300E860E8680A4908405B
:1039E000E860FFF73BFA044607E0FFF737FA001BF1
:1039F000022802D90320BDE8F88328688001F4D4A6
:103A00000020F8E70120F6E7FFFFEEFE2DE9F04188
:103A1000040005D00025A56294F85D0018B107E008
:103A20000120BDE8F08184F85C50204600F066F883
:103A3000022684F85D602068016821F04001016081
:103A4000E0684FF4E062904201D9002101E04FF4B8
:103A50008051B0F5706F02D0904200D0A562276B04
:103A6000012327B9904201D9266300E02363D4E9FA
:103A700001021043D4E9042632431043228B02F49E
:103A800000721043E2691043226A1043A26A104395
:103A900022681060626B606AA66910430427E268BE
:103AA00007EA1646324310430843216848602566FA
:103AB00084F85D300020B4E710B5044600680C4976
:103AC000884214D10B48816D21F4804181654FF407
:103AD00060410948FFF740F8A06DFEF7DBFE606D1E
:103AE000FEF7D8FEBDE810402420FFF700BA10BD55
:103AF0000038004000100240000400482DE9F04169
:103B000086B0054614216846FCF74CFE2848C16C77
:103B100041F00201C164C16C01F002010591816DA7
:103B200041F480418165806D002600F4804005905D
:103B30004FF4604000900220CDE90106032003907D
:103B40000520049069461B48FFF794F81B4C1A485F
:103B500001272060C4E901764FF08008C4E90368BA
:103B600066617803A661C4E907602046FEF73EFF60
:103B700008B172B6FEE7AC65A562104C0E48483439
:103B80001430E4E802071020A4E84101000244F8E0
:103B90001469A661C4E9076008484830FEF726FFAB
:103BA00008B172B6FEE76C65A56206B0BDE8F081AB
:103BB000001002400004004844000240580C00205D
:103BC0002DE9F05F044690F85C0001250A9E1F462F
:103BD00092468B464FF0000801280ED0012084F851
:103BE0005C00FFF73BF9814694F85D0061680128AD
:103BF0000CD0B1F5827F07D102E0022000F00DB9B0
:103C0000A16809B9042801D0022004E1BBF1000F2A
:103C100024D0BAF1000F21D007B394F85D00042836
:103C200002D0052084F85D0000202066C4F840A082
:103C3000A4F84670A4F84470C4F838B0E787A787A2
:103C4000E0642065E0684FF4E061884201D8012F0C
:103C500006D92068426822F4805205E00120DAE0AB
:103C60002068426842F4805242602068026852062E
:103C700003D4026842F040020260E0688842606853
:103C800042D908B1012F37D1A06B21680088C860E4
:103C9000A06B801CA063E08F401EE0872CE02068B2
:103CA000816889070DD5E18F59B1012D09D1A16B2B
:103CB0000988C160A06B801CA063E08F401EE08774
:103CC000002520688168C9070ED0B4F8461059B1A4
:103CD000C068216C0880206C801C2064B4F8460009
:103CE000401EA4F846000125FFF7B8F8A0EB090034
:103CF000B04201D3701C72D1E08F0028CFD1B4F84C
:103D000046000028CBD173E008B1012F69D1E08FC4
:103D10000128A06B08D921680088C860A06B801CAE
:103D2000A063E08F801E07E0216800780873A06B15
:103D3000401CA063E08F401EE08752E0206881684D
:103D4000890718D5E18FB1B1012D14D1E18F012977
:103D5000A16B07D90988C160A06B801CA063E08FAC
:103D6000801E06E009780173A06B401CA063E08F01
:103D7000401EE087002520688168C90727D0B4F875
:103D8000461021B3B4F84610012914D9C068216C3B
:103D90000880206C801C2064B4F84600801EA4F8C3
:103DA0004600B4F84600012810D82068416841F464
:103DB000805141600AE0007B216C0870206C401C3F
:103DC0002064B4F84600401EA4F846000125FFF721
:103DD00045F8A0EB0900B04202D3701C01D019E0F5
:103DE000C6B1E08F0028A9D1B4F846000028A5D1BB
:103DF0004A463146204601F0F5FC18B120204FF02C
:103E000001082066012084F85D00002084F85C0031
:103E10004046F3E603208046F4E730BCBDE8C09F8F
:103E20004FF0E0210428086903D020F00400086165
:103E3000704740F00400FAE710B5401EB0F1807FF3
:103E400001D3012010BD4FF0E02460610F21601705
:103E500000F0FCFD0020A06107202061002010BDC3
:103E600030B590F83C20012A3AD0012280F83C205D
:103E7000CA688B6822F440721A434B6822F480624D
:103E80001A430B6822F400621A430B6922F4805231
:103E90001A434B6922F400521A438B6A22F480427F
:103EA0001A430B8B22F4702242EA03420D4D036841
:103EB0000024AB4202D00C4DAB420CD18D8C22F4CD
:103EC000700242EA0552CD6922F080722A43096AE3
:103ED00022F000720A435A6480F83C40002030BD52
:103EE000022030BD002C01400034014070B590F834
:103EF0003C20012A24D0012580F83C50022280F881
:103F00003D2003685A689E680E4CA34202D00E4CB6
:103F1000A34203D122F470044A68224322F07004C1
:103F20000A688968224326F0800421435A600268A7
:103F3000916080F83D50002180F83C10084670BD2B
:103F4000022070BD002C014000340140022180F8A5
:103F50003D1001688B68094A1340062B08D08B6816
:103F60001340B3F5803F03D00A6842F001020A60B3
:103F7000012180F83D10002070470000070001007B
:103F8000022180F83D1001680A6A41F211131A42B9
:103F900007D10A6A9B101A4203D10A6822F0010273
:103FA0000A60012180F83D100020704710B586B0EE
:103FB000044614216846FCF7F5FB0F492068884247
:103FC00017D10E48C16C41F00101C164C06C694653
:103FD00000F0010005904FF48070009002200190E5
:103FE000002002900390012004904FF09040FEF7D3
:103FF00041FE06B010BD0000002C01400010024040
:1040000070B5044690F83C0001280ED0012584F8D4
:104010003C50022084F83D000C2A19D007DC5AB12C
:10402000042A0DD0082A1ED10EE0022070BD102AED
:1040300012D0142A17D113E0206802F037FB12E0E7
:10404000206802F081FB0EE0206802F0C5FB0AE068
:10405000206802F009FC06E0206802F03FFC02E064
:10406000206802F073FC84F83D50002084F83C0086
:1040700070BD10B5040003D094F83D0010B107E006
:10408000012010BD002084F83C00204600F00CF810
:10409000022084F83D00211D206802F0A7FA0120CB
:1040A00084F83D00002010BD08B50068064988422C
:1040B00008D10648016E41F400610166006E00F40B
:1040C0000060009008BD0000002C0140001002407C
:1040D000704770B504460068016821F49071016072
:1040E0002068816821F001018160206881684FF0BB
:1040F0000005490609D5816821F040018160E06E24
:1041000018B18563E06EFEF781FBA4F85A50216870
:104110000F2008622068018B41F0080101832020F4
:1041200084F87200002070BD704700002DE9F04156
:1041300002680446D0691168936810F00F0F4FF0C1
:1041400000055BD003F0010601F49077374369D096
:10415000C70707D0CF0505D501271762626F42F068
:1041600001026267820708D5DA0706D027680222B3
:104170003A62626F42F004026267420708D5DA07CA
:1041800006D0236804221A62626F42F0020262675C
:1041900002070AD501F02002324306D02368082224
:1041A0001A62626F42F008026267626F002A32D0C0
:1041B000800605D5880603D5216E09B120468847BB
:1041C000606F000703D420688068400625D520462C
:1041D00002F090FC20688168490619D5816821F0B9
:1041E00040018160E06E98B120498163E06EFEF786
:1041F0002AFB00280FD0E06E816B06E0860611D501
:104200008E060FD5216E1EE02046BDE8F04108471E
:104210002046FFF789FFBDE8F0812046FFF784FFC5
:104220006567F8E7C60209D55B0207D54FF4801031
:1042300010622046BDE8F041FFF74ABF030605D5EE
:104240000B0603D5616E0029DED1E4E74006E2D516
:104250004806E0D51168204621F040011160202178
:1042600084F87110656600F03CF9D4E7E16A000853
:1042700010B5040003D094F8710010B107E00120DC
:1042800010BD002084F87000204600F027F824209C
:1042900084F871002068016821F001010160204666
:1042A00002F038FC0128EBD0606A10B1204602F021
:1042B00085FB2068416821F4904141602068816855
:1042C00021F02A0181602068016841F0010101604C
:1042D0002046BDE8104002F0D5BB000010B50068D4
:1042E000154986B0884224D11448C16C41F00401BC
:1042F000C164C16C01F004010591816D41F480211C
:104300008165806D012100F48020059010200090CF
:104310000220CDE9010103900720094C0490694671
:104320002046FEF7A7FC2021009169462046FEF7B3
:10433000A1FC06B010BD0000004800400010024083
:10434000000800482DE9F84F044690F8720098469E
:1043500016460D46202867D1FDB1F6B194F87000DD
:10436000012861D0012084F870004FF00009C4F8E2
:104370007490222084F872005434FEF76FFDA680FA
:104380008246E68054F84C0C4FF48057FF21543C91
:10439000B84208D1206918B10DE0012000F046B8FC
:1043A00040F2FF100DE07F2218B1B0F1805F05D020
:1043B00009E0206950B9A4F85C1004E0206928B134
:1043C0003F20A4F85C00B4F85C601CE0A4F85C201A
:1043D000F9E75346002220212046CDF8008002F064
:1043E000F7FC08B10320D9E7A068B84201D12069E1
:1043F000A0B12068808C304005F8010BB4F85A0059
:10440000401EA4F85A00B4F85A000028E1D1202038
:1044100084F8720084F870900020BFE72068808CD8
:10442000304025F8020BE9E70220B7E718BCBDE8E9
:10443000E08F2DE9F843044690F871001E461746B8
:104440000D4620284BD1C5B1BFB194F870000128AA
:1044500045D0012084F870004FF00008C4F8748043
:10446000212084F87100FEF7F9FCA4F85070814611
:10447000A4F852704FF4805715E00120BDE8F8838E
:104480008021204602F0A4FCD8B9A068B84201D12E
:104490002069C0B115F8010B21680885B4F85200F5
:1044A000401EA4F85200B4F852004B464FF00002F0
:1044B00000960028E4D14FF04001204602F088FC2D
:1044C00030B10320DAE735F8020BC0F30800E3E768
:1044D000202084F8710084F870800020CEE702204C
:1044E000CCE77047FEE7000010B5124C0022012116
:1044F0002046FEF7ADFC206820F00C00206020680C
:1045000040F004002060002202212046FEF7A0FCBB
:104510000A2003F057FD012211462046FEF798FCC1
:104520000A2003F04FFD20460022BDE81040012183
:10453000FEF78EBC0008004810B5124C0022012185
:104540002046FEF785FC206820F00C0020602068E3
:1045500040F004002060012202212046FEF778FC92
:104560000A2003F02FFD012211462046FEF770FCC1
:104570000A2003F027FD20460022BDE8104001215B
:10458000FEF766BC000800482DE9F041174E0746CB
:104590000024306820F00C00306030683060254620
:1045A000002201213046FEF753FC0A2003F00AFDE9
:1045B000012211463046FEF74BFC0A2003F002FDB3
:1045C0006006040E02213046FEF73DFC08B1641C73
:1045D000E4B26D1CEDB2082DE2D327B1FFF784FFE2
:1045E0002046BDE8F081FFF7A7FFF9E70008004883
:1045F00070B5194E05463046316821F00C01316026
:10460000316841F00401316000220121FEF720FCF5
:104610000024280601D5012200E0002202213046B4
:10462000FEF716FC6806050E052003F0CBFC012200
:1046300011463046FEF70CFC0A2003F0C3FC0022B2
:1046400001213046FEF704FC042003F0BBFC641C8F
:10465000E4B2082CDDD370BD0008004810B5154C3D
:10466000206820F00C002060206840F004002060EA
:10467000012202212046FEF7EBFB012003F0A2FC01
:10468000012211462046FEF7E3FB052003F09AFCC9
:10469000002202212046FEF7DBFB0A2003F092FCF9
:1046A000002201212046FEF7D3FBBDE81040042084
:1046B00003F088BC0008004810B5124C206820F0B8
:1046C0000C002060206840F00400206000220221DD
:1046D0002046FEF7BDFB012211462046FEF7B8FB3F
:1046E000052003F06FFC012202212046FEF7B0FBFB
:1046F000052003F067FC20460022BDE810400121A0
:10470000FEF7A6BB0008004870B5184D00242868C5
:1047100020F00C0028602868286001220221284629
:10472000FEF796FB032003F04DFC012211462846BC
:10473000FEF78EFB032003F045FC07E0641CE4B2A7
:10474000FA2C03D9FFF7B8FF012070BD02212846DB
:10475000FEF779FB0028F1D1002201212846FEF75F
:1047600077FB042003F02EFC002070BD00080048F9
:1047700000EB8100006E00F0F84070478068C0F3E5
:10478000C00070478068C0F3000070478068C0F3C5
:1047900080007047C06810F4406F01D0002070475F
:1047A00001207047042310B503EAD1531844C1F324
:1047B000045107248C4043698A40A3431343436157
:1047C00010BD00EB8100016E21F000411143016634
:1047D0007047000010B50D4C012240212046FEF725
:1047E00037FB0A2003F0E0FB002240212046FEF7C1
:1047F0002FFB642003F0D8FB012240212046FEF766
:1048000027FBBDE810400A2003F0CEBB000800489B
:1048100010B5FFF723FF0020FFF7EAFEFFF774FF54
:104820000720FFF7E5FEFFF76FFFFFF717FF0120F7
:10483000FFF7DEFEFFF768FF0020FFF7A5FE134C31
:1048400060700020FFF7A0FE20700020FFF79CFEA4
:10485000A070FFF731FF20784FF6FF7101EA0020CA
:104860006178084303F0E6FF9FED091B53EC112B21
:1048700004F030F89FED081B53EC112B04F090FA74
:1048800003F04EFD00EE100A10BD00005D00002098
:104890007B14AE47E17A943F6666666666027140B5
:1048A000094808B5816C41F001018164806C0022E7
:1048B00000F00100009011460B20FEF72FFBBDE831
:1048C00008400B20FEF71EBB0010024010B596B04A
:1048D0000024129413941C210BA81494FBF762FF7C
:1048E0002C216846FBF75EFF2348224901604F21D7
:1048F000C0E901142721C0E903148021C0E9054162
:10490000FFF7B7FB08B1FDF73CFA2020CDE9120410
:1049100012A919481494FFF7E9FA08B1FDF731FA22
:104920000220CDE90B400D940E940F9410940022B8
:104930000BA911481194FFF763FB08B1FDF721FAA9
:1049400000944FF40050CDE9044001940294039484
:1049500000030694CDE907400994694606480A9485
:10496000FFF77EFA08B1FDF70CFA0348FFF71EFBCC
:1049700016B010BD002C0140FC0C002070B586B0B4
:104980002648FDF729FE25482549002401604FF4FB
:104990004031C0E901140121C0E90341082141610E
:1049A00044760221C16180F820404FF4C861C0E91B
:1049B00009414FF48061C1620476446380F8384055
:1049C00080F83040FDF726FD0120FEF7B7F87F2183
:1049D0001248FDF7C1FA20B112A0FBF7CFFCFDF79A
:1049E000D0F91748009001A9062004257F2681E808
:1049F0006100CDE9045469460848FDF7F5FA11480D
:104A0000009001A90C2081E86100CDE904546946B9
:104A10000248FDF7E9FA06B070BD0000480B00201F
:104A2000000004504144432043616C696272617428
:104A3000696F6E204661696C6564210A00000000A0
:104A40002000F01440002019FEE770470907090E06
:104A5000002806DA00F00F0000F1E02080F8141DB5
:104A6000704700F1E02080F8001470472DE9F0470E
:104A7000214E14460A46F18001461D461F48FBF7A9
:104A80004CFE7470B5701E4D286B80471B4C3078FF
:104A90005027403C4FF04E084FF047094FF00402BA
:104AA00030B118491548FBF700FE277049200DE08A
:104AB00014491248491FFBF7F8FD28B1696BBDE89E
:104AC000F04740F6B830084727704F2060700B4819
:104AD00084F8028084F8039001220421403800F019
:104AE000CFF93081010A21716071AA6ABDE8F047EF
:104AF0000248062140381047000000203C090020F1
:104B0000B0910008639100087047000070B5124D25
:104B1000286B8047114E3078B8B1114C50200122DB
:104B20002070492060704E20A0704720E070042162
:104B3000204600F0A5F93081010A217160712046FC
:104B4000AA6ABDE8704006211047696BBDE8704055
:104B500040F6B83008470000B0910008000000207F
:104B6000FC08002010B5044C206B8047616BBDE849
:104B7000104040F6B8300847B091000870477047C1
:104B800070B50D4D01244FF47A7635F8140003F01A
:104B9000DBF910EE100A04F0EDF941EC100B07A060
:104BA00053EC102BFBF7EAFBA41CB442EDDBBDE891
:104BB000704004A0FBF7E2BB10010020252E3366F5
:104BC000090000000D0A00002DE9F041444E0546A1
:104BD0008846F0680024810728680ED0F16801F04B
:104BE0000301814207D130B1F0686968C0F3021057
:104BF000401C88421FD001246EE0012809D0022801
:104C00000AD00328F7D13168890309D431684903F0
:104C100004E03168890701E0316849050029EADAD2
:104C2000F1686A686FF00F0321F0730103EB021261
:104C300011430143F160306820F080603060FEF77E
:104C40000DF9074604E0FEF709F9C01B022839D820
:104C500030680001F7D47CBBB8F1000F18D0B8F170
:104C6000010F1ED0287D4FF07E41400801EB4060CF
:104C7000A96840EA012031691A4A114008433061AD
:104C8000306840F080603060FEF7E8F807461BE0CF
:104C9000A868E9680002090940EA41403169124AFE
:104CA000EBE7288A1149400801EB4050A96840EA27
:104CB000012031690E4AE0E70EE0FEF7CFF8C01B95
:104CC000022801D9032407E030680001F5D51CB99A
:104CD0003069A969084330612046BDE8F0810000D1
:104CE00000100240FF80FFF9FF80FDFF0000E0FFA1
:104CF000FF809FFF2DE9F0413E4E05468846F06853
:104D00000024810728680ED0F16801F00301814278
:104D100007D130B1F0686968C0F30210401C8842C6
:104D20001FD0012462E0012809D002280AD00328FC
:104D3000F7D13168890309D43168490304E0316847
:104D4000890701E0316849050029EADAF1686A68F3
:104D50006FF00F0321F0730103EB021211430143C3
:104D6000F160306820F080503060FEF777F8074639
:104D700004E0FEF773F8C01B02282DD830688000CD
:104D8000F7D454BBB8F1000F15D0287C4FF07E410A
:104D9000400801EB4060A96840EA01217069164AA9
:104DA000104001437161306840F080503060FEF780
:104DB00055F8074612E0A868E9680002090940EAC8
:104DC000414071690D4A114008437061EBE7FEF7FD
:104DD00045F8C01B022801D9032407E03068800091
:104DE000F5D51CB970696969084370612046BDE852
:104DF000F081000000100240FF80FFF9FF80FDFFFE
:104E0000F8B51C4E05460024B06DC00002D5FEF773
:104E1000EBF80DE0B06D40F08050B065B06D00F083
:104E200080500090FEF7E0F8B16D21F08051B1653F
:104E3000B0F5007F04D0802D07D94FF003040AE0BD
:104E4000802D08D9A02D01D804E001D1022402E070
:104E5000702D00D101240848016821F00701214389
:104E60000160006800F00700A04201D00120F8BDF9
:104E70000020F8BD001002400020024001207047D1
:104E80002DE9F041002415460E460746012A06D0BA
:104E900041F22100804605D14FF6FF700BE048F249
:104EA0000500F7E741F60F5005E0395D4246FCF793
:104EB000D6FD641CE4B2B442F7D3012D01D0C04347
:104EC00080B2BDE8F081000070B10B4A002152F8B9
:104ED000313083420AD802EBC1039B68834205D973
:104EE00002EBC100007B70471F207047491CC9B20C
:104EF0001529ECD3FEE700002092000810B500F061
:104F00008DFD032804D0042803D0052803D00020F9
:104F100010BD022010BD012010BD0320704700000D
:104F200010B50E4C20610E4800F008FE002001F084
:104F3000E7F8012001F039F80021084600F0C7FE2B
:104F40000421002001F017F900234FF6FF701A46E4
:104F5000014600F002FF0020A07010BD600000209C
:104F60005D500008F8B502213048FDF76CFF0128BC
:104F70005BD12F4D0020A87000F046FD04464FF68F
:104F8000FF7000F035FDE00704D0286910B100681B
:104F900000B18047A00716D5FF226946254800F0DA
:104FA00089FD2448143800F041FD286958B186680D
:104FB0004EB120489DF80010143890F90D3090F94A
:104FC0000C201430B047600604D5286910B1006980
:104FD00000B18047200608D5286930B1816921B128
:104FE000E04340F30020401C8847A00511D500F0A5
:104FF00015FD042804D000F011FD052804D008E0B8
:10500000286930B1406802E0286910B1C06800B179
:105010008047A00609D52869002806D0C068002866
:1050200003D001B0BDE8F0400047F8BD00040048DF
:1050300060000020500D002070B50D46012400F0E6
:1050400093F8284600F0B8FF002000F02DF801206A
:1050500002F0AAFF00F064FA204670BD0149012069
:10506000887070476000002070B50025012000F0B6
:105070007BF8002000F0ECFF0024012002F094FFF8
:1050800000F02FFD00F00100A040641C0543E4B2D5
:10509000202CF2D300F044FA284670BD00F0BABDCF
:1050A00000F0C0BD00F01DBD10B5044600234FF652
:1050B000FF701A46014600F050FE0548407810B1D6
:1050C0006FF07F4000E0A001BDE8104000F0C0BFDD
:1050D0006000002010B5044600234FF6FF701A460A
:1050E000014600F03AFE0548407810B16FF07F406D
:1050F00000E0A001BDE8104000F0BEBF600000204D
:1051000070B505460C46002340F201201A460146C0
:1051100000F023FE00F0C8FC074901280AD00C72F9
:10512000054800F0CDFE21462846BDE8704000222B
:1051300000F0C4BDCC73F3E7500E002000F03CBF7C
:10514000074B084A012807D0D079012807D11970E8
:105150001172044800F0B4BE1970D173F9E77047BA
:1051600060000020500E002010B50A4C012805D028
:10517000002000F007FF0020607010BD012000F04B
:1051800001FF617820788142F7D06070BDE810405F
:1051900000F002B86300002070B504460B480470AC
:1051A00044700120FFF7E0FF4FF4E860451C24B194
:1051B000342101F0BDF8442103E0142101F0B8F8D6
:1051C00024212846BDE8704001F0B2B863000020F9
:1051D0002DE9FF4F15462DED028B83B0674FDDE9BA
:1051E000159288461B99DDF85CB0139E79705FEAD2
:1051F000090101D03A7001E0FF213970604C4FF095
:10520000000A04F128010291E8B101287CD10020B4
:1052100000F088FF1498C0B200F0BAFD0121594B8C
:1052200084F82810E8B284F8380013F8082084F8CD
:105230003920089A84F83A20B8F1000F6FD0B8F1FD
:10524000010F6ED06FE0002000F06CFF84F828A002
:105250000B20E56284F834004046FFF735FE84F801
:1052600035004FF6FF7084F800A000EAC6006080A9
:10527000042020711820607184F806A089F00100D4
:10528000E07138782072BBF1000F01D0F22000E00D
:105290000120607284F80AA0002000F031FF94F829
:1052A000280000B10120FFF75FFF029800F078FDB1
:1052B000334800F005FE34A0D0E90010CDE900101D
:1052C000684600F036FF40F2FF1000F093FF2846DA
:1052D00003F0B0FA41EC100B53EC102B9FED2C0BAC
:1052E00051EC100B03F00AF99FED2B1B53EC112B23
:1052F00003F0F0FA41EC180B149803F09BFA53EC0E
:10530000182B03F0E7FA01E032E008E09FED241BE0
:1053100053EC112B03F0DEFA03F048FA27E00B2DD3
:1053200009D00C2D07D084F83BA02170052805D0AA
:10533000062803D007E084F83B10F6E70C2E02D2D3
:105340000C20A08100E0A68184F80E903878E073EC
:1053500084F810B01A9860740120FFF705FF0298D6
:1053600000F01EFD064800F0ABFD4FF6FF70F86040
:1053700003B0BDEC028B00F017B800006000002005
:10538000500E00201C920008C194C10000000000D3
:10539000000000000000F03F00000000000020407E
:1053A0000000000000408F401FBCBDE8E08F00F00F
:1053B0007DBE00002DE9FF4F83B010AC010094E8E2
:1053C00025064B4CDDF85C8004F128060296DFF8D8
:1053D00024B14FF000074FF0010602D001297DD122
:1053E0003EE084F82870E0620B2084F83400184610
:1053F000FFF76AFD84F83500059820634FF6FF70CB
:10540000277000EAC50060800420207118206071B8
:10541000A77189F00100E071BAF1000F02D0F2200B
:10542000607200E06672A672002000F069FE94F8D7
:10543000280000B10120FFF797FE029800F0B0FCB1
:105440002B4800F03DFD2CA0D0E90010CDE9001064
:10545000684600F06EFE40F2FF1000F0CBFE3DE02B
:10546000DFF89CC084F82860C1B284F838101CF8BA
:1054700003C084F839C084F83A2013B1012B02D05C
:1054800003E00B2809D00C2807D084F83B70267065
:10549000052905D0062903D007E084F83B60F6E72C
:1054A0000C2D02D20C20A08100E0A58184F80E9082
:1054B0009BF80000E07384F810A084F811800020AD
:1054C00000F01EFE94F8280000B10120FFF74CFE0A
:1054D000029800F065FC064800F0F2FC049800F029
:1054E000B3FD1898CBF8080007B000F00BB8000027
:1054F000500E002060000020C194C1000000000098
:105500001C92000830BCBDE8C08F10B50C4600F0FE
:1055100053FD204600F098FDBDE8104000F026BE87
:1055200010B5042000F0DEFDBDE81040022002F0BE
:105530003BBD002000F0E4BD00F0D4BB70B50E46CA
:105540002DED0C8B01004FF000009FED6ACB6B4CF2
:105550009FED6BAB7DD001297CD194F839006A496D
:1055600000EB400094F8385001EB0010C5F10C013D
:1055700000EBC10010ED309BA0891C3403F05AF9F8
:105580009FED621B53EC112B02F0FCFE53EC192B28
:1055900003F0A0F941EC1B0BA07F00F00300001DFD
:1055A00003F048F941EC1D0BE07F1C3C00B10220E8
:1055B000281A800003F027F941EC180BF00069422B
:1055C00000EB8100217C00EB0111A07B01286FD052
:1055D0000020081A1C3003F016F953EC182B02F0C7
:1055E0008DFF41EC100B01F077FC53EC1D2B51ECBF
:1055F000100B03F06FF941EC180B53EC1A2B03F06E
:1056000067FA03D3B0EE4A8AF0EE6A8A53EC1C2B99
:1056100051EC180B02F0B6FE53EC192B03F05AF9BB
:1056200041EC100B51EC1B0B53EC102B02F0AAFEBB
:105630009FED381B53EC112B02F0A4FE41EC100B34
:1056400001F0D6FC00F076B851EC100BBDE87040CC
:1056500001E002E04AE003F0A9B8E06A03F0EAF8EA
:1056600041EC190B304603F0E5F841EC1B0B608868
:10567000617900EBD10003F0DDF841EC100BE0792B
:1056800088B19FED268B51EC100B53EC182B02F0D8
:1056900079FE53EC1B2B02F075FE41EC100B607A87
:1056A000022806D007E0B0EE4A8AF0EE6A8AEAE7FE
:1056B0001AE09FED1CAB51EC100B53EC1A2B02F0CF
:1056C00061FE53EC1C2B03F005F953EC192B02F08F
:1056D00015FF9FED161B53EC112B03F0FBF841EC6B
:1056E000100B02F051FBADE7142072E700F028B870
:1056F00070BD00000000000000002040500E00209F
:105700000000000000000000780000200000000001
:10571000000011402B8716D9CEF7EF3F00000000A4
:105720000000F03F0000000000000040000000000A
:1057300000408F40BDEC088BBDEC04CBFFF784BF6D
:10574000BDEC088BBDEC04CBFFF7D2BF00F0F0BD81
:1057500000F0F4BD10B50448FCF7FCFFBDE81040B4
:105760000148FDF716B80000480B002010B51C4C8E
:105770001A484FF4E06120604FF4827060600020AE
:10578000C4E902014FF400712061C4E90501382128
:10579000C4E9071007216062C4E90A01206360635D
:1057A0002046FEF789F92046FEF7A8F92046FEF7C5
:1057B0002DF92068016841F04001016004F16400A6
:1057C0000068016841F00101016004F1AC0000686B
:1057D000016841F00101016010BD00000038004087
:1057E000F40B0020F8B515460E460B460092044611
:1057F00000224FF4C05100F019F888B93346002256
:1058000080212046009500F05CF848B9334600221C
:105810004FF4C0612046009500F008F8002804D03D
:10582000206E40F0200020660320F8BD2DE9F047EF
:105830001D4616460F4604464FF4C069DDF8208029
:105840000CE04F4501D106B9007B681C06D0FDF77E
:1058500005FBA0EB0800A84208D23DB12068816892
:105860003940B142EDD10020BDE8F08720684168A1
:1058700021F0E00141606068B0F5827F0BD1A06843
:10588000B0F5004F02D0B0F5806F04D120680168F8
:1058900021F040010160A06AB0F5005F09D12068E5
:1058A000016821F4005101602068016841F4005151
:1058B0000160012084F85D00002084F85C00032072
:1058C000D2E72DE9F0411D4617460E460446DDF8A5
:1058D000188008E0681C06D0FDF7C0FAA0EB0800AD
:1058E000A8420BD255B12068806836EA000030D05B
:1058F0000020B842EED10020BDE8F0812068416868
:1059000021F0E00141606068B0F5827F0BD1A068B2
:10591000B0F5004F02D0B0F5806F04D12068016867
:1059200021F040010160A06AB0F5005F09D1206854
:10593000016821F4005101602068016841F40051C0
:105940000160012084F85D00002084F85C000320E1
:10595000D2E70120CDE7704770477047174908B577
:10596000884204D9E1208DF80000E9201EE01449A6
:10597000884204D9D7208DF80000D82016E01149BC
:10598000884204D9C1208DF80000C5200EE00E49E0
:10599000884204D975208DF80000812006E00B496B
:1059A000884205D96B208DF800006F208DF801002A
:1059B00002226946982000F08FFC08BD00E9A4355A
:1059C00080F8A9328044E52D000B6B1B40FC541974
:1059D000064810B5407808B1062803D100F032FC23
:1059E000FFF7BBFFBDE8104000F020BC080100201D
:1059F00008B5010A8DF800108DF8010002226946F1
:105A0000104600F069FC08BD08B502226946122064
:105A100000F0D4F8BDF8000040BA08BD0148407855
:105A200070470000080100200220704738B5044686
:105A300003226946142000F0C1F81A4988782070C2
:105A400040B1012816D014212046FAF7ABFE0F20F2
:105A5000207038BD9DF8000020719DF80100404283
:105A60004010A0719DF8020040424010607100207B
:105A7000A06038BD9DF800004042401020739DF8A2
:105A80000100802801D2800802E0A0F5807080101B
:105A900060739DF8020040424010A0734868206186
:105AA00038BD0000080100200148807870470000E0
:105AB00008010020F8B505460E4600208DF80000CC
:105AC00014466946304600F019F83278A24201D9EE
:105AD0000120F8BD29469DF8000000F041F80020A3
