:020000040800F2
:10000000580E002089020008931E000805180008F9
:10001000911E000875080008A127000800000000D4
:10002000000000000000000000000000BB200008ED
:100030007708000800000000B51E0008BD20000879
:10004000A3020008A3020008A3020008A3020008FC
:10005000A3020008A3020008A3020008A3020008EC
:10006000A3020008A3020008A3020008A3020008DC
:10007000A3020008A3020008A3020008A3020008CC
:10008000A3020008A3020008A3020008A3020008BC
:10009000A3020008A3020008A3020008A3020008AC
:1000A000A3020008A3020008A3020008A30200089C
:1000B000A3020008A302000875210008A30200089B
:1000C000A3020008A3020008A3020008A30200087C
:1000D000A302000835270008A3020008A3020008B5
:1000E000A3020008A3020008A3020008A30200085C
:1000F000A3020008A3020008A3020008A30200084C
:10010000A3020008A3020008A3020008A30200083B
:10011000A3020008A3020008A3020008A30200082B
:10012000A3020008A3020008A3020008A30200081B
:10013000A3020008A3020008A3020008A30200080B
:10014000A3020008A3020008A3020008A3020008FB
:10015000A3020008A3020008A3020008A3020008EB
:10016000A3020008A3020008A3020008A3020008DB
:10017000A3020008A3020008000000000000000025
:10018000A3020008A302000800F002F800F06DF8D6
:100190000AA090E8000C82448344AAF10107DA45E2
:1001A00001D100F062F8AFF2090EBAE80F0013F0C7
:1001B000010F18BFFB1A43F001031847581E010036
:1001C000781E01000A444FF0000C10F8013B13F0B8
:1001D000070408BF10F8014B1D1108BF10F8015BA0
:1001E000641E05D010F8016B641E01F8016BF9D193
:1001F00013F0080F1EBF10F8014BAD1C0C1B09D1EA
:100200006D1E58BF01F801CBFAD505E014F8016B5B
:1002100001F8016B6D1EF9D59142D6D370470000ED
:100220000023002400250026103A28BF78C1FBD8FF
:10023000520728BF30C148BF0B607047642900F0E7
:100240001781752900F01481782900F04D81632908
:1002500000F0A482732900F0A982002070471FB526
:1002600003F0A2FA1FBD10B510BD00F0D1FA11467F
:10027000FFF7F5FF02F0DCFA00F0EFFA03B4FFF746
:10028000F2FF03BC02F094FA09488047094800478E
:10029000FEE7FEE7FEE7FEE7FEE7FEE7FEE7FEE736
:1002A000FEE7FEE704480549054A064B7047000093
:1002B000312100088901000858080020580E00204C
:1002C000580A0020580A0020704753EA020C00F038
:1002D00069802DE9F04B4FF00006002B1FBFB3FAE9
:1002E00083F503FA05F424FA05F65E4012BF1643BF
:1002F000B2FA82F502FA05F4C5F120051EBF22FA12
:1003000005FC44EA0C04203556EA044C4FEA144438
:1003100018BF641C4FF000084FF00009904271EBC9
:10032000030C39D3002919BFB1FA81F701FA07F696
:10033000B0FA80F700FA07F6C7F120071EBF20FACF
:1003400007FC46EA0C062037B6FBF4FCA7EB0507D2
:10035000103F07F01F0BCBF120060CFA0BFB2CFA19
:1003600006F644BFB3460026202FA4BF5E464FF0DA
:10037000000B5BEA060C08BF4FF0010B19EB0B09F1
:10038000ABFB027C48EB0608C01B06FB02CC0BFB58
:1003900003CC71EB0C01C1E70B46024641464846CF
:1003A000BDE8F08B13B54FF000004FF00001AFF344
:1003B0000080BDE81C4070470FB4044910B503AA83
:1003C000029800F0F7F910BC5DF814FB1000002053
:1003D00070B5044685690068C10601D5302600E085
:1003E0002026C00707D070BDD4E9012130469047D0
:1003F000206A401C20626D1EF6D570BD70B50446A3
:1004000085690078C00707D170BDD4E9012120209B
:100410009047206A401C20626D1EF6D570BD70B5F5
:100420000C460546012A05D02878800600D5EA69E1
:10043000002302E0012305E05B1C934202D2E05C52
:100440000028F9D1A869E618C01AA861286A1844DA
:1004500028622846FFF7BCFF04E0D5E9012114F823
:10046000010B9047B442F8D32846FFF7C7FF70BD91
:100470002DE9F0410646002410687529314616A57D
:1004800010D0AFF30080002802DA404213A507E045
:1004900031688A0701D512A502E0490704D511A5E4
:1004A000012401E0AFF3008000210A2206F12407B5
:1004B00009E0B0FBF2FCB0FBF2F302FB1C003030B1
:1004C00078541846491C0028F3D123462A46304662
:1004D000BDE8F04100F0FFB8000000002D00000072
:1004E0002B0000002000000070B504460D46214698
:1004F0001068AFF300802188090502D50F4A7A44BD
:1005000002E00E4A7A440E32002104F1240305E091
:1005100000F00F060009965D5E54491C0028F7D1D3
:1005200020780023000704D5702D02D009B10223E2
:1005300011322046BDE8704000F0CDB86E180100C1
:100540002DE9F05F894604464FF0000ADFF874B1E8
:10055000FB44C0F820A02046E1688847002874D0FA
:10056000252806D0D4E901219047206A401C20624A
:10057000F1E700265F462046E168884720280546C7
:1005800007DB312D05D2781910F8200C08B106438D
:10059000F1E7B00701D526F00406C4F81CA0002737
:1005A000C4F818A02A2D09D0284602F0FAF838B36A
:1005B00004EB8708303DC8F8185019E059F8041BBF
:1005C000204604EB87029161E1688847012F0546C8
:1005D00018D1E069002820DA26F020061DE0D8F8BE
:1005E000180000EB800005EB40003038C8F8180018
:1005F0002046E1688847054602F0D3F80028EED18E
:10060000012F0AD02E2D08D12046E16888477F1C93
:100610000546022F46F02006C4DBA069002803DA55
:10062000404246F00106A061F00701D026F0100616
:100630006C2D0BD0682D09D04C2D39D06A2D35D0BA
:10064000742D35D07A2D33D016E038E0E1682F468E
:1006500020468847B842054609D16C2F26D04FF472
:100660008060E168064320468847054604E06C2F19
:100670001AD04FF4807006430DB3A5F1410019283C
:1006800002D8203546F400664A46294620462660B0
:100690004E46FFF7D3FD80B101280BD0F61D26F0A2
:1006A000070000F1080956E74020E4E78020D8E77A
:1006B0000020D6E706F104094DE7284652E7206AF4
:1006C00000F002B84418010030BCBDE8C09F70477C
:1006D0007047704770472DE9F0470D46994692469E
:1006E000044600F124080168880604D5E06921F079
:1006F0001001216000E00120A84201DD471B00E05D
:100700000027A1697A1902EB0900081AA061207874
:10071000C00602D42046FFF75BFE002608E0D4E9BD
:1007200001211AF806009047206A401C761C2062BE
:100730004E45F4DB2078C0060AD52046FFF748FE78
:1007400006E0D4E9012130209047206A401C206255
:10075000381EA7F10107F4DC07E0D4E9012118F8FD
:1007600005009047206A401C2062281EA5F1010563
:10077000F3DC2046FFF742FE2078000602D5022077
:10078000BDE8F0870120FBE710B5436913B1AFF373
:10079000008001E0FFF743FE012010BD127800F158
:1007A00024010A7000224A700122EDE711684FF01F
:1007B000FF32E9E7074B70B50D467B4400F011F8B6
:1007C0000446284600F020F810B14FF0FF3070BD0D
:1007D000204670BD5B20000001694A1C0261087858
:1007E000704700B58FB0CDE9013100210591054971
:1007F0007944CDE9031011466846FFF7A1FE0FB01A
:1008000000BD0000E5FFFFFF007B00F080007047A7
:10081000754600F02BF8AE4605006946534620F0B9
:100820000700854618B020B5FFF73CFDBDE8204025
:100830004FF000064FF000074FF000084FF0000B9C
:1008400021F00701AC46ACE8C009ACE8C009ACE84F
:10085000C009ACE8C0098D46704710B50446AFF337
:1008600000802046BDE81040FFF708BD00487047F3
:10087000F4070020FEE7704708B5034A00925223B0
:10088000F02201F06FFA08BDB083000830B50F48C0
:1008900087B0C16C41F01001C164C06C4FF460744A
:1008A00000F0100005900120CDE9004002900220E8
:1008B000074D03906946284600F034F8012221468E
:1008C000284600F018F907B030BD000000100240C3
:1008D0000010004810B590F825100024022903D01C
:1008E0000421C16301241AE001680A6822F00E02A3
:1008F0000A6001680A6822F001020A6090F8441058
:10090000012301F01C0203FA02F1026C516080F82D
:100910002530002180F82410816B01B188472046E2
:1009200010BD00002DE9F84FDFF8A091002209F179
:10093000040A0AF1040B4FF00F080BF1040EBEE09D
:1009400001249440234075D04D68022D01D0122D12
:1009500011D1D50800EB85073E6A5507ED0E08FA60
:1009600005FC26EA0C06D1F810C00CFA05FC4CEA8E
:10097000060CC7F820C007685500032691F804C08C
:10098000AE400CF0030CB7430CFA05FC4CEA070C24
:10099000C0F800C04F68012F05D0022F03D0112FDF
:1009A00001D0122F15D18768D1F80CC0B7430CFACB
:1009B00005FC4CEA070CC0F808C0476891F804C071
:1009C000A743CCF3001C0CFA02FC4CEA070CC0F85D
:1009D00004C0D1F804C06FEA0C07BF0706D1C76A8C
:1009E000A743CCF3C00494403C43C462C468B443FE
:1009F0008E68AE402643C6604C68E4005ED5344C39
:100A0000256E45F001052566246E22F0030504F0ED
:100A1000010400942F4C2E19B7689407250F08FA8B
:100A200005F4A743B0F1904F05D02B4CA04204D160
:100A300001241CE042E0002419E0284CA04201D12E
:100A4000022414E0264CA04201D103240FE0254CDF
:100A5000A04201D104240AE0234CA04201D1052484
:100A600005E0224CA04201D1062400E00724AC405E
:100A70003C43B460D9F800404D464E689C43F603B1
:100A800000D51C432C60DAF8004055464E689C4364
:100A9000B60300D51C432C60DBF800405D464E6871
:100AA0009C43F60200D51C432C60DEF800407546DE
:100AB0004E689C43B60200D51C432C60521C0B6848
:100AC00033FA02F47FF43CAF00F012B800040140A6
:100AD00000100240000001400004004800080048E7
:100AE000000C00480010004800140048001800489E
:100AF00018BCBDE8E08F0AB1816170478162704720
:100B000001480068704700000400002002480168A6
:100B1000491C0160704700000400002010B500244B
:100B2000052000F04FF8002000F008F808B101247B
:100B300001E000F01BF8204610BD000070B505462E
:100B400009484FF47A7100240068B0FBF1F000F01E
:100B50008BFC08B1012404E000222946501E00F05D
:100B600011F8204670BD000000000020704700F022
:100B70001F02012191404009800000F1E020C0F8EF
:100B800000117047F0B40E4B1B68C3F30223C3F18E
:100B90000704042C00D904241D1D072D01D20023B5
:100BA00000E0DB1E012606FA04F56D1E0D409D4097
:100BB0009E40761E164045EA0601F0BC01F06AB977
:100BC0000CED00E0064A00F0070110684FF6FF0345
:100BD000184040EA012003490843106070470000B4
:100BE0000CED00E00000FA051649B0F5007F08683A
:100BF000C0F3412009D0022805D0086820F4C06065
:100C000040F480600860002070470128FBD008682D
:100C100020F4C06040F4007008600B483222006885
:100C200050430A4AB0FBF2F0401C00E0401E4A6903
:100C3000520501D50028F9D148694005E3D50320C4
:100C400070470000007000400000002040420F008C
:100C50000248006800F4C060704700000070004067
:100C60002DE9F0470D4604005ED0DFF80881D8F882
:100C7000000000F00700A8420CD2D8F8001021F0C4
:100C800007012943C8F80010D8F8000000F0070059
:100C9000A84249D12078384EC0072BD0606803287D
:100CA00011D0022812D0316898B1490500293BDAE9
:100CB000B16821F003010143B160FFF721FF07464E
:100CC00041F288390FE031688901EFE73168890323
:100CD000ECE78907EAE7FFF713FFC11B494502D993
:100CE0000320BDE8F087B068616800F00C00B0EB4D
:100CF000810FF0D12078800705D5B068A16820F079
:100D0000F0000843B060D8F80010404601F0070139
:100D1000A9420BD9016821F007012943016000684D
:100D200000F00700A84201D00120DAE72078400750
:100D300005D5B068E16820F4E0600843B060207831
:100D4000000706D5B068216920F4605040EAC10070
:100D5000B06000F03BF8B168084AC1F30311515C80
:100D600001F01F01C84006490860BDE8F0470020B7
:100D7000FFF7E4BE0020024000100240B437000834
:100D8000000000200548064900688968054AC1F34B
:100D90000221515C01F01F01C84070470000002093
:100DA00000100240F43700080548064900688968C9
:100DB000054AC1F3C221515C01F01F01C8407047D0
:100DC0000000002000100240F437000870B5264BE8
:100DD000002210469968DC6811F00C0104F003064B
:100DE000224C4FEA640508D00C2904D0042925D0F0
:100DF000082925D010E0012E10D11A68120704D45A
:100E0000D3F89420C2F3032202E01A68C2F303125B
:100E1000174E56F8222079B10C290ED1D86800F06F
:100E20000301D868C0F30210401C02290AD003292C
:100E30000BD0B2FBF0F00AE0104670BD204670BD4A
:100E4000284670BDB4FBF0F001E0B5FBF0F0D968C6
:100E5000C1F306214843D968C1F34161491C4900E7
:100E6000B0FBF1F070BD0000001002400024F4005F
:100E7000C43700082DE9F84304007CD0FA4DA86877
:100E800000F00C06E86800F003072078C00662D581
:100E900076B10C2E01D1012F0AD0A0690028286854
:100EA00078D040F001002860FFF72AFE804659E024
:100EB0002868800702D5A0690028DED0216A28684A
:100EC000000703D5286800F0F00004E0D5F894008E
:100ED000F02202EA1010814216D9084600F0ECFF19
:100EE000002848D1286840F0080028602868216A56
:100EF00020F0F000084328606868E16920F47F4032
:100F000040EA0120686015E0286840F00800286089
:100F10002868216A20F0F000084328606868E169C9
:100F200020F47F4040EA01206860206A00F0C4FF9E
:100F30000028D6D1FFF74AFFA968CC4AC1F30311B4
:100F4000515C01F01F01C840C94908600020FFF74B
:100F5000F5FD00287ED12DE0FFF7D2FDA0EB0800C3
:100F6000022878D828688007F6D5286840F008005D
:100F70002860286801E0B8E00CE0216A20F0F00069
:100F8000084328606868E16920F47F4040EA012056
:100F900068600FE020F001002860FFF7B1FD804697
:100FA00005E0FFF7ADFDA0EB08000228D9D82868BE
:100FB0008007F6D42078C00740D0082E18D00C2E19
:100FC00001D1032F14D06068B0F5803F17D0B0F581
:100FD000A02F286817D020F480302860286820F4DB
:100FE000802028606068E0B1FFF78AFD804614E049
:100FF0002868800322D56068002876D01EE0286823
:1010000040F48030EDE740F480202860F7E7FFF7F8
:1010100077FDA0EB08006428A3D828688003F6D5E4
:101020000CE0FFF76DFD804605E0FFF769FDA0EBE2
:101030000800642895D828688003F6D420788007B3
:1010400039D5042E11D00C2E01D1022F0DD0E0681D
:10105000002801E02DE19BE028681DD040F480705D
:101060002860FFF74DFD07460BE0286840050BD5CB
:10107000E0680028C1D007E0FFF742FDC01B02284E
:1010800094D828684005F7D56868217C20F0F8508E
:1010900040EA016068600EE020F480702860FFF78D
:1010A0002FFD074604E0FFF72BFDC01B02286FD879
:1010B00028684005F7D42078000728D56069002803
:1010C000D5F8940012D040F00100C5F89400FFF765
:1010D00017FD074604E0FFF713FDC01B022857D891
:1010E000D5F894008007F6D511E0E9E020F0010082
:1010F000C5F89400FFF704FD074604E0FFF700FD84
:10110000C01B022844D8D5F894008007F6D4207874
:10111000400766D5A86D4FF00008C00009D4A86D3F
:1011200040F08050A865A86D4FF0010800F0805095
:10113000009050480168C90511D40168814641F406
:1011400080710160FFF7DCFC074604E0FFF7D8FC84
:10115000C01B02281CD8D9F80000C005F6D5A0682D
:10116000012816D00528D5F8900017D020F00100EE
:10117000C5F89000D5F8900020F00400C5F8900064
:10118000A06841F28839C0B1FFF7BAFC07460FE00A
:1011900069E0D5F8900040F00100EFE740F004006E
:1011A000C5F89000F5E7FFF7ABFCC11B49457FD8B8
:1011B000D5F890008007F6D50CE0FFF7A1FC0746B4
:1011C00004E0FFF79DFCC11B494571D8D5F890009C
:1011D0008007F6D4B8F1000F03D0A86D20F080503E
:1011E000A865A06AF0B30C2E6AD00228286820F007
:1011F0008070286004D0286810F0205F47D04AE053
:10120000FFF77EFC064604E0FFF77AFC801B02280D
:101210004ED828688001F7D4206BE16A00011038AD
:101220000843616BA26B0902120941EA424108437B
:10123000A18F114A490802EB4151084394F840102C
:101240004908120102EB41610843E860286840F058
:1012500080702860E86840F08070E860FFF750FC1C
:10126000044610E02AE023E000100240B4370008F2
:1012700000000020007000400000E0FFFFF740FC8D
:10128000001B022814D828688001F7D516E0E8680A
:1012900020F00300E860E8680A490840E860FFF7CA
:1012A0002FFC044607E0FFF72BFC001B022802D9A5
:1012B0000320BDE8F88328688001F4D40020F8E713
:1012C0000120F6E7FFFFEEFE2DE9F84F044690F807
:1012D0005C0000261D469046894601280ED04FF03E
:1012E000010B84F85CB0FFF70BFC074694F85D0037
:1012F0004146B246012804D00226A0E0022000F0B8
:10130000A4B8B9F1000F71D0B8F1000F6ED003206E
:1013100084F85D00C4F860A0C4F83890A4F83C805C
:10132000A4F83E80C4F840A0A4F844A0A4F846A0C5
:10133000C4F850A0C4F84CA0A068B0F5004F04D188
:101340002068026842F48042026020680268520607
:1013500003D4026842F040020260E068B0F5E06F3A
:10136000606822D908B101291BD1A06B21680088CF
:10137000C86006E020688168890709D5A16B0988E3
:10138000C160A06B801CA063E08F401EE08708E076
:10139000FFF7B6FBC01BA84202D3681C01D045E092
:1013A000A5B3E08F0028E5D135E008B101292FD1A0
:1013B000E08F0128A06B03D921680088C8600FE086
:1013C00021680078087314E0E08721E020688168D4
:1013D000890714D5E18F0129A16B08D90988C1605B
:1013E000A06B801CA063E08F801EEDE726E00978EB
:1013F0000173A06B401CA063E08F401EE4E7FFF781
:101400007FFBC01BA84202D3681C01D00EE06DB167
:10141000E08F0028DAD13A462946204600F094FDB4
:1014200008B120202066A06810B105E0032606E080
:101430002068C16880680090206E00B1012684F8A1
:101440005DB084F85CA0304659E718BCBDE8E08F79
:101450004FF0E0210428086903D020F0040008615F
:10146000704740F00400FAE710B5401EB0F1807FED
:1014700001D3012010BD4FF0E02460610F216017FF
:1014800000F008FD0020A06107202061002010BDB1
:1014900010B5040003D094F83D0010B107E001201E
:1014A00010BD002084F83C00204600F00CF802201B
:1014B00084F83D00211D206800F076FE012084F8AC
:1014C0003D00002010BD70470168CA6842F001026B
:1014D000CA600068826807490A40062A08D0826804
:1014E0000A40B2F5803F03D0016841F0010101607C
:1014F0000020704707000100704770472DE9F04158
:1015000002680446D0691168936810F00F0F4FF01D
:1015100000055BD003F0010601F49077374369D0F2
:10152000C70707D0CF0505D501271762626F42F0C4
:1015300001026267820708D5DA0706D0276802220F
:101540003A62626F42F004026267420708D5DA0726
:1015500006D0236804221A62626F42F002026267B8
:1015600002070AD501F02002324306D02368082280
:101570001A62626F42F008026267626F002A32D01C
:10158000800605D5880603D5216E09B12046884717
:10159000606F000703D420688068400625D5204688
:1015A00000F028FF20688168490619D5816821F07C
:1015B00040018160E06E98B120498163E06EFFF7E1
:1015C00089F900280FD0E06E816B06E0860611D500
:1015D0008E060FD5216E1EE02046BDE8F04108477B
:1015E0002046FFF78AFFBDE8F0812046FFF785FF20
:1015F0006567F8E7C60209D55B0207D54FF480108E
:1016000010622046BDE8F041FFF776BF030605D51E
:101610000B0603D5616E0029DED1E4E74006E2D572
:101620004806E0D51168204621F0400111602021D4
:1016300084F87110656600F0E4F8D4E7E12300084F
:1016400010B5040003D094F8710010B107E0012038
:1016500010BD002084F87000204600F027F82420F8
:1016600084F871002068016821F0010101602046C2
:1016700000F0D0FE0128EBD0606A10B1204600F0E7
:101680001DFE2068416821F4904141602068816816
:1016900021F02A0181602068016841F001010160A8
:1016A0002046BDE8104000F06DBE000010B5006897
:1016B000164986B0884227D11548C16C41F0010116
:1016C000C164C16C01F001010591016E41F48041DA
:1016D0000166006E012100F4804005904FF4007017
:1016E00000900220CDE90101039007204FF09044C3
:1016F000049069462046FFF715F94FF48061009188
:1017000069462046FFF70EF906B010BD00380140CB
:10171000001002402DE9F84F044690F872009846F8
:1017200016460D46202867D1FDB1F6B194F8700039
:10173000012861D0012084F870004FF00009C4F83E
:101740007490222084F872005434FFF7D9F9A680EF
:101750008246E68054F84C0C4FF48057FF21543CED
:10176000B84208D1206918B10DE0012000F046B858
:1017700040F2FF100DE07F2218B1B0F1805F05D07C
:1017800009E0206950B9A4F85C1004E0206928B190
:101790003F20A4F85C00B4F85C601CE0A4F85C2076
:1017A000F9E75346002220212046CDF8008000F0C2
:1017B0008FFF08B10320D9E7A068B84201D12069A2
:1017C000A0B12068808C304005F8010BB4F85A00B5
:1017D000401EA4F85A00B4F85A000028E1D1202095
:1017E00084F8720084F870900020BFE72068808C35
:1017F000304025F8020BE9E70220B7E718BCBDE846
:10180000E08F7047FEE72DE9F04107461C4615467C
:101810000E462A2000F00CFB380A00F017FBF8B245
:1018200000F014FB280A00F011FBE8B200F00EFBF8
:101830002B2000F0FDFA300A00F008FBF0B200F0B7
:1018400005FB200A00F002FBE0B200F0FFFABDE861
:10185000F0412C2000F0ECBA70B5050AC4B2EF23B9
:1018600000211A460846FFF7CEFF0F4900204FF42B
:10187000107201F8105001EB4003401C80B25C7004
:101880009042F6D3012210210848FFF734F90024D2
:101890004FF490652946044800F062F9641CA4B234
:1018A000642CF7D370BD0000D00200200004004873
:1018B0002DE9FE4F0025171A2C462E4699421ED1BF
:1018C000FFF7A1FF314932480A88110AD2B205E078
:1018D00000F8161000EB4603761C5A70B742F7D892
:1018E000012210212B48FFF706F94FF6FF7000EA9E
:1018F000470103B0264800F04FB800F031B95A1A3A
:10190000834690468A464FF0FF30002F02DD4FF0AD
:10191000010102E003D14FF00001019102E0C7F1A3
:1019200000070190B8F1000F02DD4FF0010002E066
:1019300003D14FF00000009002E0C2F100080090D7
:101940004046474501DD3E4600E00646701C4FF02C
:101950000009029015E01FFA8AF11FFA8BF000F0DF
:10196000A9F83D444444B54202DD0199AD1B8B44C6
:10197000B44202DD0099A41B8A4409F101001FFA58
:1019800080F902998945E6DD00F00BB814000020CB
:10199000D00200200004004830BCBDE8C04FFFF773
:1019A000ACBF1EBCBDE8E08F2DE9F0411C461546DA
:1019B0000E4607460B46FFF77BFF3A462346314665
:1019C0001046FFF775FF23462A4619463846FFF7AB
:1019D0006FFF2A4623463146BDE8F0411046FFF727
:1019E00067BF2DE9FC5F80460024154603200F46A3
:1019F000A0EB450657E0A7EB0409A8EB050A1FFA80
:101A000089F11FFA8AF000F055F808EB0500019003
:101A10001FFA89F180B200F04DF8781981B2A8EB75
:101A2000040B00901FFA8BF000F044F81FFA89F1C4
:101A30001FFA8AF000F03EF8A7EB05091FFA89F1BA
:101A40001FFA8BF000F036F8019807EB040B1FFA31
:101A50008BF180B200F02EF81FFA89F108EB04092F
:101A60001FFA89F000F026F8009881B21FFA89F079
:101A700000F020F81FFA8BF11FFA8AF000F01AF834
:101A8000641C002E03DA06EB8406B61D04E0601B1E
:101A900006EB80066D1E0A36781981B208EB040049
:101AA00080B200F007F8AC42A5DD00F000B83CBC05
:101AB000BDE8C09F10B50B460246FFF7A4FE0348E1
:101AC0000088BDE8104000F0CFB9000014000020ED
:101AD0002DE9F047151A5F1A6D1C7F1C7D43002409
:101AE0006D004FF49068089E454502D9A5F59064B5
:101AF0004546FFF788FE370ADFF84C90DFF84CA028
:101B0000F6B20020494606E001F8107001EB4002F1
:101B1000401C567080B2B0EB550FF5D30122102156
:101B20005046FEF7E8FFA9B2074800F019F8002C6C
:101B300007D0444502D9A4F59064E2E72546002485
:101B4000DFE7BDE8F0870000D00200200004004875
:101B50000346012000E05843491EC9B2FBD270473A
:101B600000F0E8B92DE9F05F203AD5B21C46F0222A
:101B7000A2EB5402824256D3C4F1F0028A4252DBF5
:101B80000A19521E93B200EB5402521E92B2FFF792
:101B90003AFE3F4F102C15D0202C13D00C2C44D0E3
:101BA000182C40D13B4905EB45004FF0300A00248A
:101BB00001EB0019B84619F80460E00752D0042779
:101BC00000255EE0600700D0012000EBD400610832
:101BD00010FB01F000F0FF0B2F48002600EB051A68
:101BE00000F5BE5000EBC519B8461AE0102C09D01C
:101BF000202C18D119F806500027280605D5B8F86A
:101C0000000004E01AF80650F6E7B8F8020000F009
:101C10002BF968067F1C050EFFB2082FEDD3761C4A
:101C2000F6B25E45E2D300F03BB81C4805EB450137
:101C30004FF00C09002600EB8108002418F806502C
:101C4000280601D5388800E0788800F00DF968068C
:101C5000641C050EE4B2062CF2D3761CF6B24E4597
:101C6000EBD3E0E70827ABE7300602D5B8F8000071
:101C700001E0B8F8020000F0F7F87006060E6D1CDF
:101C8000EDB2BD42F0D3641CE4B2544593D3CAE72D
:101C90001400002060420008703C0008FC37000877
:101CA00030BCBDE8C09F2DE9F05F0027DDF828A01B
:101CB0001D4691468B4680463C464FEA5A0623E035
:101CC000281B401EC1B20A20FFF742FFB9FBF0F00B
:101CD0000A21B0FBF1F201FB120027B9691E8C4208
:101CE00001DA38B101273030C2B206FB048080B27D
:101CF000534604E006FB048080B253462022594636
:101D0000FFF730FF641CE4B2AC42D9D300F000B856
:101D100030BCBDE8C09F2DE9F047044600F0FF0845
:101D200010190D46DDE908761FFA80FA58191FFAD6
:101D300080F90FE0544502D3E819444685B24D4579
:101D40000DD23B4629462046FFF70CFF04EB570017
:101D500084B2761C3278A2F120005E28EAD9BDE870
:101D6000F08700002DE9F04115464419069F1E46F4
:101D70008446F02C18D88819F02815D8401E83B254
:101D8000641EA2B26046FFF73EFD01221021074803
:101D9000FEF7B1FE75434FF6FF7000EA4501384685
:101DA000BDE8F041FFF7DCBEBDE8F081000400486B
:101DB0002DE9FF5F4FF00008DDE90EBA1E4691469F
:101DC000074644464FEA5B0529E0301B401EC1B27E
:101DD0000A20FFF7BDFEB9FBF0F00A21B0FBF1F2DB
:101DE00001FB1200B8F1000F05D1711E8C4202DA1E
:101DF00040B14FF001083030C2B205FB047080B230
:101E00005B4607E005FB0470BAF1000F80B25B4649
:101E100009D030220199FFF7A5FE641CE4B2B44258
:101E2000D3D300F002B82022F4E73FBCBDE8C09F46
:101E300001B5002210210448FEF75DFE012168462D
:101E4000FFF78EFE08BD00000004004801B5012226
:101E500010210448FEF74FFE01216846FFF780FE7F
:101E600008BD00000004004808B500210091010AE7
:101E70008DF800108DF80100012210210348FEF7B3
:101E80003AFE02216846FFF76BFE08BD00040048D9
:101E9000FEE770470907090E002806DA00F00F0078
:101EA00000F1E02080F8141D704700F1E02080F878
:101EB0000014704770470000F8B51C4E054600241A
:101EC000B06DC00002D5FEF7C3FE0DE0B06D40F06E
:101ED0008050B065B06D00F080500090FEF7B8FE05
:101EE000B16D21F08051B165B0F5007F04D0802D37
:101EF00007D94FF003040AE0802D08D9A02D01D89E
:101F000004E001D1022402E0702D00D10124084830
:101F1000016821F0070121430160006800F007001B
:101F2000A04201D00120F8BD0020F8BD0010024001
:101F3000002002400A4601464FF47A730148FFF739
:101F4000C3B9000050070020F8B515460E460B46F1
:101F50000092044600224FF4C05100F019F888B9ED
:101F60003346002280212046009500F05CF848B9F5
:101F7000334600224FF4C0612046009500F008F877
:101F8000002804D0206E40F0200020660320F8BD19
:101F90002DE9F0471D4616460F4604464FF4C0692A
:101FA000DDF820800CE04F4501D106B9007B681CAC
:101FB00006D0FEF7A5FDA0EB0800A84208D23DB16F
:101FC000206881683940B142EDD10020BDE8F0873A
:101FD0002068416821F0E00141606068B0F5827FCF
:101FE0000BD1A068B0F5004F02D0B0F5806F04D1DE
:101FF0002068016821F040010160A06AB0F5005F2F
:1020000009D12068016821F400510160206801684D
:1020100041F400510160012084F85D00002084F843
:102020005C000320D2E72DE9F0411D4617460E461D
:102030000446DDF8188008E0681C06D0FEF760FD55
:10204000A0EB0800A8420BD255B12068806836EAA0
:10205000000030D00020B842EED10020BDE8F08171
:102060002068416821F0E00141606068B0F5827F3E
:102070000BD1A068B0F5004F02D0B0F5806F04D14D
:102080002068016821F040010160A06AB0F5005F9E
:1020900009D12068016821F40051016020680168BD
:1020A00041F400510160012084F85D00002084F8B3
:1020B0005C000320D2E70120CDE77047FEF726BD84
:1020C0001A4810B5816D98B041F080518165806DDE
:1020D000012100F0805016900804CDE90010022084
:1020E00003240A90CDE90B4114210D910721CDE97C
:1020F0000E1010906846FEF7BDFE00B1FEE70F20FF
:10210000CDE911040020139014901590042111A81A
:10211000FEF7A6FD00B1FEE74FF40070FEF764FD88
:10212000002800D0FEE718B010BD000000100240EB
:102130000D48016841F4700101600C48016841F0EC
:1021400001010160002181600268094B1A400260B0
:102150008214C260026822F4802202608161024916
:10216000C00380390860704788ED00E0001002402D
:10217000FFFFF6EA10B50A4C2068C068C043C007EC
:1021800009D1084800698047216800204862216819
:102190006420C862E06021686FF00100086110BD32
:1021A000B40700209C0000202DE9F0470268264C6F
:1021B000264D274E274F284B4FF0804AA04209D08A
:1021C000504507D0A84205D0B04203D0B84201D054
:1021D000984204D122F0700C4A6842EA0C02DFF8FF
:1021E0007CC0DFF87C80DFF87C90A0420FD05045A7
:1021F0000DD0A8420BD0B04209D0B84207D09842C7
:1022000005D0604503D0404501D0484503D122F4B4
:102210004075CA682A434D6922F080022A43026051
:102220008A68C2620A688262A04207D0984205D0DA
:10223000604503D0404501D0484501D1096901639B
:1022400001214161BDE8F087002C014000040040FD
:1022500000080040000C00400034014000400140F4
:10226000004401400048014038B5114A04460D467B
:10227000906D40F004009065906D032200F0040022
:10228000009011461E20FEF77DFC1E20FEF76FFC1D
:10229000094A00210748C2E902141161C2E9000598
:1022A0001046FFF7F5F8BDE838400348FFF70CB9D2
:1022B0000010024000080040B407002090F82410ED
:1022C000C90706D001684A68836A22F400321A43BB
:1022D0004A6090F82410890706D501684A68C36AE5
:1022E00022F480321A434A6090F82410490706D538
:1022F00001684A68036B22F480221A434A6090F80E
:102300002410090706D501684A68436B22F400428D
:102310001A434A6090F82410C90606D501688A68F5
:10232000836B22F480521A438A6090F82410890645
:1023300006D501688A68C36B22F400521A438A608A
:1023400090F82410490611D501684A68036C22F4FC
:1023500080121A434A60016CB1F5801F06D10168F2
:102360004A68436C22F4C0021A434A6090F8241071
:10237000090606D501684A68806C22F400220243EF
:102380004A607047F8B5002504464567FEF7B8FB7C
:102390000746206800686FF07E46000708D53B4678
:1023A00000224FF400112046009600F091F960B928
:1023B0002068006840070AD53B4600224FF48001A0
:1023C0002046009600F084F908B10320F8BD2020D3
:1023D00084F8710084F8720084F870500020F8BD11
:1023E00010B5806A0021A0F85A10A0F85210FFF72B
:1023F00084F810BD01680A6822F490720A600168CE
:102400008A6822F001028A60202180F8721000217F
:10241000016670472DE9F047044600682369A1680A
:10242000D4F81CC0194363691025002643EA0C0345
:1024300019439B4A03683746DFF868C203EA0C0376
:102440000B43036020684168E36821F4405119435D
:1024500041602168A069914201D0236A18438B68CA
:1024600023F4306303438B608F4B21688F4899427C
:102470000DD1D0F8880010F0030006D001285AD002
:10248000022856D0032859D157E0012556E0884B41
:1024900099420BD1D0F8880010F00C0047D00428E6
:1024A00049D0082845D00C2848D146E0814B9942B4
:1024B0000BD1D0F8880010F0300038D010283AD076
:1024C000202836D0302839D137E07B4B99420BD1C8
:1024D000D0F8880010F0C00029D040282BD08028E8
:1024E00027D0C0282AD128E0744B99420ED1D0F8C9
:1024F000880010F440701AD0B0F5807F1BD0B0F582
:10250000007F16D0B0F5407F18D116E0914215D16A
:10251000D0F8880010F4406009D0B0F5806F0AD080
:10252000B0F5006F05D0B0F5406F07D105E000258C
:1025300004E0022502E0042500E00825604B4FF08E
:1025400000084FF40040914244D135B1022D07D02C
:10255000042D07D0082D10D107E0FEF713FC03E08F
:10256000184602E0FEF732FC98B3626802EB4201C3
:10257000814202D8B0EB023F01D9012789E065B161
:10258000022D0DD0042D13D0082D1BD001274D494D
:10259000A6F5407088427AD9EFE7FEF7F3FB09E031
:1025A0005008494B11E00023FDF78FFE0646EEE789
:1025B000FEF70CFC6268010E05025008281841EB7A
:1025C0000801F0E750084FF40003C01848F100017B
:1025D000E9E75EE0E1694FF6EF7981422ED1092DFE
:1025E0001DD2DFE805F00508121C151C1C1C180084
:1025F000FEF7C8FB01E0FEF7D7FB4100606801EB86
:102600005001B1FBF0F086B20AE030496068F6E7AD
:10261000FEF7DCFBF1E74FF480316068EFE701275C
:10262000A6F110004845A8D84FF6F07106EA01005F
:10263000C6F3420108432168C8602AE0092D21D26F
:10264000DFE805F005081220162020201A00FEF70A
:1026500099FB01E0FEF7A8FB0146606801EB500121
:10266000B1FBF0F086B20EE0606803EB5001F7E7D3
:10267000FEF7ACFBF0E70AE0616800EB5100B0FB4D
:10268000F1F0EFE70127A6F11000484584D8206853
:10269000C660C4F860803846C4F86480BDE8F0873E
:1026A00000800040F369FFEF003801400010024055
:1026B0000044004000480040004C004000500040F2
:1026C0000024F400FFFC0F00000024F40048E8019F
:1026D0002DE9F0411E46174688460446069D1CE03B
:1026E000681C1AD025B1FEF70BFA801BA84214D93A
:1026F0002068016821F4D07101602068816821F0B0
:1027000001018160202084F8710084F872000020AB
:1027100084F870000320BDE8F0812068C16938EAC0
:10272000010004D00020B842DAD00020F3E70120F5
:10273000F9E7000038B518480068C069C043800652
:1027400022D44FF47A73012269461348FEF7E2FF60
:10275000124A1088010417D441049DF800104FF06C
:10276000000304D50A290ED140F4004012E00D29DF
:102770000ED0C0F30D04084D401CC83D80B2295551
:102780001080C72800D913800348FEF7B7FE38BD74
:1027900040F480401080F7E7580200200C00002031
:1027A000FEE730380A2801D2012070470020704728
:1027B0007047000010B504460420FEF749FE0148AA
:1027C000046010BD0800002070B5054600244FF4D9
:1027D0007A7603E0304600F005F8641CAC42F9D389
:1027E00070BD000070B54FF0E02500216C69094A0A
:1027F000AB6912685043AA699A42FCD002D2A3EB9B
:10280000020302E0A4EB020633441944134681425A
:10281000F1D370BD0800002004490A685206FCD5B7
:10282000024AC1B20C321180704700001C380140CE
:10283000FEF774F9FFF744FC5020FFF7BBFF4FF49D
:10284000E13000F00BF8FEF721F802491F20088064
:1028500000BFFDE7140000200068704710B50F4C62
:102860000D49C4E900100020A060E0602061A06173
:102870000C2060612046FEF7E3FE2068016841F00D
:10288000200101602520FEF772F90322BDE8104007
:1028900011462520FEF776B9003801405802002085
:1028A00070B594B0064613AB11AA694600F0DCF986
:1028B000002824D18DF840001D4C042514E0206828
:1028C00005EBC10113AB405812AA08A900F0CCF9DE
:1028D000002814D1694608A800F005FC88B19DF8CD
:1028E0004000401C8DF84000207D9DF8401088423B
:1028F000E5D8207D9DF8401088420ED1042014B008
:1029000070BD9DF848009DF84410884201D902200E
:10291000F5E79DF84000A075EBE710A9304600F000
:102920005BFA0028EBD19DF8400060750020E6E7D7
:102930009C0000202DE9F0417E4E9AB0B57D307D9F
:10294000A8427CD90421306801EBC50119AB40587D
:1029500018AA10A900F088F910A977A0FDF72CFD9E
:1029600000240DF1180832E0308B0121A14008420B
:1029700017D0222172A0FDF71FFD204600F094FA27
:10298000811970A02431FDF717FD22216CA0FDF7FD
:1029900013FD204600F088FA3044243048F8240023
:1029A0000BE0204600F080FA3044416A48F82410D9
:1029B000F07D00B364A0FDF7FFFC9DF86000401EB1
:1029C000844202D062A0FDF7F7FC641CE4B29DF8DB
:1029D00060008442C8D35FA0FDF7EEFC00F0AAFAC5
:1029E000707D0B2814D2DFE800F0080D3138404824
:1029F000525E6B78890058A0DDE7306850F83500EA
:102A0000804704E0306850F835100698884707463C
:102A100000F05CFA9DF8640001286ED04FA0FDF72D
:102A2000CBFC96F8EC0000280DD0D6F8F0000A2177
:102A3000B0FBF1F201FB1202B0FBF1F100E002E0A9
:102A400047A0FDF7B9FC1AB0BDE8F081306850F836
:102A50003520DDE906019047D9E7306806AC50F82B
:102A6000353094E807009847D1E7306806AF50F852
:102A7000354097E80F00A047C9E70A9800903068F2
:102A800006AF50F8354097E80F00A047BFE7DDE9F3
:102A90000A01CDE90001306806AF50F8354097E8EB
:102AA0000F00A047B3E70AAB06AF93E807008DE835
:102AB0000700306850F8354097E80F00A047A6E7B8
:102AC0000AAC06AF94E80F008DE80F00306850F8AC
:102AD000354097E80F00A04799E70BAC06AF94E8A4
:102AE0000F0001AC84E80F000A980090306850F89D
:102AF000354097E80F00A04789E711E00CAC06AF1E
:102B000094E80F0002AC84E80F00DDE90A01CDE98A
:102B10000001306850F8354097E80F00A04776E78D
:102B2000F07D394618B116A0FDF746FC79E717A0ED
:102B3000FAE700009C0000200D0A25732800000021
:102B40002563000025730000305825580000000060
:102B50002C00000029000000256C64003B0D0A00D9
:102B600046756E6374696F6E2052756E2054696D80
:102B7000653A25642E2531646D730D0A000000004E
:102B80003D305825583B0D0A000000003D256C756E
:102B90003B0D0A00F0B500252E462F462C46037843
:102BA0002C2B03D0292B04D01BB103E014B9012630
:102BB00000E00CB317B1222B2AD02AE0A3F1300C8D
:102BC000BCF1090F19D92D2B17D02B2B15D0A3F140
:102BD000610CBCF1050F10D9A3F1410CBCF1050F3C
:102BE0000BD9582B09D0782B07D0222B0CD0202BB7
:102BF0001ED02C2B1CD0FF270CE05EB9612B00D31C
:102C0000203B01F8013B13E026B901273C460FE0C9
:102C1000002426B10020087017702846F0BD3CB192
:102C20005C2B02D16D1CEDB2401C037801F8013B16
:102C30006D1CEDB2401CB2E730B5002515700AE0FE
:102C400001F8014B1478401C641CE4B214709C42DF
:102C500001D3012030BD0478202C01D0002CEFD10D
:102C60000D70002030BD00002DE9FF4F002482B020
:102C700089469846A2462746012526462246EB4627
:102C8000029915E0202810D002F07F03052B0CD20A
:102C900002B9802202F07F03042B01D12A280AD135
:102CA000521C0BF80300D2B201E0852A04D0491C63
:102CB00008780028E6D16AB102F07F0200200BF804
:102CC000020041A1584600F00EFA38B1012188F8FF
:102CD000001000224FF00008029B15E0002088F849
:102CE0000000F6E708F1010000F0FF0813F8010FFB
:102CF000202801D02A2807D1184600F081F9282879
:102D000002D02A2800D0C2461878282801D00028EE
:102D1000E8D10299BAF1000F01D05144491C4FF09B
:102D200000084346087888B1282804D0292806D00E
:102D3000222810D011E083B9641CE4B20DE063B91D
:102D400024B1641E14F0FF0402D00DE04FF001081E
:102D5000012F27D02FE04BB100234CB12C280CD0F1
:102D6000202816D0282814D05AB110E00123F4E707
:102D7000202815D009F8010B12E00125521CD2B20F
:102D800007E0052E03D20BF80600761CF6B26D1C88
:102D9000EDB2012C04D1022D02D103257F1CFFB21C
:102DA000491CBFE700200BF8060007A1684600F0A9
:102DB0009AF900B9002704980770002089F80000EC
:102DC00006B0404600F004B8766F69640000000069
:102DD00030BCBDE8C08F00002DE9F04300248946D7
:102DE000304DB5B0214622466B18491CC9B29A76BF
:102DF0000A29F9D302E010F8011F99B101782829B6
:102E0000F9D1461C4FF0010833AA69463046FFF756
:102E1000C1FE06449DF8CC0040B1012824D0FF2813
:102E200036D10BE0012035B0BDE8F0839DF80000FD
:102E300070B334A9684600F0EBF808B10220F2E75D
:102E4000204600F031F8284434994162298B08FA71
:102E500004F081432983042029198876641CE4B294
:102E60000A2C15D90320DEE7684600F051F9471C0B
:102E7000204600F019F841196846243100F03FF966
:102E8000298B08FA04F00143281929838776E5E79E
:102E90003078292801D00028B6D189F800400020D8
:102EA000C1E700009C000020024610B5002001464A
:102EB000054B05E05C18491CA47EC9B22044C0B291
:102EC0009142F7D310BD00009C0000200948006823
:102ED0000169C943CA070849D1F8F02004D14FF667
:102EE000FF731A44C1F8F020406A1044C1F8F000A2
:102EF00070470000B40700209C00002000EBC001D8
:102F000001EB00104FF0FF3101EB800010B581B2F2
:102F10004FF47A70FFF7A8F901490120C87510BD78
:102F20009C0000200346012000E05843491EC9B21E
:102F3000FBD2704707486FF0010102681161026817
:102F4000090CD162C1600068002141620248C0F8EA
:102F5000F0107047B40700209C0000202DE9F041DC
:102F6000164E3088010426D51549C0B2154F0025EC
:102F70000D54B9681248884704000FD0104800F07B
:102F8000D1F8012801D0040014D0012C09D0022C62
:102F900009D0032C09D0042C0CD108E0F868804734
:102FA00008E009A004E00BA002E00DA000E00FA0E3
:102FB000FDF702FA3580BDE8F08100000C0000202A
:102FC000900100209C000020BAAFCAFDB4EDCEF302
:102FD000210D0A00B2CECAFDB4EDCEF3210D0A00D8
:102FE000B2CECAFDCCABB6E0210D0A00CEB4D5D22C
:102FF000B5BDC6A5C5E4B5C4BAAFCAFD210D0A006A
:1030000010F8011F202901D10028F9D1C8B270475A
:103010002DE9F0430E4600244FF00A0825460146EC
:1030200034600A78A2F13003092B14D903782D2BD0
:1030300001D02B2B00D174B1A2F14103052B0AD989
:10304000582A05D012F0FF0F17D00120BDE8F083F9
:10305000012C02D0F9E7412A01D34FF01008027881
:103060002D2A04D02B2A04D0641CE4B203E00225EC
:1030700000E00125401C491CD3E70746B8F1100FBA
:1030800001D084B112E0032C01D20220DEE73878AF
:10309000302802D17878582801D00320D6E7A41E22
:1030A000E4B2BF1C01E00420D0E70CB1641EE4B21E
:1030B000387801463038092801D8814601E0A1F16D
:1030C000370921464046FFF72DFF326809FB0020F3
:1030D000306017F8011F0029E7D1022D01D14042CD
:1030E00030600020B2E702780B789A4201D00120CC
:1030F000704712B1401C491CF5E700207047027868
:103100000A700278002A02D0401C491CF7E7704779
:10311000002102781AB1491CC9B2401CF9E70846DF
:1031200070470000F0B58DB004461E2308AA69461A
:10313000FFF782FD0990002872D19DF82000271822
:1031400000253E4C8DF820509DF8200054F82010AA
:103150006846FFF7C8FF38B19DF82000401CC0B298
:103160008DF820000728EFD39DF820000426344C6A
:10317000072855D2DFE800F00404395A605F5E008A
:1031800030A0FDF719F930A0FDF716F93EA0FDF7C4
:1031900013F94DA0FDF710F95BA0FDF70DF96AA03A
:1031A000FDF70AF978A0FDF707F986A0FDF704F905
:1031B0008BA0FDF701F993A0FDF7FEF897A0FDF7AE
:1031C000FBF89CA0FDF7F8F8A1A0FDF7F5F8A7A083
:1031D000FDF7F2F8B3A0FDF7EFF8C0A0FDF7ECF8AB
:1031E000CBA0FDF7E9F8D7A01BE016A0FDF7E4F8A7
:1031F000E4A0FDF7E1F88DF820500BE0216806EB24
:10320000C0000958EFA0FDF7D7F89DF82000401C3A
:103210008DF82000217D9DF820008142EED856E2F5
:1032200057E2FDF7C9F800200DB0F0BD05A0FDF78D
:10323000C3F8CBE12CE20CE2EBE100001800002027
:103240009C0000200D0A00002D2D2D2D2D2D2D2D43
:103250002D2D2D2D2D2D2D2D2D2D2D2D2D2D2D2D9E
:1032600055534D4152542056332E332D2D2D2D2D97
:103270002D2D2D2D2D2D2D2D2D2D2D2D2D2D2D2D7E
:103280002D2D2D200D0A00002020202055534D41CA
:103290005254CAC7D3C9414C49454E54454BBFAAA5
:1032A000B7A2B5C4D2BBB8F6C1E9C7C9B5C4B4AEFC
:1032B000BFDAB5F7CAD4BBA5BDBBD7E9BCFE2CCDE0
:1032C000A8B9FD200D0A0000CBFC2CC4E3BFC9D275
:1032D000D4CDA8B9FDB4AEBFDAD6FACAD6B5F7D305
:1032E000C3B3CCD0F2C0EFC3E6B5C4C8CEBACEBA31
:1032F000AFCAFD2CB2A2D6B4D0D02ED2F2B4CB2C11
:10330000C4E3BFC90D0A0000D2D4CBE6D2E2B8FCB8
:10331000B8C4BAAFCAFDB5C4CAE4C8EBB2CECAFDE0
:1033200028D6A7B3D6CAFDD7D62831302F3136BD1F
:10333000F8D6C62CD6A7B3D6B8BACAFD29A1A2D74B
:10334000D6B7FBB4AE0D0A00A1A2BAAFCAFDC8EB56
:10335000BFDAB5D8D6B7B5C8D7F7CEAAB2CECAFDB0
:10336000292CB5A5B8F6BAAFCAFDD7EEB6E0D6A7F8
:10337000B3D63130B8F6CAE4C8EBB2CECAFD2CB22F
:10338000A2D6A7B3D60D0A00BAAFCAFDB7B5BBD84F
:10339000D6B5CFD4CABE2ED6A7B3D6B2CECAFDCF2D
:1033A000D4CABEBDF8D6C6C9E8D6C3B9A6C4DC2CFB
:1033B000D6A7B3D6BDF8D6C6D7AABBBBB9A6C4DCC0
:1033C0002E0D0A00BCBCCAF5D6A7B3D63A777777DC
:1033D0002E6F70656E6564762E636F6D0D0A00004A
:1033E00055534D415254D3D037B8F6CFB5CDB3C3B2
:1033F000FCC1EE28B1D8D0EBD0A1D0B4293A0D0A47
:10340000000000003F3A202020202020BBF1C8A16E
:10341000B0EFD6FAD0C5CFA20D0A000068656C7077
:103420003A202020BBF1C8A1B0EFD6FAD0C5CFA278
:103430000D0A00006C6973743A202020BFC9D3C301
:10344000B5C4BAAFCAFDC1D0B1ED0D0A0A00000083
:1034500069643A2020202020BFC9D3C3BAAFCAFD77
:10346000B5C44944C1D0B1ED0D0A0A006865783A87
:1034700020202020B2CECAFD3136BDF8D6C6CFD42A
:10348000CABE2CBAF3B8FABFD5B8F12BCAFDD7D64D
:10349000BCB4D6B4D0D0BDF8D6C6D7AABBBB0D0A33
:1034A0000A0000006465633A20202020B2CECAFDE5
:1034B0003130BDF8D6C6CFD4CABE2CBAF3B8FABFE5
:1034C000D5B8F12BCAFDD7D6BCB4D6B4D0D0BDF890
:1034D000D6C6D7AABBBB0D0A0A00000072756E746F
:1034E000696D653A312CBFAAC6F4BAAFCAFDD4CB18
:1034F000D0D0BCC6CAB13B302CB9D8B1D5BAAFCA4E
:10350000FDD4CBD0D0BCC6CAB13B0D0A0A00000026
:10351000C7EBB0B4D5D5B3CCD0F2B1E0D0B4B8F1EC
:10352000CABDCAE4C8EBBAAFCAFDC3FBBCB0B2CED9
:10353000CAFDB2A2D2D4BBD8B3B5BCFCBDE1CAF8B7
:103540002E0D0A002D2D2D2D2D2D2D2D2D2D2D2D1A
:103550002D2D2D2D2D2D2D2D2D2D2D2D2D2D414C68
:1035600049454E54454B2D2D2D2D2D2D2D2D2D2DD9
:103570002D2D2D2D2D2D2D2D2D2D2D2D2D2D2D2088
:103580000D0A00002D2D2D2D2D2D2D2D2D2D2D2D08
:103590002D2D2D2D2D2D2D2D2D2D2D2D2DBAAFCAAF
:1035A000FDC7E5B5A52D2D2D2D2D2D2D2D2D2D2D29
:1035B0002D2D2D2D2D2D2D2D2D2D2D2D2D2D2D2D3B
:1035C000200D0A0025730D0A0000000042A0FCF740
:1035D000F3FE8DF8205016E0216806EBC0000BAB1F
:1035E00008580AAA6946FFF73FFB9DF8201020689B
:1035F00050F83120694648A0FCF7DEFE9DF8200017
:10360000401C8DF82000217D9DF820008142E3D8E8
:103610005DE0AFF2D030FCF7CFFE08AA694638462D
:10362000FFF7B8FA9DF82000002843D109A96846A1
:10363000FFF7EEFC8DF8200010B104283AD102E02B
:103640003AA009991CE03CA0FCF7B6FE0120E07509
:103650003DE038A0FCF7B0FE08AA69463846FFF7FF
:1036600099FA9DF8200028BB09A96846FFF7D0FC0D
:103670008DF8200010B104281CD104E033A0099972
:10368000FCF79AFE23E034A0FCF796FEE5751EE0F9
:1036900028A0FCF791FE08AA69463846FFF77AFA97
:1036A0009DF8200030B909A96846FFF7B1FC8DF8F4
:1036B000200008B10220B7E5099810F0FF0084F857
:1036C000EC0001D029A000E02FA0FCF775FE19A0A6
:1036D000A7E50120A8E500002D2D2D2D2D2D2D2D48
:1036E0002D2D2D2D2D2D2D2D2D2D2D2D2D2D2D2D0A
:1036F0002DBAAFCAFD204944202D2D2D2D2D2D2D65
:103700002D2D2D2D2D2D2D2D2D2D2D2D2D2D2D2DE9
:103710002D2D2D2D200D0A0025732069642069733D
:103720003A0D0A3058253038580D0A004845583AA5
:10373000305825580D0A00003136BDF8D6C6B2CE35
:10374000CAFDCFD4CABE210D0A0000004445433A49
:10375000256C750D0A0000003130BDF8D6C6B2CE1A
:10376000CAFDCFD4CABE210D0A00000052756E20DA
:1037700054696D652043616C63756C6174696F6E2B
:10378000204F4E0D0A00000052756E2054696D6581
:103790002043616C63756C6174696F6E204F46469F
:1037A0000D0A0000016070474FF04070E1EE100A12
:1037B0007047000000000000000000000102030448
:1037C00006070809A0860100400D0300801A0600C4
:1037D00000350C0040420F0080841E0000093D00AF
:1037E00000127A000024F40000366E010048E8015F
:1037F000006CDC0200000000010203040000000075
:103800000000000000000000000020202020200018
:1038100000200000282850000000000000000000E8
:1038200000005050F85050F850500000002070A890
:10383000A0603028A8702000000048A8B0A8743408
:103840005448000000002050506CA8A89468000064
:103850004040800000000000000000000810102020
:1038600020202020101008004020201010101010E0
:103870002020400000000020A87070A82000000058
:1038800000000010107C101000000000000000007C
:1038900000000000404080000000000000FC00002C
:1038A00000000000000000000000000000400000D8
:1038B000000408081010202040408000000070889C
:1038C00088888888887000000000206020202020E0
:1038D00020700000000070888810204080F80000F0
:1038E0000000708808300808887000000000103060
:1038F000305090F8103800000000F88080F0880800
:10390000887000000000304880B0C88888700000CF
:10391000000078081010202020200000000070888F
:10392000887088888870000000007088889868080F
:103930009060000000000000200000000020000057
:1039400000000000002000000020200000000810FF
:10395000204040201008000000000000FC00FC0097
:103960000000000000004020100808102040000067
:1039700000007088881020200020000000003844DB
:1039800094B4B4B84438000000002020305050787F
:1039900048CC00000000F0484870484848F000005B
:1039A0000000788880808080887000000000F048E7
:1039B0004848484848F000000000F848507050401F
:1039C00048F800000000F8485070504040E0000007
:1039D0000000384880809C88483000000000CC48B7
:1039E0004878484848CC00000000F82020202020DB
:1039F00020F8000000007C1010101010101090E053
:103A00000000EC485060504848EC00000000E040E6
:103A10004040404044FC00000000DCD8D8D8A8A8B2
:103A2000A8AC00000000DC486868585848E800006E
:103A30000000708888888888887000000000F0483E
:103A40004870404040E0000000007088888888E8A6
:103A5000987018000000F0484870504848EC00008A
:103A6000000078888060100888F000000000F8A846
:103A700020202020207000000000CC484848484802
:103A8000483000000000CC48485050302020000052
:103A90000000A8A8A8A87050505000000000D850FE
:103AA0005020205050D800000000D8505050202006
:103AB000207000000000F8901020204048F800001E
:103AC00038202020202020202020380000404020C6
:103AD0002020101010080800701010101010101086
:103AE00010107000205000000000000000000000D6
:103AF0000000000000000000000000FC402000006A
:103B00000000000000000000000000000030483805
:103B1000483C000000C040404070484848700000E9
:103B20000000000000384840483000000018080835
:103B300008384848483C0000000000000030487841
:103B40004038000000182420207820202078000031
:103B500000000000003C48304038443800C040407D
:103B60004070484848EC0000002020000060202001
:103B7000207000000010100000301010101010E035
:103B800000C040404058506050C8000000E0202075
:103B90002020202020F800000000000000F0A8A84D
:103BA000A8A800000000000000F0484848EC000011
:103BB00000000000003048484830000000000000CD
:103BC00000F04848487040E00000000000384848D5
:103BD0004838081C0000000000D8604040E00000A9
:103BE000000000000078403008780000000000204D
:103BF00020782020203800000000000000D848482D
:103C0000483C00000000000000D850502020000078
:103C10000000000000A8A870505000000000000044
:103C200000D8502050D800000000000000CC4848C8
:103C3000301020C000000000007810202078000024
:103C40001810101010301010101018001010101054
:103C500010101010101010106020202020102020B4
:103C600020206000689000000000000000000000BC
:103C70000000000000000000000000000000000044
:103C800000000010101010101010000010100000A4
:103C90000012242448000000000000000000000082
:103CA0000000001212127E2424247E24242400000A
:103CB0000000083C4A4A48380C0A0A4A4A3C0808AC
:103CC00000000044A4A8A8B0541A2A2A4A440000BC
:103CD00000000030484848506EA49498897600004F
:103CE00000602020400000000000000000000000F4
:103CF0000002040808101010101010080804020038
:103D00000040201010080808080808101020400083
:103D1000000000001010D63838D610100000000047
:103D200000000000000808087F08080800000000E4
:103D300000000000000000000000000060202040A3
:103D400000000000000000007E00000000000000F5
:103D500000000000000000000000000060600000A3
:103D60000000020404040808101010202040400045
:103D700000000018244242424242424224180000FD
:103D8000000000083808080808080808083E000075
:103D90000000003C4242420204081020427E000023
:103DA0000000003C4242020418040242423C00006F
:103DB000000000040C0C142424447F04041F0000A1
:103DC0000000007E40404078440202424438000037
:103DD000000000182440405C62424242221C000065
:103DE0000000007E420404080810101010100000AB
:103DF0000000003C4242422418244242423C00005F
:103E00000000003844424242463A020224180000B0
:103E10000000000000001818000000001818000042
:103E20000000000000000010000000000010101052
:103E300000000002040810204020100804020000C6
:103E40000000000000007E00007E00000000000076
:103E50000000004020100804020408102040000068
:103E60000000003C424262040808080018180000E4
:103E700000000038445AAAAAAAAAAA5C423C000040
:103E80000000001010182828243C444242E700009B
:103E9000000000F8444444784442424244F80000A0
:103EA0000000003E42428080808080424438000012
:103EB000000000F8444242424242424244F80000BC
:103EC000000000FC424848784848404242FC00005C
:103ED000000000FC424848784848404040E000006C
:103EE0000000003C44448080808E844444380000BC
:103EF000000000E7424242427E42424242E7000066
:103F00000000007C1010101010101010107C000029
:103F10000000003E0808080808080808080888F09B
:103F2000000000EE444850705048484444EE000001
:103F3000000000E0404040404040404042FE000061
:103F4000000000EE6C6C6C6C6C54545454D6000041
:103F5000000000C7626252524A4A4A4646E20000E6
:103F600000000038448282828282828244380000CB
:103F7000000000FC424242427C40404040E00000E1
:103F80000000003844828282828282B24C3806006D
:103F9000000000FC4242427C4848444442E30000A6
:103FA0000000003E4242402018040242427C0000D1
:103FB000000000FE921010101010101010380000B9
:103FC000000000E74242424242424242423C00007C
:103FD000000000E742424424242828181010000062
:103FE000000000D654545454546C2828282800004B
:103FF000000000E7422424181818242442E7000097
:10400000000000EE44442828101010101038000062
:104010000000007E840408081020204242FC0000BA
:10402000001E1010101010101010101010101E0094
:104030000000402020201010100808040404020290
:104040000078080808080808080808080808780020
:104050000018240000000000000000000000000024
:10406000000000000000000000000000000000FF51
:1040700000601000000000000000000000000000D0
:104080000000000000000038440C34444C360000AE
:1040900000000000C04040586442424264580000A2
:1040A000000000000000001C22404040221C0000D4
:1040B000000000000602023E42424242463B00002F
:1040C000000000000000003C42427E40423C0000F4
:1040D000000000000C12107C10101010107C00006A
:1040E000000000000000003E444438403C42423C96
:1040F00000000000C040405C6242424242E70000D3
:10410000000000303000007010101010107C000013
:104110000000000C0C00001C040404040404447897
:1041200000000000C040404E4850704844EE00007F
:10413000000000107010101010101010107C000003
:1041400000000000000000FE4949494949ED000017
:1041500000000000000000DC6242424242E7000032
:10416000000000000000003C42424242423C00008D
:1041700000000000000000D864424242645840E061
:10418000000000000000001A26424242261A0207E0
:1041900000000000000000EE3220202020F8000087
:1041A000000000000000003E42403C02427C000053
:1041B000000000000010107C10101010120C000005
:1041C00000000000000000C642424242463B0000A0
:1041D00000000000000000EE4444282810100000F9
:1041E00000000000000000DB894A5A54242400002B
:1041F000000000000000007624181818246E00004B
:1042000000000000000000E742242418181010608D
:10421000000000000000007E44081010227E000014
:104220000003040404040404080404040404030054
:1042300008080808080808080808080808080808FE
:1042400000C0202020202020102020202020C0007E
:10425000205A0400000000000000000000000000E0
:10426000000000000000000000000000000000004E
:10427000000000000000000000000000000000003E
:10428000000000000000000000000000000000002E
:104290000000000000000000060006000600060006
:1042A00006000600060002000400040004000000EE
:1042B00000000000060006000600000000000000EC
:1042C00000000000066006600CC01980110022008A
:1042D00000000000000000000000000000000000DE
:1042E00000000000000000000000000000000000CE
:1042F000000000000000000008400840084008409E
:104300007FE07FE0104010801080108010807FE000
:104310007FE02080208020802080000000000000BE
:10432000000000000000020002000F801AC032C02E
:1043300033C032001A000E0007000380038002C061
:1043400032C03AC032C012800F00020002000000EA
:10435000000000000000000070805080890089008B
:1043600089008A008A005C0075C005400A200A2086
:10437000122012201220214021C000000000000065
:1043800000000000000000001C003600360036006F
:1043900036003600340019E038805880CC80CC805C
:1043A000C680C700C31063903CE00000000000001E
:1043B0000000000030003800080008001000200055
:1043C00000000000000000000000000000000000ED
:1043D00000000000000000000000000000000000DD
:1043E00000000000002000400080010001000200E9
:1043F000020004000400040004000400040004009F
:1044000002000200010001000080004000200000C6
:104410000000000040002000100008000800040018
:10442000040002000200020002000200020002007A
:1044300004000400080008001000200040000000F4
:104440000000000000000000000000000200030067
:104450000200623072F00B800F807AF0623002004E
:104460000200020000000000000000000000000048
:10447000000000000000000000000000000002003A
:1044800002000200020002007FF0020002000200AF
:104490000200020000000000000000000000000018
:1044A000000000000000000000000000000000000C
:1044B00000000000000000000000000000000000FC
:1044C0000000000030003800080008001000200044
:1044D00000000000000000000000000000000000DC
:1044E00000000000000000007FE00000000000006D
:1044F00000000000000000000000000000000000BC
:1045000000000000000000000000000000000000AB
:10451000000000000000000000000000000000009B
:1045200000000000380038003800000000000000E3
:104530000000000000200060004000C000800080FB
:10454000010001000200020006000400040008004F
:104550000800100010003000200060004000000043
:10456000000000000000000000000F00198030C0B3
:1045700030C060606060606060606060606060600B
:10458000606030C030C019800F00000000000000E3
:104590000000000000000000000002003E000600D5
:1045A00006000600060006000600060006000600DB
:1045B00006000600060006003FC0000000000000E4
:1045C000000000000000000000001F00218040C02B
:1045D00060C060C000C000800180030006000400CD
:1045E00008001040204060407FC000000000000034
:1045F000000000000000000000001E006300618059
:1046000061800180018003000E000180008000C0F5
:1046100000C060C060C061801F000000000000009A
:104620000000000000000000000001800180038005
:1046300005800580098011801180218041807FF0F4
:10464000018001800180018007E00000000000007F
:10465000000000000000000000003FC0200020001B
:104660002000200020002F00318020C000C000C0AA
:1046700060C060C0418021801F0000000000000079
:1046800000000000000000000000078018C030C0DB
:10469000300020006000678068C07060606060600B
:1046A00060602060304018C00F0000000000000073
:1046B000000000000000000000001FE0306020400B
:1046C0002080008000800100010002000200020042
:1046D00006000600060006000600000000000000BC
:1046E000000000000000000000001F8030C060607B
:1046F00060606060304038C00F00138030C0606080
:1047000060606060606030C00F80000000000000EA
:10471000000000000000000000000F00308030C0EA
:10472000604060606060606060E031601E600060FA
:1047300000C000C0308031801E000000000000007A
:104740000000000000000000000000000000000069
:104750000000000007000700070000000000000044
:104760000000000007000700070000000000000034
:104770000000000000000000000000000000000039
:10478000000000000600060000000000000000001D
:104790000000000000000600060002000400040003
:1047A0000000000000000000002000400080010028
:1047B000020004000800100020001000080004009F
:1047C0000200010000800040002000000000000006
:1047D00000000000000000000000000000000000D9
:1047E000000000007FE00000000000007FE000000B
:1047F00000000000000000000000000000000000B9
:10480000000000000000000020001000080004006C
:1048100002000100008000400020004000800100F4
:10482000020004000800100020000000000000004A
:104830000000000000000000000007C018602030E9
:1048400020303030303000E00180020002000200F1
:104850000000000007000700070000000000000043
:104860000000000000000000070018C0304033A026
:1048700026A066A065A06D206D206D206D206D4086
:1048800027803020304018C00F00000000000000DA
:1048900000000000000000000000060006000A0002
:1048A0000B00090009001100118010801F8020C03A
:1048B00020C0204040404060F0F0000000000000B8
:1048C000000000000000000000007F0031C030C088
:1048D00030C030C030C031803F0030C03040306028
:1048E00030603060306030C07F8000000000000029
:1048F0000000000000000000000007C018C0306089
:1049000030202020600060006000600060006000D7
:1049100060203020304018C00F0000000000000070
:1049200000000000000000000000FE00318030C0E8
:1049300030C0306030603060306030603060306097
:10494000306030C030C03180FE0000000000000048
:1049500000000000000000000000FFC060C06020F8
:1049600060206000610061007F0061006100610003
:104970006000602060206040FFC000000000000078
:1049800000000000000000000000FFC060C06020C8
:1049900060206000610061007F00610061006100D3
:1049A0006000600060006000F8000000000000008F
:1049B000000000000000000000000F0018803040E0
:1049C00030402040600060006000600063F060C024
:1049D00060C030C030C018C00F00000000000000F0
:1049E00000000000000000000000F0F06060606067
:1049F00060606060606060607FE060606060606018
:104A00006060606060606060F0F0000000000000C6
:104A1000000000000000000000003FC0060006008B
:104A20000600060006000600060006000600060056
:104A300006000600060006003FC00000000000005F
:104A4000000000000000000000001FE00300030061
:104A5000030003000300030003000300030003003E
:104A600003000300030003000300630066003C0032
:104A700000000000000000000000F3C0618063003F
:104A80006200640068006C007400760062006300DD
:104A900061006180608060C0F1E000000000000003
:104AA00000000000000000000000F800600060004E
:104AB00060006000600060006000600060006000F6
:104AC0006000602060206040FFC000000000000027
:104AD00000000000000000000000E0E061C061C0D4
:104AE00071C071C072C072C052C05AC05AC05CC09E
:104AF0004CC04CC04CC048C0E1E0000000000000C9
:104B00000000000000000000000071F0304038405C
:104B100038402C402C402640264022402340214053
:104B200021C021C020C020C0F840000000000000CB
:104B3000000000000000000000000F00198030C0DD
:104B400030406060606060606060606060606060B5
:104B50006060304030C019800F000000000000008D
:104B600000000000000000000000FF0060C0606066
:104B7000606060606060606061C07F0060006000D5
:104B80006000600060006000F800000000000000AD
:104B9000000000000000000000000F00198030C07D
:104BA0003040606060606060606060606060606055
:104BB0006E60324033C019800F0001E000C0000079
:104BC00000000000000000000000FF8060C0606086
:104BD00060606060606060C07F00620063006100D0
:104BE000618060C060C06060F07000000000000084
:104BF000000000000000000000001F4030C06040C6
:104C00006040600070003C001F0007C001C000E071
:104C100040604060606030C00F8000000000000015
:104C2000000000000000000000007FE04620861029
:104C300086100600060006000600060006000600B4
:104C400006000600060006001F80000000000000AD
:104C50000000000000000000000078E0304030401C
:104C600030403040304030403040304030403040C4
:104C700030403040304018800F000000000000003D
:104C800000000000000000000000F0E06040208014
:104C900020803080308011001100190019000A00B6
:104CA0000A000E000C0004000400000000000000D8
:104CB00000000000000000000000EF7046204220CD
:104CC0006220622026402640274027403940398014
:104CD00019801980118011001100000000000000EF
:104CE0000000000000000000000079E0308010802B
:104CF000188009000D0006000400060006000B00E5
:104D000009001180108020C071E000000000000048
:104D100000000000000000000000F0F060202040D3
:104D20003040108018801D000D000E0006000600A7
:104D300006000600060006001F80000000000000BC
:104D4000000000000000000000003FE0304060C0B4
:104D500040800180010002000200040004000800FD
:104D600018001020302020407FC00000000000000C
:104D70000000000007C00400040004000400040058
:104D80000400040004000400040004000400040003
:104D900004000400040004000400040007C0000034
:104DA00000000000000000002000200010001000A3
:104DB00008000800080004000400020002000300CC
:104DC0000100010000800080004000400040002001
:104DD000000000003E00020002000200020002008B
:104DE00002000200020002000200020002000200B3
:104DF0000200020002000200020002003E00000069
:104E00000000060009001080000000000000000003
:104E10000000000000000000000000000000000092
:104E20000000000000000000000000000000000082
:104E30000000000000000000000000000000000072
:104E40000000000000000000000000000000000062
:104E50000000000000000000000000000000FFF063
:104E60000000000018000600000000000000000024
:104E70000000000000000000000000000000000032
:104E80000000000000000000000000000000000022
:104E90000000000000000000000000000000000012
:104EA000000000000F8030C030C000C007C038C014
:104EB00070C060C060C071D03E7000000000000093
:104EC0000000000000000000100070003000300002
:104ED0003000300033803CC038603060306030607B
:104EE00030603060304038C0278000000000000093
:104EF00000000000000000000000000000000000B2
:104F0000000000000F00318031806180600060008F
:104F100060006040304030800F0000000000000062
:104F20000000000000000000004003C000C000C0FE
:104F300000C000C01EC031C030C060C060C060C0D2
:104F400060C060C020C031E01E8000000000000092
:104F50000000000000000000000000000000000051
:104F600000000000078018C01040306030603FE053
:104F700030003000182018400780000000000000BA
:104F80000000000000000000000003C006600C608C
:104F90000C000C007F800C000C000C000C000C00BE
:104FA0000C000C000C000C003F8000000000000012
:104FB00000000000000000000000000000000000F1
:104FC000000000000FE01B603180318031801980CB
:104FD0001F0030003F0033C060C060C071C01F00C0
:104FE00000000000000000001000700030003000E1
:104FF00030003000378038C030C030C030C030C0E2
:1050000030C030C030C030C079E000000000000087
:105010000000000000000000000006000600000084
:10502000000002003E000600060006000600060022
:1050300006000600060006003FC000000000000059
:10504000000000000000000000000380038000005A
:10505000000000800F8001800180018001800180BC
:1050600001800180018001800180018033003E00C9
:105070000000000000000000100070003000300050
:105080003000300031C031003100320036003A00CB
:1050900031003180308030C079E000000000000035
:1050A000000000000000000002003E0006000600B4
:1050B00006000600060006000600060006000600C0
:1050C00006000600060006003FC0000000000000C9
:1050D00000000000000000000000000000000000D0
:1050E00000000000ECE07760666066606660666005
:1050F0006660666066606660FFF0000000000000A9
:10510000000000000000000000000000000000009F
:1051100000000000778038C030C030C030C030C0E0
:1051200030C030C030C030C079E000000000000066
:10513000000000000000000000000000000000006F
:10514000000000000F00198030C060606060606087
:105150006060606030C030C00F00000000000000E0
:10516000000000000000000000000000000000003F
:1051700000000000778038C0306030603060306000
:105180003060306030C038C03780300030007C0084
:10519000000000000000000000000000000000000F
:1051A000000000001E4031C030C060C060C060C060
:1051B00060C060C020C031C01EC000C000C003E09D
:1051C00000000000000000000000000000000000DF
:1051D00000000000F9C01A601C60180018001800D8
:1051E0001800180018001800FF0000000000000060
:1051F00000000000000000000000000000000000AF
:10520000000000000FC038C0304030401C000F00CC
:1052100003C020C020C031C03F800000000000005B
:105220000000000000000000000000000400040076
:105230000C000C007F800C000C000C000C000C001B
:105240000C000C000C400C40078000000000000027
:10525000000000000000000000000000000000004E
:105260000000104071C030C030C030C030C030C00D
:1052700030C030C030C039E01E80000000000000A7
:10528000000000000000000000000000000000001E
:105290000000000078E03040108010801880090085
:1052A0000D000D00060006000400000000000000D4
:1052B00000000000000000000000000000000000EE
:1052C00000000000EF704620622026402640374054
:1052D000398019801980198010000000000000003A
:1052E00000000000000000000000000000000000BE
:1052F000000000003DE0188008800D000600060058
:1053000007000900108010C079E0000000000000D4
:10531000000000000000000000000000000000008D
:105320000000000079E01080108010800900090062
:105330000D000600060006000400040024003800EA
:10534000000000000000000000000000000000005D
:10535000000000003F80218023002200060004009E
:105360000C001840104030C03F80000000000000DA
:105370000000000000C00100010001000100010068
:105380000100010001000200040002000100010010
:1053900001000100010001000100010000C0000047
:1053A00002000200020002000200020002000200ED
:1053B00002000200020002000200020002000200DD
:1053C00002000200020002000200020002000200CD
:1053D0000000000030000800080008000800080075
:1053E000080008000800040002000400080008008B
:1053F000080008000800080008000800300000004D
:10540000000038004420432001C0000000000000DC
:10541000000000000000000000000000000000008C
:10542000000000000000000000000000000000007C
:10543000000000000000000000000000000000006C
:10544000000000000000000000000000000000005C
:10545000000000000000000000000000000000004C
:10546000000000000000000000000000000000003C
:10547000000000000000000000000000000000002C
:10548000000000000000000000000000000000001C
:10549000000000000000000000000000000000000C
:1054A00000000000000000000000000000000000FC
:1054B00000000000000000000000000003C003C066
:1054C00003C003C003C003C001C00180018001808C
:1054D0000180018001800180018000000000000047
:1054E000018003C003C00180000000000000000034
:1054F00000000000000000000000000000000000AC
:10550000000000000000000000000000000000009B
:10551000000000000000000000000000000000008B
:10552000000000000000000000000000000000007B
:10553000000000000318073807380E700C6018C010
:105540003180210000000000000000000000000089
:10555000000000000000000000000000000000004B
:10556000000000000000000000000000000000003B
:10557000000000000000000000000000000000002B
:10558000000000000000000000000000000000001B
:10559000000000000000000000000000000000000B
:1055A00000000000000000000000000000000000FB
:1055B00000000000000000000000000004080408D3
:1055C0000408040804087FFE7FFE7FFE0810081010
:1055D00008100810081008107FFE7FFE7FFE1830AC
:1055E00010201020102010200000000000000000FB
:1055F00000000000000000000000000000000000AB
:10560000000000000000000000000000000000009A
:10561000000000000000000000000000000000008A
:10562000000000000000000000000000000000007A
:1056300000000000000000000100010003C00D3068
:1056400009181918193819381D000D000F00070026
:1056500003C001E001F00130013801183918391890
:1056600031183130196007C001000100010000004D
:10567000000000000000000000000000000000002A
:10568000000000000000000000000000000000001A
:10569000000000000000000000000000000000000A
:1056A00000000000000000000000000000000000FA
:1056B00000000000000000000000000038106C1026
:1056C0004420C620C640C640C640C680C68044802E
:1056D0006D38396C024402C602C604C604C608C648
:1056E00008C60844106C10380000000000000000DC
:1056F00000000000000000000000000000000000AA
:105700000000000000000000000000000000000099
:105710000000000000000000000000000000000089
:105720000000000000000000000000000000000079
:105730000000000000000000000000000F00190041
:105740003180318031803180310033003A001C00DB
:10575000387C3C104C10CE10C620C720C320C1C0DE
:10576000C1C260E6317C1E3800000000000000006D
:105770000000000000000000000000000000000029
:105780000000000000000000000000000000000019
:105790000000000000000000000000000000000009
:1057A00000000000000000000000000000000000F9
:1057B0000000000038003C003C000C000C00080019
:1057C0003000600000000000000000000000000049
:1057D00000000000000000000000000000000000C9
:1057E00000000000000000000000000000000000B9
:1057F00000000000000000000000000000000000A9
:105800000000000000000000000000000000000098
:105810000000000000000000000000000000000088
:105820000000000000000000000000000000000078
:1058300000000000000200040008001800300020F2
:105840000060004000C000C0018001800180018034
:105850000180018001800180018000C000C0004003
:105860000060002000300018000800040002000062
:105870000000000000000000000000000000000028
:105880000000000000000000000000000000000018
:105890000000000000000000000000000000000008
:1058A00000000000000000000000000000000000F8
:1058B0000000000040002000100018000C00040050
:1058C00006000200030003000180018001800180C6
:1058D000018001800180018001800300030003003A
:1058E000060004000C00180010002000400000001A
:1058F00000000000000000000000000000000000A8
:105900000000000000000000000000000000000097
:105910000000000000000000000000000000000087
:105920000000000000000000000000000000000077
:105930000000000000000000000000000000000067
:1059400000C001C001C030C6388E1C9C06B001C02A
:1059500001C006B01C9C388E318601C001C001C058
:105960000000000000000000000000000000000037
:105970000000000000000000000000000000000027
:105980000000000000000000000000000000000017
:105990000000000000000000000000000000000007
:1059A00000000000000000000000000000000000F7
:1059B00000000000000000000000000000000000E7
:1059C0000000008000800080008000800080008057
:1059D0003FFE00800080008000800080008000800A
:1059E00000000000000000000000000000000000B7
:1059F00000000000000000000000000000000000A7
:105A00000000000000000000000000000000000096
:105A10000000000000000000000000000000000086
:105A20000000000000000000000000000000000076
:105A30000000000000000000000000000000000066
:105A40000000000000000000000000000000000056
:105A50000000000000000000000000000000000046
:105A600038003C003C000C000C00080030006000D6
:105A70000000000000000000000000000000000026
:105A80000000000000000000000000000000000016
:105A90000000000000000000000000000000000006
:105AA00000000000000000000000000000000000F6
:105AB00000000000000000000000000000000000E6
:105AC00000000000000000000000000000000000D6
:105AD0007FFE000000000000000000000000000049
