:020000040800F2
:10000000301200209D010008E72A0008432A00085A
:10001000E52A0008E10F0008A54C000800000000D8
:10002000000000000000000000000000973A0008F7
:100030001310000800000000572C000809450008B4
:10004000B7010008B7010008B7010008B7010008B0
:10005000B7010008B7010008B7010008B7010008A0
:10006000B7010008B7010008B7010008B701000890
:10007000B7010008B7010008B7010008B701000880
:10008000B7010008B7010008B7010008B701000870
:10009000B7010008B7010008B7010008B701000860
:1000A000B7010008B7010008B7010008B701000850
:1000B000B7010008B7010008B7010008B701000840
:1000C000B7010008B7010008B7010008B701000830
:1000D000B7010008214C0008B70100082D4C0008AA
:1000E000B7010008B7010008B7010008B701000810
:1000F000B7010008B7010008B7010008B701000800
:10010000B7010008B7010008B7010008B7010008EF
:10011000C1450008B7010008B7010008B701000891
:10012000B7010008B7010008B7010008B7010008CF
:10013000B7010008B7010008B7010008B7010008BF
:10014000B7010008B7010008B7010008B7010008AF
:10015000B7010008B7010008B7010008B70100089F
:10016000B7010008B7010008B7010008B70100088F
:10017000B7010008B70100080000000000000000FF
:10018000B7010008B7010008DFF80CD000F0B0FBA1
:10019000004800475D640008301200200648804790
:1001A00006480047FEE7FEE7FEE7FEE7FEE7FEE75C
:1001B000FEE7FEE7FEE7FEE77D450008890100084F
:1001C0002DE9F05F0546002092469B46884606468C
:1001D000814640241BE0284641464746224600F01F
:1001E00068FA53465A46C01A914110D31146184630
:1001F000224600F04FFA2D1A67EB01084F462246BF
:100200000120002100F046FA17EB00094E41201EA4
:10021000A4F10104DFDC484631462A46434600F09B
:1002200000B830BCBDE8C09F40EA01039B0703D083
:1002300009E008C9121F08C0042AFAD203E011F825
:10024000013B00F8013B521EF9D27047D2B201E0E7
:1002500000F8012B491EFBD270470022F6E710B5CB
:1002600013460A4604461946FFF7F0FF204610BD24
:1002700030B504460020034600E05B1C934203D2E5
:10028000E05CCD5C401BF8D030BD70B5064604F094
:1002900047FD046805460A220021304600F038FA7E
:1002A0002C6070BD2DE9FE4F804681EA0300C00F2F
:1002B0000C46009021F0004123F00045B8EB02000D
:1002C000A94105D24046214690461C460B460246AF
:1002D00023F00040104347D0270DC7F30A00C3F3B3
:1002E0000A510290401A019040286BDAC3F31300C0
:1002F00040F4801B0098924620B10023D2EB030A01
:1003000063EB0B0B01985946C0F14002504600F0D8
:10031000C1F906460D4650465946019A00F0D9F9F2
:1003200010EB08006141002487EA115284EAE77368
:100330001A4340D0009A62B3019A012A4FEA075249
:1003400015DC001B61EB02014FF0004202EA07528C
:10035000CDE90042001C41F5801132462B4600F0E9
:100360001EFA03B000F045B840462146F9E7001BED
:1003700061EB0201001C41F5801300185B4120185D
:10038000A2F5001747EB030140EAD570B6196D419D
:1003900011E06D084FEA360645EAC0754FEA07528C
:1003A000001B61EB0201001C41F5801149084FEA76
:1003B00030000019514132462B4603B000F01CB802
:1003C00000F0DEB90098012240000023D0EB0202C9
:1003D00063EBE073009821464FEAE074B8EB00004D
:1003E00061EB0401E9E783F000435BE781F0004142
:1003F00058E730BCBDE8C08F30BCBDE8C04FFFF748
:10040000DFBF2DE9FE4F81EA030404F0004421F030
:10041000004100944FF0000B23F0004350EA010428
:100420005ED052EA03045BD0C3F30A54C1F30A5509
:100430002C44A4F2F3340194A0FB0254C1F3130141
:1004400041F48011C3F3130343F4801301FB02440E
:1004500000FB034E840A970A44EA815447EA835713
:10046000A4FB076802958D0A05FB07854FEA932CCC
:1004700004FB0C542705029D4FEA065847EA16373D
:10048000B5EB08056EEB070C870E920E47EA811755
:1004900042EA8312A7FB0201B6EB0B0164EB0004F6
:1004A0002B0D43EA0C335E1844EB1C50DA465146E0
:1004B000E7FB0201C5F313044FEA0B3343EA14537D
:1004C0004FEA0432019C43EA0603A4F10C040294AF
:1004D000009CCDE900B400F062F903B000F003B86D
:1004E00000200146F9E730BCBDE8C08F2DE9F04D92
:1004F00081EA030404F0004B21F0004514464FF05C
:10050000000A23F0004150EA050220D054EA01021B
:100510001DD0C5F30A570246C5F31303C1F31300F8
:10052000C1F30A5640F4801543F48013A7EB060884
:10053000101BD64608F2FD3873EB050002D308F114
:10054000010801E092185B41B8F1000F03DA0020C6
:100550000146BDE8F08D00204FF480110646844628
:100560000EE0171B73EB050705D3121B63EB0503A6
:1005700006434CEA010C49084FEA300092185B41EF
:1005800050EA0107EDD152EA030012D082EA0400DA
:1005900083EA0501084305D0101BAB4106D20122B6
:1005A000002306E000224FF0004302E06FF001025A
:1005B00053101AEB06004CEB085110EB0A0041EB0C
:1005C0000B01BDE8F04D00F0DBB80EB5C10F80EABD
:1005D000E0700844CA07002140F233438DE80E0062
:1005E0000A460B4600F0DBF803B000BD0EB540F242
:1005F000334102910021CDE900110A460B4600F07B
:10060000CEF803B000BDC1F30A5210B5C1F3130117
:1006100040F2FF3341F480119A4201DA002010BD0C
:1006200040F233439A42A2F2334203DC524200F0DA
:1006300040F810BD904010BD30B5041E71F10004AB
:1006400004DB4FF00044404264EB0101141E73F1DF
:10065000000405DB1C464FF00043524263EB0403E9
:10066000994208BF904230BD30B50B46014600208C
:100670002022012409E021FA02F59D4205D303FA64
:1006800002F5491B04FA02F52844151EA2F10102E5
:10069000F1DC30BD202A04DB203A00FA02F1002010
:1006A00070479140C2F1200320FA03F319439040B0
:1006B0007047202A04DB203A21FA02F0002170471B
:1006C00021FA02F3D040C2F12002914008431946BA
:1006D0007047202A06DBCB17203A41FA02F043EAA2
:1006E000E07306E041FA02F3D040C2F120029140EB
:1006F0000843194670477CB50023CDE90033054611
:10070000684600F08EF96946284605F0C9FB7CBDB5
:100710002DE9F04791460F4680460446002614F81E
:10072000015B2DB100F0F6F80068405DC007F6D11E
:100730002B2D02D02D2D18D0641E4A463946204656
:1007400000F001F927B13968A14201D1C7F8008052
:1007500071054FF002040BD54042002803DD04F080
:10076000DFFA0460A007BDE8F08746F48066E4E79E
:100770000028F8DA04F0D4FA04606FF00040F2E7E1
:1007800010B5141E73F1000408DA401C41F1000199
:1007900092185B411A4301D120F0010010BD2DE9F0
:1007A000F04D92469B4611B1B1FA81F202E0B0FAE7
:1007B00080F220329046FFF76DFF04460F4640EA74
:1007C0000A0041EA0B0153465A46084313D011462A
:1007D00053EA010019D0C8F140025046FFF769FF03
:1007E00005460E46504659464246FFF753FF08431A
:1007F00005D0012004E020463946BDE8F08D0020F8
:10080000054346EAE0762C4337430A986305E40A39
:10081000A0EB08000022FD0A44EA47540A3002D542
:1008200000200146E9E7010510196941DDE90845A5
:1008300000196941BDE8F04DA2E770B521F0004311
:1008400003430CD0C1F30A550024D5EB040564EB37
:100850000403D617AD1AB34102DB0020014670BD78
:10086000201841EB025170BD2DE9F041054621F001
:1008700000400C46284309D0C4F30A5040F23341EB
:10088000884205DD28462146BDE8F0812846FBE781
:1008900040F2FE31884210DC0CDB4FEA043040EAC3
:1008A000155050EA053105D0104804F000410143CD
:1008B0000020E9E700200146E6E7A0F23340464287
:1008C000C6F1400228462146FFF7E4FE0746884667
:1008D000284621463246FFF7ECFE43463A46FFF7EC
:1008E0004FFF3246BDE8F041FFF7D4BE0000F03FB5
:1008F000064C074D06E0E06840F0010394E807006D
:1009000098471034AC42F6D3FFF742FC106B000856
:10091000306B0008004870470C6B000810B50446A7
:10092000FFF7F8FF0068005D202801D0002010BD0F
:10093000012010BD10B50446FFF7ECFF0068005D14
:1009400000F0010010BD2DE9F05F8246007800271D
:1009500015468B460AF10104B946302801D09DB1F5
:1009600013E014F8010B0127782803D0582801D090
:1009700045B10AE00DB1102D07D10027102514F85C
:10098000010B02E0082500E00A250026B0460EE033
:1009900005FB080005FB06F1012701EB10461FFAD5
:1009A00080F8B6F5803F00D3B94614F8010B29460C
:1009B00000F0D4F80028EBDABBF1000F05D00FB13E
:1009C000641E00E05446CBF80040B9F1000F06D099
:1009D00004F0A6F902210160C81E00F003B848EA3D
:1009E0000640FAE730BCBDE8C09F00000FB400230A
:1009F00000B589B00CA900910B996FF00042CB6053
:100A00001E4B06931E4B07930423CDE901321D4A6A
:100A1000089202466B46002000F042F909B05DF8EA
:100A200014FB70B586B006464FF0FF300091CDE95B
:100A30000101002015460C4604903246694604A880
:100A4000FFF7D4FF02460498211825B108B10846E3
:100A500000E020462860049800280DD0002A02DD1E
:100A60000098884208D0081B0094CDE90104324662
:100A7000694604A8FFF7BAFF06B070BDDF0E000894
:100A8000FD0E0008350900082DE9F04D00231A4637
:100A90001B1A8A4103DB00200146BDE8F08DC1F33B
:100AA0000A52C1F3130141F480154FF0000BD10736
:100AB00002D100186D41521E0027044640F2FF117A
:100AC000384601EB620A3E468046024600204FF45B
:100AD0008011FFF7EEFDC2197141BB1846EB010012
:100AE000B4EB030C75EB000C04D3E41A65EB0005C2
:100AF00017460E46241908F101006D41804634283E
:100B0000E3DDF91946EB0600091BA84103D24FF0BB
:100B1000FF32134601E0002213461BEB070046EBB1
:100B20000A51BDE8F04DFFF72BBE000030B5041EA2
:100B300071F1000404DB4FF00044404264EB01011A
:100B4000141E73F1000405DB1C464FF000435242B3
:100B500063EB04038B4208BF824230BD3A2800D2C7
:100B6000303820F02002412A01D3A2F13700884218
:100B700001D34FF0FF3070472DE9FF4F087883B065
:100B80009946FF2805D0491C2D2804D000240020B8
:100B900008E000200BE00124F9E700EB800003EB04
:100BA0004000491C0B78FF2BF7D104B140420023D1
:100BB0000293147819461D462D2C01D02B2C04D1FC
:100BC000521C2D2C13D000240294AA461478FF2C1A
:100BD0000FD00A25A3FB057801FB05814FF0000C1F
:100BE00003FB0C11521CE3194AEB0101EEE701244F
:100BF000EAE7814453EA010002D019F5C87F06DA1A
:100C000003980021C0E9001107B000F065B9002584
:100C1000AE4E2F46DFF8B882184600F0D5F9CDE980
:100C20000001B9F1000002DAC9F1000400E0044655
:100C30000023A74A1AEB030B42EB045A12E0E00729
:100C400007D02A46334638464146FFF7DAFB0746C7
:100C500088462A46334610461946FFF7D2FB05461A
:100C60000E466410002CEAD1DDE90001B9F1000F55
:100C70005A46534606DAFFF739FC3A464346FFF731
:100C800035FC05E0FFF7BDFB3A464346FFF7B9FBED
:100C9000029A0AB181F00041039AC2E90001B3E768
:100CA0002DE9FF4F1F468DB0D7E901464FF0FF38C1
:100CB0002E2045464FF000090B90B9696D1C0E9827
:100CC0008847396A824688470028F6D1BAF1FF3F43
:100CD0000AD024F4D064002E11DDBAF12B0F08D015
:100CE000BAF12D0F0BD102E0404611B08DE744F46C
:100CF0008064B9696D1C0E9888478246761E6946E5
:100D0000600501D52D2000E02B208DF8000001F1B9
:100D1000010B0DF1200809E0B9696D1C0E98884798
:100D200082460F9844F40074761E0560002E02DDA2
:100D3000BAF1300FF0D00B998A453ED144F08004CF
:100D400006E00F99681CA9F1010944F400740860D9
:100D5000B9696D1C761E0E98884782463028F0D0FF
:100D60002BE00B998A4505D1200603D444F080047A
:100D7000761E18E0504605F0B1F808B30DF11301E6
:100D8000761E44F400748B4508D2AAF130000BF8AB
:100D9000010B200607D5A9F1010003E0200602D4CB
:100DA00009F101008146A00502D50F99681C086071
:100DB000B9696D1C0E9888478246002ED1DC53E03D
:100DC000002E51DDBAF1650F02D0BAF1450F4BD1BB
:100DD000A00549D5B9696D1C24F44074761E0E989F
:100DE00088478246002E0CDD2B2804D0BAF12D0F47
:100DF00007D144F48074B9696D1C0E988847824607
:100E0000761EE00501D52D2100E02B2108F8011BFD
:100E1000CDF82C8021E00DF12901761E44F40074F8
:100E200088450CD2AAF1300010F0FF0088F80000CD
:100E300002D10B99884509D908F1010806E0E005BF
:100E400001D5244801E042F20F708146B9696D1C5A
:100E50000E98884782460F980560002E04DD5046A4
:100E600005F03CF80028D6D1F9690E988847FF2094
:100E70008BF8000088F800000020069007904B4691
:100E80006A4608A906A8FFF777FEA00502D46FF00E
:100E900001002AE714F0240F0AD0E00714D1DDE99D
:100EA00006123868031D3B600068C0E900120BE0C1
:100EB000DDE9060100F033F80146E00704D13868A7
:100EC000021D3A600068016028460EE700001440E9
:100ED0000000F03FF1D8FFFF30BCBDE8C08F426892
:100EE00042B1016811F8013B23B1521EC0E9001262
:100EF000184670470121C160881E704742685AB188
:100F0000C368016843B983688B4205D0491E521CEF
:100F1000C0E90012002070474FF0FF30704701F029
:100F2000004330B421F0004150EA010206D00A0D1E
:100F3000A2F56072C1F31301002A02DC30BC00206C
:100F40007047440F44EAC104C100E01830BC00EB14
:100F5000C25000F002B8002070470029A8BF7047B7
:100F6000401C490008BF20F00100704710B4B0FADF
:100F700080FC00FA0CF050EA010404BF10BC70477A
:100F800049B1CCF1200421FA04F411FA0CF118BF94
:100F9000012121430843A3EB0C01CB1D4FEA006163
:100FA0004FEA102042BF002010BC704700EBC35036
:100FB00010440029A4BF10BC7047401C490008BF62
:100FC00020F0010010BC70470EB540F2334202928F
:100FD0000022CDE900221346FFF7E1FB03B000BD7C
:100FE000FEE770B500234FF6FF7401F0800500F4B2
:100FF0000046B5EB162F03D004EA4000504001E054
:1010000004EA40004906090E5B1CDBB2082BECD356
:1010100070BD7047F0B587B02F48C16C41F0010139
:10102000C164C16C01F001010191C16C41F0020188
:10103000C164C16C01F002010191C16C41F0040175
:10104000C164C16C01F004010191C16C41F008015F
:10105000C164C16C01F008010191C16C41F08001D3
:10106000C164C06C00F08000019049F6F8700290F5
:101070000125039500240494059402A94FF09040A3
:1010800000F06CF903260296039404950594134F1F
:1010900002A9384600F062F940F6FC700290039510
:1010A0000494059402A9384600F058F928030290E8
:1010B00003950494059602A9384600F04FF943F2CF
:1010C000FF30029003950494059402A9044800F0AF
:1010D00045F907B0F0BD00000010024000040048D0
:1010E00000080048F8B50446002500260096002CAC
:1010F00002D0606D10B107E00120F8BD204600F07D
:10110000D9F8A66584F8506020688168C1F3407101
:1011100019B181685E4A1140816020688168C1F31D
:10112000007191B981685B4A114041F08051816042
:1011300059485A490068B0FBF1F0009002E000986D
:10114000401E009000980028F9D120688168C1F302
:10115000007141B9616D41F010016165A16D41F00F
:101160000101A165012501F075FC616DC90600D47E
:1011700030B1606D40F01000606501252846F8BD73
:10118000606D20F4807040F002006065206801F01E
:101190005DFCA8B942488068C0F3000041498968F5
:1011A000C1F30001084340498968C1F300010843C5
:1011B00006D160683D498A6822F47C1202438A6045
:1011C000E168606B627E0843A16841EA42310843EE
:1011D00094F8201040EA0140012903D1A18C491E56
:1011E00040EA4140A16A29B101F47071E26A014309
:1011F00042EA01002168CA682D4B1A400243CA60C6
:10120000206801F027FC0646206801F01BFC06431D
:1012100015D1207E94F83010800340EA4101206807
:10122000C26844F202039A430A43C26094F8380049
:10123000012813D02068016921F0010101612069B2
:1012400001281CD02068016B21F00F010163606D43
:1012500020F0020040F0010060658FE7D4E90F1034
:101260000143D4E91102104301432068026940F2AE
:10127000FC739A43114341F001010161DFE72068EB
:10128000016BE26921F00F01521E11430163DEE799
:10129000C0FFFF5FC0FFFF7F14000020400D030070
:1012A00000000450000104500002045000030450E8
:1012B00007C0F0FF00B5A9B04FF4804007904FF091
:1012C0004050259007A800F007FA0F48C16C41F480
:1012D0000051C164C16C01F400510191C16C41F035
:1012E0000101C164C06C00F0010001900720029070
:1012F0000B2003900020049002A94FF0904000F0D2
:101300002DF829B000BD00000010024010B50024E7
:1013100090F82510022903D00421C16301241AE0AA
:1013200001680A6822F00E020A6001680A6822F069
:1013300001020A6090F84410012301F01C0203FA34
:1013400002F1026C516080F82530002180F82410F1
:10135000816B01B18847204610BD00002DE9F84F90
:101360000022DFF8A881DFF8A4A14FF0010E4FF0B2
:101370000F0C08F104090AF10C0ABFE00EFA02F49E
:101380002340002B75D04D68022D01D0122D11D1B4
:10139000D50800EB85073E6A5507ED0E0CFA05FBF4
:1013A00026EA0B06D1F810B00BFA05FB4BEA060B48
:1013B000C7F820B0076855000326AE40B74391F840
:1013C00004B00BF0030B0BFA05FB4BEA070BC0F85C
:1013D00000B04F68012F05D0022F03D0112F01D08C
:1013E000122F15D18768B743D1F80CB00BFA05FB63
:1013F0004BEA070BC0F808B04768A74391F804B060
:10140000CBF3001B0BFA02FB4BEA070BC0F804B04E
:10141000D1F804B06FEA0B07BF0706D1C76AA7432C
:10142000CBF3C00494403C43C462C468B4438E68A8
:10143000AE402643C6604C68E4005ED5344C256E51
:1014400045F001052566246E04F001040094314C3A
:1014500022F003052E19B7689407250F0CFA05F43E
:10146000A743B0F1904F05D02B4CA04204D10124EA
:101470001CE042E0002419E0284CA04201D10224E3
:1014800014E0274CA04201D103240FE0254CA042D8
:1014900001D104240AE0244CA04201D1052405E036
:1014A000224CA04201D1062400E00724AC403C437A
:1014B000B460D8F800409C434D68ED0300D51C4350
:1014C000C8F80040D9F800409C434D68AD0300D5F2
:1014D0001C43C9F800400D4D08352C689C434E68EC
:1014E000F60200D51C432C60DAF800409C434D689E
:1014F000AD0200D51C43CAF80040521C0B6833FAF9
:1015000002F47FF43BAF00F013B800000004014088
:10151000001002400000014000040048000800489C
:10152000000C004800100048001400480018004853
:1015300018BCBDE8E08F0069084201D00120704767
:1015400000207047002A01D0816170478162704796
:101550000148006870470000180000200248016838
:10156000491C0160704700001800002038B50024B5
:10157000052000F061F8002000F01AF808B10124FD
:1015800012E00A49086E40F001000866086E00F09B
:1015900001000090886D40F080508865886D00F0F3
:1015A0008050009000F01CF8204638BD001002402A
:1015B00070B50546002409484FF47A720068B0FB04
:1015C000F2F000F0B8FF08B1012404E0002229463F
:1015D000501E00F011F8204670BD000014000020DD
:1015E000704700F01F02012191404009800000F186
:1015F000E020C0F800117047F0B40D460D4B1B6899
:10160000C3F30223C3F10704042C00D90424191DD9
:10161000072901D2002300E0DB1E012606FA04F1AF
:10162000491E294099409E40761E16403143F0BC29
:1016300001F05ABA0CED00E000F00701054A10680D
:101640004FF6FF03184040EA0120034908431060A9
:10165000704700000CED00E00000FA051749B0F5F6
:10166000007F0CD00868C0F34120022805D008682C
:1016700020F4C06040F48060086000207047086873
:10168000C0F341200128F8D0086820F4C06040F47D
:10169000007008600A48322200685043094AB0FBD3
:1016A000F2F0401C00E0401E4A69520501D50028B6
:1016B000F9D148694005E0D503207047007000402B
:1016C0001400002040420F000248006800F4C0608F
:1016D00070470000007000402DE9F84F04460025D7
:1016E00000272088E74E000504F1200B0DD5606E21
:1016F000D0B3B0F5800F45D0B0F5000F37D0B0F5BE
:10170000400F00D0012585B32F462088C0040DD599
:10171000A06E58B3B0F1807F4FD0B0F1007F41D0C0
:10172000B0F1407F00D0012595B32F46206880039B
:1017300063D54FF00008B06DC00009D4B06D40F023
:101740008050B065B06D00F0805000904FF00108FF
:10175000DFF834A3DAF8000040F48070CAF8000023
:10176000FFF7F6FE81463FE006E012E01FE0F0687A
:1017700040F48030F060C6E70021201D01F06CFAD3
:101780000546C0E70021584601F008FB0546BAE7C8
:1017900019E0D6F88800616E20F440000843C6F8CE
:1017A0008800B2E7F06840F48030F060BCE70021C8
:1017B000201D01F051FA0546B6E70021584601F018
:1017C000EDFA0546B0E7D6F88800A16E20F040702B
:1017D0000843C6F88800A9E7FFF7BAFEA0EB0900A6
:1017E000022801D9032503E0DAF80000C005F3D58B
:1017F00025B12F46B8F1010F38D03BE0D6F8900064
:1018000000F4407088B1D4F8841081420DD056F8AD
:10181000900F20F44070316841F4803131603168BC
:1018200021F48031316046F89009C00711D0FFF7EC
:101830008FFE814641F2883A07E0FFF789FEA0EB70
:101840000900504501D9032503E0D6F89000800730
:10185000F3D50DB12F46CDE7D6F89000D4F884101B
:1018600020F440700843C6F89000C3E7B06D20F044
:101870008050B0652078C00707D0D6F88800A16BEB
:1018800020F003000843C6F888002078800707D5B9
:10189000D6F88800E16B20F00C000843C6F88800F9
:1018A0002078400707D5D6F88800216C20F030005A
:1018B0000843C6F888002078000707D5D6F88800C6
:1018C000616C20F0C0000843C6F888002078C0068C
:1018D00007D5D6F88800A16C20F440700843C6F8FC
:1018E00088002078800607D5D6F88800E16C20F4BF
:1018F00040600843C6F888002088800507D5D6F8E0
:101900008800E16D20F440200843C6F88800208854
:10191000400507D5D6F88800216E20F44010084312
:10192000C6F888002078400607D5D6F88800216DD3
:1019300020F440500843C6F888002078000607D5F8
:10194000D6F88800616D20F440400843C6F888004E
:101950002088C00507D5D6F88800A16D20F4403056
:101960000843C6F8880020884FF0006580044FF0D7
:10197000806817D5D6F88800E16E20F040600843F3
:10198000C6F88800E06EA84204D1F06840F48010E8
:10199000F06007E0404505D10121201D01F05CF910
:1019A00000B107462068000317D5D6F88800216FDC
:1019B00020F040600843C6F88800206FA84204D198
:1019C000F06840F48010F06007E0404505D1012147
:1019D000201D01F041F900B107462068400317D5EA
:1019E000D6F88800616F20F040600843C6F8880090
:1019F000606FA84204D1F06840F48010F06007E006
:101A0000404505D10121201D01F026F900B107460E
:101A1000208840041CD5D6F88800A16F20F04050E3
:101A20000843C6F88800A06FB0F1805F03D0B0F122
:101A3000005F07D00CE00221201D01F00DF938B144
:101A4000074605E00221584601F0A8F900B1074613
:101A50002088000407D5D6F88800E16F20F0804088
:101A60000843C6F888002068C00307D556F8880FD9
:101A7000D4F8801020F0004008433060384600F071
:101A800005B80000001002400070004018BCBDE81E
:101A9000E08F00002DE9F04704460D46002C17D0DA
:101AA000DFF82481D8F8000000F00700A84211D226
:101AB000D8F8000020F007002843C8F80000D8F844
:101AC000000000F00700A84204D00120BDE8F08724
:101AD0000120FBE720783D4EC00732D06068032824
:101AE00007D002280AD070B13168490510D401200E
:101AF000ECE7316889010BD40120E7E731688903FD
:101B000006D40120E2E73168890701D40120DDE72E
:101B1000B16821F003010143B160FFF719FD0746E9
:101B200041F2883906E0FFF713FDC01B484501D993
:101B30000320CBE7B068616800F00C00B0EB810FC8
:101B4000F1D12078800705D5B068A16820F0F000B9
:101B50000843B060D8F8000000F00700A8420ED992
:101B6000D8F8000020F007002843C8F80000D8F893
:101B7000000000F00700A84201D00120A6E720786D
:101B8000400705D5B068E16820F4E0600843B06024
:101B90002078000706D5B068216920F4605040EA3B
:101BA000C100B06000F042F8B168094AC1F3031106
:101BB000515C01F01F01C84006490860BDE8F047CC
:101BC0000020FFF7F5BC000000200240001002409A
:101BD0008C6800081400002001480068704700006D
:101BE0001400002000B5FFF7F7FF05498968054A92
:101BF000C1F30221515C01F01F01C84000BD00008B
:101C000000100240CC68000800B5FFF7E5FF054969
:101C10008968054AC1F3C221515C01F01F01C84027
:101C200000BD000000100240CC68000870B5002222
:101C30000020284B996801F00C01DC6804F00304D3
:101C4000254D6E10002908D00C2901D1012C04D09B
:101C5000042913D0082913D013E01A68120704D4FA
:101C6000D3F89420C2F3032202E01A68C2F30312ED
:101C70001A4C54F8222021B9104602E0284600E010
:101C800030460C2917D1D86800F00301D868C0F39A
:101C90000210401C02290FD0032914D0B2FBF0F02F
:101CA000D968C1F306214843D968C1F34161491C91
:101CB0004900B0FBF1F070BDB5FBF0F0D968C1F39D
:101CC00006214843F0E7B6FBF0F0D968C1F30621DE
:101CD0004843E9E7001002400024F4009C68000833
:101CE0002DE9F8430446002C0DD0F84DA86800F00B
:101CF0000C06E86800F003072078C00668D596B1A6
:101D00000C2E03D004E00120BDE8F883012F0AD097
:101D1000A06900287BD0286840F001002860FFF708
:101D200017FC80465DE02868800701D5A06938B1BE
:101D3000206A2968090705D5296801F0F00106E045
:101D40000120E1E7D5F8941001F470610909884297
:101D500016D901F0B1F808B10120D5E7286840F0A4
:101D6000080028602868216A20F0F00008432860F5
:101D70006868E16920F47F4040EA0120686016E06D
:101D8000286840F0080028602868216A20F0F000E8
:101D9000084328606868E16920F47F4040EA012038
:101DA0006860206A01F088F808B10120ACE7FFF70D
:101DB0003DFFA968C64AC1F30311515C01F01F0140
:101DC000C840C44908600020FFF7F2FB00289BD1FF
:101DD00030E0FFF7BDFBA0EB0800022801D903208B
:101DE00092E728688007F4D5286840F0080028604A
:101DF0002868216A20F0F000084328606868E169DB
:101E000020F47F4040EA0120686013E0FFE7286883
:101E100020F001002860FFF79BFB804607E0FFF7FA
:101E200097FBA0EB0800022801D903206CE7286883
:101E30008007F4D42078C0074AD0082E18D00C2E82
:101E400001D1032F14D06068B0F5803F17D0B0F5F2
:101E5000A02F19D0286820F480302860286820F44A
:101E600080202860606820B3FFF772FB80461CE08A
:101E7000286880032CD5606850BB012044E728689F
:101E800040F480302860EDE7286840F48020286026
:101E9000286840F480302860E4E7FFF759FBA0EBA6
:101EA0000800642801D903202EE728688003F4D5B0
:101EB0000EE0FFF74DFB804607E0FFF749FBA0EB84
:101EC0000800642801D903201EE728688003F4D4A1
:101ED0002078800742D5042E0DD00C2E01D1022F80
:101EE00009D0E06840B3286840F480702860FFF7AC
:101EF0002FFB074615E02868400501D5E06838B19A
:101F00006868217C20F0F85040EA0160686025E0B4
:101F10000120F9E6FFF71CFBC01B022801D90320B2
:101F2000F2E628684005F5D56868217C20F0F85075
:101F300040EA0160686011E0286820F48070286041
:101F4000FFF706FB074606E0FFF702FBC01B02286F
:101F500001D90320D8E628684005F5D42078000789
:101F60002CD56069A8B1D5F8940040F00100C5F8FF
:101F70009400FFF7EDFA074606E0FFF7E9FAC01B09
:101F8000022801D90320BFE6D5F894008007F4D5D4
:101F900014E0D5F8940020F00100C5F89400FFF794
:101FA000D7FA074606E0FFF7D3FAC01B022801D98B
:101FB0000320A9E6D5F894008007F4D420784007E0
:101FC00074D54FF00008A86DC00009D4A86D40F08A
:101FD0008050A865A86D00F0805000904FF0010877
:101FE000DFF8F490D9F80000C00514D4D9F8000047
:101FF00040F48070C9F80000FFF7AAFA074606E02F
:10200000FFF7A6FAC01B022801D903207CE6D9F805
:102010000000C005F4D5A068012813D0052818D009
:1020200055F8900F20F001002860286820F0040087
:1020300045F89009A06841F2883908B3FFF788FA9B
:10204000074618E0D5F8900040F00100C5F8900070
:10205000F0E755F8900F40F004002860286840F041
:10206000010045F89009E5E7FFF772FAC01B484503
:1020700001D9032048E6D5F890008007F4D50EE09A
:10208000FFF766FA074606E0FFF762FAC01B48450D
:1020900001D9032038E6D5F890008007F4D4B8F1D0
:1020A000010F03D1A86D20F08050A865A06AE8B3A5
:1020B0000C2E71D0022811D0286820F08070286082
:1020C000286810F0205F4ED051E000000010024060
:1020D0008C6800081400002000700040286820F080
:1020E00080702860FFF734FA064606E0FFF730FA02
:1020F000801B022801D9032006E628688001F5D458
:10210000D4E90B10401E41EA0011606BA26B000283
:10211000120940EA42400143A28F4FF0FF3000EB2A
:10212000520241EA425194F8402000E031E000EBD5
:10213000520041EA4060E860286840F08070286002
:10214000E86840F08070E860FFF702FA044606E0B5
:10215000FFF7FEF9001B022801D90320D4E5286807
:102160008001F5D515E0E86820F00300E860E86834
:102170000A490840E860FFF7EBF9044606E0FFF77C
:10218000E7F9001B022801D90320BDE5286880017A
:10219000F5D40020B8E5FFE70120B5E5FFFFEEFE2E
:1021A0002DE9F0410446002C05D00025A56294F8E5
:1021B0005D0018B107E00120BDE8F08184F85C50B3
:1021C000204600F045F8022684F85D60206801682A
:1021D00021F040010160E0684FF4E062904201D9D3
:1021E000002101E04FF48051B0F5706F02D09042B1
:1021F00000D0A562276B012327B9904201D926633D
:1022000000E02363D4E901021043D4E904263243F9
:102210001043228B02F400721043E2691043226AD9
:102220001043A26A104322681060626B606AA6695C
:1022300010430427E26807EA164632431043084376
:1022400021684860256684F85D300020B4E700000E
:1022500000B587B0142102A8FDF7FFFF1048C16C3C
:1022600041F00201C164C16C01F002010191816D74
:1022700041F480418165806D00F4804001904FF40D
:1022800060400290022003900020049003200590FB
:102290000520069002A90348FFF760F807B000BDCB
:1022A00000100240000400482DE9F05F04460A9E39
:1022B0008A4693461F4601254FF0000894F85C00BB
:1022C00001280ED0012084F85C00FFF741F9814617
:1022D00094F85D00616801280DD0B1F5827F07D1C7
:1022E00002E0022000F016B9A16809B9042802D062
:1022F0004FF0020804E1BAF1000F26D0BBF1000F45
:1023000023D0380021D094F85D00042802D00520A5
:1023100084F85D0000202066C4F840B0A4F8467040
:10232000A4F84470C4F838A0E787A787E064206564
:10233000E0684FF4E061884201D8012F08D9206895
:10234000426822F48052426007E04FF00108D7E073
:102350002068426842F48052426020680268520657
:1023600003D4026842F040020260E068884246D925
:10237000606808B1012F3AD1A06B21680088C8605D
:10238000A06B801CA063E08F401EE0872FE02068D8
:10239000816889070DD5E18F59B1012D09D1A16B54
:1023A0000988C160A06B801CA063E08F401EE0879D
:1023B000002520688168C9070ED0B4F8461059B1CD
:1023C000C068216C0880206C801C2064B4F8460032
:1023D000401EA4F846000125FFF7BAF8A0EB09005B
:1023E000B04204D3701C02D04FF0030888E0E08FA5
:1023F0000028CCD1B4F846000028C8D176E0606847
:1024000008B1012F6BD1E08F01280AD9A06B216898
:102410000088C860A06B801CA063E08F801EE087EE
:102420005DE0A06B216800780873A06B401CA0637E
:10243000E08F401EE08752E02068816889071AD546
:10244000E18FC1B1012D16D1E18F012909D9A16B0D
:102450000988C160A06B801CA063E08F801EE087AC
:1024600008E0A16B09780173A06B401CA063E08FAA
:10247000401EE087002520688168C90726D0B4F88F
:10248000461019B3B4F84610012913D9C06854F89E
:10249000401F08802068801C2060E088801EE0804B
:1024A000E088403C012810D82068416841F4805100
:1024B00041600AE0007B216C0870206C401C2064A5
:1024C000B4F84600401EA4F846000125FFF740F886
:1024D000A0EB0900B04201D3701C18D1BEB1E08F4F
:1024E0000028A9D1B4F846000028A5D14A463146B3
:1024F000204601F00BFA18B14FF0010820202066A9
:1025000001205C346070002020704046EAE64FF005
:102510000308F5E730BCBDE8C09F4FF0E021042878
:1025200004D0086920F0040008617047086940F091
:1025300004000861704710B5401EB0F1807F01D3E0
:10254000012010BD4FF0E02460610F21601700F002
:10255000CBFA0020A06107202061002010BD704749
:102560007047000070B504462368D86919689A68F6
:1025700000F00F05002D0AD1860608D58E0606D577
:10258000216E002966D02046BDE870400847002D26
:102590006BD002F0010501F490762E4365D0C6079A
:1025A00007D0CE0505D501261E62636F43F00103F7
:1025B0006367830708D5D30706D0266802233362F2
:1025C000636F43F004036367430708D5D20706D05F
:1025D000236804221A62626F42F0020262670207F5
:1025E0000AD501F020022A4306D0236808221A6285
:1025F000626F42F008026267626F002A2AD080068A
:1026000005D5880603D5216E09B120468847606F3D
:10261000000703D420688068400620D5204602F0D9
:1026200071F820688168490615D5816821F040015C
:102630008160E06E58B11D498163E06EFEF766FE71
:10264000002807D0E06E816BBDE870400847204647
:10265000FFF786FF70BD2046FFF782FF70BD204662
:10266000FFF77EFF0020606770BDC50209D55202EA
:1026700007D54FF4801018622046BDE87040FFF780
:102680006EBF020608D50A0606D5616E0029EBD09A
:102690002046BDE8704008474006E5D54806E3D52A
:1026A0002046BDE8704002F03DB80000F146000849
:1026B00010B50446002C03D094F8710010B107E067
:1026C000012010BD002084F87000204600F028F89A
:1026D000242084F871002068016821F00101016064
:1026E000204602F089F8012818D0606A10B120460F
:1026F00001F06CFF2068416821F49041416020683E
:10270000816821F02A0181602068016841F001019F
:1027100001602046BDE8104001F0BCBF012010BDA3
:102720002DE9F04786B0054603F090FE3E49286843
:10273000DFF8F8803E4C022601274FF00709884257
:1027400020D1E06C40F00400E064E06C00F0040094
:102750000090A06D40F48020A065A06D00F4802062
:10276000009010200190029603970496CDF81490E3
:1027700001A94046FEF7F2FD2020019001A9404644
:10278000FEF7ECFD2B4928684FF4806A884222D17D
:10279000E06C40F00100E064E06C00F001000090AB
:1027A000206E40F480402066206E00F4804000904F
:1027B00048150190029603970496CDF814904FF0B7
:1027C000904901A94846FEF7C9FDCDF804A001A92A
:1027D0004846FEF7C3FD18492868884221D1E06CBD
:1027E00040F00400E064E06C00F004000090A06D94
:1027F00040F40020A065A06D00F400200090CDF80A
:1028000004A00296039704960820059001A940466B
:10281000FEF7A4FD4FF40061019101A94046FEF7C7
:102820009DFD06B0BDE8F087004800400008004864
:102830000010024000380140004C00402DE9F84FE4
:1028400004460D461646984694F87200202802D099
:10285000022000F06EB8FDB1F6B194F870000128C6
:102860001CD00120543420774FF00009C4F8209088
:102870002220A077FEF76CFE8246A680E68054F800
:102880004C0C543C4FF48057FF22B8420DD12069C4
:1028900030B1A4F85C201BE00120DAE70220D8E781
:1028A00040F2FF10A4F85C0012E07F2118B1B0F1F3
:1028B000805F08D00CE0206910B1A4F85C1007E03C
:1028C000A4F85C2004E0206928B13F20A4F85C0053
:1028D000B4F85C601CE0A4F85C10F9E753460022F1
:1028E00020212046CDF8008002F068F908B10320CD
:1028F000AFE7A068B84201D12069A0B12068808C00
:10290000304005F8010BB4F85A00401EA4F85A00F4
:10291000B4F85A000028E1D1202084F8720084F82D
:102920007090002095E72068808C304025F8020BDD
:10293000E9E718BCBDE8E08F30B590F87230202B85
:1029400001D0022030BDC1B1BAB190F87030012B76
:1029500015D0012380F870304165A0F85820A0F808
:102960005A20002202661D038168FF23A9420DD16F
:10297000016931B1A0F85C301BE0012030BD0220BC
:1029800030BD40F2FF11A0F85C1012E07F2419B1B5
:10299000B1F1805F08D00CE0016911B1A0F85C4092
:1029A00007E0A0F85C3004E00169D9B13F21A0F84C
:1029B0005C104267222180F8721001688B6843F036
:1029C00001038B608168A94201D1016969B108499D
:1029D000016680F870200068016841F49071016020
:1029E000002030BDA0F85C40E3E702490166F0E753
:1029F0009D4700084147000810B50E490E48007871
:102A000070280FD0712810D00022882810D00A70AA
:102A1000087803F0E3FDBDE81040012206490748AD
:102A2000FFF78ABF01200870F2E702200870EFE785
:102A30000A70EDE71000002020000020C0040020F4
:102A40007047FEE78068C0F3C00070478068C0F33D
:102A5000000070478068C0F38000704710B50D4CCF
:102A6000012240212046FEF76DFD0A2003F0D6FB2F
:102A7000002240212046FEF765FD642003F0CEFBD6
:102A8000012240212046FEF75DFDBDE810400A20EE
:102A900003F0C4BB0008004810B51048FEF70AFC5C
:102AA0000E480F4901604FF4003141600021816000
:102AB000C1600161416141760122C26180F820104C
:102AC00041628162C162017680F83010416380F812
:102AD0003810BDE81040FEF705BB000038050020A7
:102AE00000000450FEE770470907090E002806DAC7
:102AF00000F00F0000F1E02080F8141D704700F195
:102B0000E02080F8001470472DE9F04714461E4677
:102B10002D4DE9800A4601462C48FDF785FB6C7077
:102B2000AE702B4E306B8047284C2878403C4FF0DD
:102B300050084E274FF0470900B304222549234887
:102B4000FDF796FB10B924A002F0AEF884F80080DF
:102B500049206070A77084F803901C48012204216A
:102B6000403800F0EDF9E881010A21716071B26A24
:102B7000BDE8F047154806214038104715490422A2
:102B8000491F1248FDF774FB28B1716BBDE8F0478F
:102B90004FF47A70084784F800804F206070A77067
:102BA00084F80390094801220421403800F0C8F954
:102BB000E881010A21716071B26ABDE8F0470348FB
:102BC0000621403810470000000000203801002096
:102BD000D468000885680008504F4E470000000088
:102BE0007047000070B5124D286B8047114E307849
:102BF000B8B1114C50202070492060704E20A07058
:102C00004720E07001220421204600F099F9F0816C
:102C1000010A217160712046AA6ABDE87040062150
:102C20001047696BBDE870404FF47A7008470000A8
:102C3000D468000800000020F800002010B5044C03
:102C4000206B8047616BBDE810404FF47A700847F5
:102C5000D4680008704770472DE9F0410546884662
:102C600000244A4EF068810728680ED0F16801F010
:102C70000301814207D130B1F0686968C0F30210E6
:102C8000401C884225D0012423E0012806D00228D8
:102C900009D003280CD0012494B11AE031688907C7
:102CA000FAD40124F8E731684905F5D40124F3E7A3
:102CB00031688903F0D431684903EDD40124EBE78E
:102CC000F16821F073026968491E42EA011101436B
:102CD000F16074BB306820F080603060FEF738FC33
:102CE000074606E0FEF734FCC01B022801D9032486
:102CF00002E030680001F5D4DCB9B8F1000F19D05A
:102D00004FF0FF30B8F1010F20D0A9682A7D0902E9
:102D100000EB520041EA406031691D4A114008430E
:102D20003061306840F080603060FEF711FC07468B
:102D300020E027E0A868E9680002090940EA41406C
:102D40003169144A114008433061EAE7A9682A8AC8
:102D5000090200EB520041EA405130690E4A10402E
:102D600001433161DDE7FEF7F3FBC01B022801D907
:102D7000032402E030680001F5D51CB93069A96967
:102D8000084330612046BDE8F08100000010024099
:102D9000FF80FFF9FF80FDFFFF809FFF2DE9F041DD
:102DA000054688460024414EF068810728680ED009
:102DB000F16801F00301814207D130B1F068696820
:102DC000C0F30210401C884225D0012423E00128D2
:102DD00006D0022809D003280CD0012494B11AE0AF
:102DE00031688907FAD40124F8E731684905F5D438
:102DF0000124F3E731688903F0D431684903EDD445
:102E00000124EBE7F16821F073026968491E42EA88
:102E100001110143F160B4BB306820F08050306094
:102E2000FEF796FB074606E0FEF792FBC01B022862
:102E300001D9032402E030688000F5D41CBBB8F14E
:102E4000000F14D0A868297C00027F2202EB5101F8
:102E500040EA41617069164A10400143716130686F
:102E600040F080503060FEF773FB074613E0A8681F
:102E7000E9680002090940EA414071690D4A1140C0
:102E800008437061EBE70EE0FEF762FBC01B02280F
:102E900001D9032402E030688000F5D51CB97069BF
:102EA0006969084370612046BDE8F0810010024066
:102EB000FF80FFF9FF80FDFFF8B5054600241D4E99
:102EC000B06DC00002D5FEF7FFFB0DE0B06D40F025
:102ED0008050B065B06D00F080500090FEF7F4FBBC
:102EE000B16D21F08051B165B0F5007F04D0802D27
:102EF0000AD94FF003040DE0802D0BD9A02D01D984
:102F0000022407E0012405E001D1022402E0702D33
:102F100000D101240848016821F007012143016024
:102F2000006800F00700A04201D00120F8BD002099
:102F3000F8BD000000100240002002400120704750
:102F40002DE9F04106460F4615460024012D05D017
:102F500041F2210805D14FF6FF700BE048F2050859
:102F6000F8E741F60F5005E0315D4246FEF739F8CB
:102F7000641CE4B2BC42F7D3012D01D0C04380B23F
:102F8000BDE8F08100280FD000210B4A52F8313003
:102F900083420BD84B1C52F83330834206D9491C6C
:102FA00002EBC100007970471F207047491CC9B26D
:102FB0001529EBD3FEE700004469000810B500F0C6
:102FC000D9FD032809D0042803D0052803D0002008
:102FD00010BD022010BD012010BD032010BD032034
:102FE0007047000010B50E4C60610E4800F052FEB4
:102FF000002001F031F9012001F081F8002108469C
:1030000000F011FF0421002001F061F900234FF6C8
:10301000FF701A46014600F046FF0020A07010BD68
:103020002800002051310008F8B502213948FEF788
:1030300082FA01286DD1384E0020B07000F08CFD6E
:1030400005464FF6FF7000F07BFDE80704D070697D
:1030500010B1006800B18047A80726D5FF22694655
:103060002E4800F0D5FD00242C4F2DA12D483A5DAF
:1030700001F02AFE641CE4B21E2CF6D32A48017823
:10308000264803F0F5F82548143800F07BFD7069F8
:1030900058B184684CB121489DF80010143890F95B
:1030A0000D3090F90C201430A047680604D57069E3
:1030B00010B1006900B18047280608D5706930B1A9
:1030C000816921B1E84340F30020401C8847A805EE
:1030D00013D500F04FFD042804D000F04BFD052867
:1030E00006D00AE0706940B1406830B1804704E022
:1030F000706910B1C06800B18047A80609D5706931
:10310000002806D0C068002803D001B0BDE8F04018
:103110000047F8BD000400482800002010080020E7
:1031200025630000100E00201000002070B50D4631
:10313000012400F09DF8284600F082F8002000F0FD
:103140002DF8012003F06AF800F07CFA204670BDEB
:1031500001490120887070472800002070B50025C3
:10316000012000F085F8002001F01EF80024012065
:1031700003F054F800F062FD00F00100A0400543A8
:10318000641CE4B2202CF2D300F05CFA284670BD37
:1031900000F0ECBD00F0F2BD00F050BD10B50446EB
:1031A00000234FF6FF701A46014600F07CFE0748E8
:1031B000407828B1BDE810406FF07F4000F0F4BFC8
:1031C000A001BDE8104000F0EFBF00002800002083
:1031D00010B5044600234FF6FF701A46014600F072
:1031E00062FE0748407828B1BDE810406FF07F408C
:1031F00000F0EEBFA001BDE8104000F0E9BF000004
:103200002800002070B505460C46002340F201203E
:103210001A46014600F047FE00F0F4FC0749012879
:103220000AD00C72054800F0F5FE21462846BDE89C
:103230007040002200F0EEBDCC73F3E710090020CF
:1032400000F064BF084B094A012807D0D079012853
:1032500009D119701172104600F0DCBE1970D173DB
:10326000024800F0D7BE7047280000201009002057
:1032700010B50A4C012805D0002000F02DFF0020D9
:10328000607010BD012000F027FF61782078814236
:10329000F7D06070BDE8104000F002B82B000020AD
:1032A00070B504460D48047044700120FFF7E0FF3C
:1032B0004FF4E860451C44B1342101F0E1F82846A0
:1032C000BDE87040442101F0DBB8142101F0D8F8CA
:1032D0002846BDE87040242101F0D2B82B00002020
:1032E0002DE9FF4F0E462DED028B83B01546DDE92B
:1032F000161BDDF85490139F1B9ADFF8A08188F805
:103300000120B9F1000F02D088F8001002E0FF217F
:1033100088F80010624C4FF0000A04F12801029175
:10332000B0B101287DD1002000F0A8FF1498C0B2F0
:1033300000F0D4FD012104F8281FE8B22074594A96
:10334000925D6274089AA274283C002E74D077E0D3
:10335000002000F093FF84F828A0E5620B2084F899
:1033600034003046FFF70EFE84F8350084F800A0E4
:103370004FF6FF7000EAC70060800420207118201B
:10338000607184F806A089F00100E07198F80000EF
:103390002072BBF1000F02D0F220607201E0012028
:1033A000607284F80AA000F05DF994F8280008B172
:1033B000012000E00020FFF75BFF029800F096FD7F
:1033C000374800F027FE38A003C8CDE90001684661
:1033D00000F05BFF40F2FF1000F0BBFF2846FDF756
:1033E00005F941EC100B53EC102B9FED310B51EC18
:1033F000100BFDF77BF89FED301B53EC112BFDF705
:1034000000F841EC180B1498FDF7F0F853EC182B6A
:10341000FCF7F7FF9FED2A1B53EC112BFCF7F1FF94
:1034200001E004E008E0FDF7EEF8C8F80C0003B096
:10343000BDEC028B00F048B80B2D24D00C2D22D00F
:10344000012E01D10C2D1ED084F83BA0217005283F
:103450001CD006281AD0A78184F80E9098F8000096
:10346000E07384F810B01A9860740120FFF700FF31
:10347000029800F03BFD0A4800F0CCFD4FF6FF70CB
:10348000C8F80C00D3E784F83B10DFE70C2F02D21A
:103490000C20A081E0E7A781DEE7000028000020E3
:1034A0001009002040690008C194C100000000001C
:1034B000000000000000F03F00000000000020407D
:1034C0000000000000408F401FBCBDE8E08F00F00E
:1034D00099BE00002DE9FF4F83B0844610A8DDF8A7
:1034E0005CE090E825034B4C00270126DFF828A17B
:1034F00004F1280BBCF1000F03D0BCF1010F7FD108
:103500003EE084F82870E0620B2084F8340018460E
:10351000FFF738FD84F835000598206327704FF6D3
:10352000FF7000EAC50060800420207118206071DF
:10353000A77188F00100E071B9F1000F02D0F2200C
:10354000607200E06672A67200F08CF894F82800B1
:1035500008B1012000E00020FFF78AFE584600F085
:10356000C5FC2C4800F056FD2CA003C8CDE9010194
:1035700001A800F08AFE40F2FF1000F0EAFE3FE0F2
:1035800004F8286FC1B22174DFF898C01CF803C09A
:1035900084F811C0A274283C1BB90B281DD00C283C
:1035A0001BD0012B01D10C2817D084F83B7026705A
:1035B000052915D0062913D0A58184F80E809AF824
:1035C0000000E07384F8109084F811E000F04AF8ED
:1035D00094F8280058B101200AE084F83B60E6E73F
:1035E0000C2D02D20C20A081E7E7A581E5E70020A1
:1035F000FFF73EFE584600F079FC064800F00AFD51
:10360000049800F0CDFD1898CAF8080007B000F043
:103610000BB800001009002028000020C194C10050
:10362000000000004069000830BCBDE8C08F10B544
:103630000C4600F06BFD204600F0B2FDBDE81040E6
:1036400000F040BE08B5002000909DF8000040F05A
:1036500004000090009800F0F1FDBDE80840022051
:1036600002F0DCBD002000F0F7BD00F0E7BB000079
:1036700070B502462DED0C8B0D4600209FED73CBEF
:10368000744C9FED75AB002A2DD0012A68D11C34F3
:103690007349607F267F001F00EB400001EB0010A4
:1036A000C6F10C0100EBC10090ED009B34F8100C4A
:1036B000FCF79CFF9FED6B1B53EC112BFCF7F2FD0D
:1036C00053EC192BFCF79DFE41EC1B0BA07F00F087
:1036D0000300001DFCF78AFF41EC180BE07F1C3C47
:1036E000E8B3022050E0E06AFCF780FF41EC190BE0
:1036F0002846FCF77BFF41EC1B0B6088617900EBEF
:10370000D100FCF773FF41EC100BE07988B19FED1D
:10371000578B51EC100B53EC182BFCF7C3FD53ECFB
:103720001B2BFCF7BFFD41EC100B607A022805D083
:1037300006E0B0EE4A8AF0EE6A8AEAE79FED4DAB0A
:1037400051EC100B53EC1A2BFCF7ACFD53EC1C2B7B
:10375000FCF757FE53EC192BFCF7C8FE01E012E012
:1037600070E09FED461B53EC112BFCF74AFE41EC39
:10377000100B02F0ADFA00F089B851EC100BBDE867
:103780007040FCF740BF0020301A8000FCF71DFF9E
:1037900041EC1D0BE800714200EB8100217C00EB45
:1037A0000111A07B01284BD00020081A1C30FCF727
:1037B0000CFF53EC1D2BFCF799FE41EC100B01F0B4
:1037C0002FFB53EC182B51EC100BFCF71AFE41ECBD
:1037D000180B53EC1A2B51EC180BFCF72DFF03D3ED
:1037E000B0EE4A8AF0EE6A8A53EC1C2B51EC180BAF
:1037F000FCF758FD41EC100B53EC192B51EC100B5E
:10380000FCF7FFFD41EC100B51EC1B0B53EC102BA4
:10381000FCF748FD41EC100B9FED1A1B51EC100B0F
:1038200053EC112BFCF73EFD41EC100B01F084FB37
:1038300000F032B851EC100BBDE87040FCF7E3BE6D
:103840001420B2E700F02EB870BD000000000000A8
:1038500000002040100900200000000000000000CF
:1038600040000020000000000000114000000000A7
:103870000000F03F000000000000004000000000D9
:1038800000408F402B8716D9CEF7EF3FBDEC088B59
:10389000BDEC04CBFFF771BFBDEC088BBDEC04CBD6
:1038A000FFF7C8BFBDEC088BBDEC04CBFFF7CCBF66
:1038B00000F0E6BD00F0EABD10B51248FEF7C8FC06
:1038C000104C114820604FF4827060600020A060AE
:1038D0004FF4E061E160206160614FF40071A1612B
:1038E0003821E16120626062A0620721E162206309
:1038F00060632046FEF754FC2068016841F04001F7
:10390000016010BD9C05002000380040F8B5044659
:103910000E461546334600224FF4C051204600950E
:1039200000F026F828B1206E40F020002066032029
:10393000F8BD3346002280212046009500F062F851
:1039400028B1206E40F0200020660320F8BD3346E9
:1039500000224FF4C0612046009500F009F828B11C
:10396000206E40F0200020660320F8BD0020F8BD46
:103970002DE9F0470446DDF820800E4617461D4627
:103980004FF4C0690CE04E4501D107B9007B681CBB
:1039900006D0FDF7DDFDA0EB0800A84208D23DB13E
:1039A000206881683140B942EDD10020BDE8F08740
:1039B0002068416821F0E00141606068B0F5827FD5
:1039C0000BD1A068B0F5004F02D0B0F5806F04D1E4
:1039D0002068016821F040010160A06AB0F5005F35
:1039E00009D12068016821F4005101602068016854
:1039F00041F40051016001205C34607000202070AF
:103A00000320D3E72DE9F04104460E4617461D4634
:103A1000DDF8188008E0681C06D0FDF799FDA0EBE2
:103A20000800A8420BD255B12068806836EA000031
:103A30002FD00020B842EED10020BDE8F0812068F0
:103A4000416821F0E00141606068B0F5827F0BD1F0
:103A5000A068B0F5004F02D0B0F5806F04D12068A7
:103A6000016821F040010160A06AB0F5005F09D152
:103A70002068016821F4005101602068016841F468
:103A80000051016001205C34607000202070032030
:103A9000D3E70120CEE770477047704708B51B4950
:103AA000884206D9E1208DF80000E9208DF8010058
:103AB00026E01749884206D9D7208DF80000D82083
:103AC0008DF801001CE01349884206D9C1208DF809
:103AD0000000C5208DF8010012E00F49884206D988
:103AE00075208DF8000081208DF8010008E00B4959
:103AF000884205D96B208DF800006F208DF80100F9
:103B000002226946982000F08FFC08BD00E9A43528
:103B100080F8A9328044E52D000B6B1B40FC541942
:103B200010B500F027F818B100F024F8062803D1EA
:103B300000F036FCFFF7B1FFBDE8104000F024BCF8
:103B400008B5010A8DF800108DF8010002226946BF
:103B5000104600F069FC08BD08B502226946122033
:103B600000F0D8F89DF801009DF8001040EA01200F
:103B700008BD00000148407870470000D0000020D8
:103B80000220704738B5044603226946142000F02D
:103B9000C1F800F037F8207040B1012816D0142188
:103BA0002046FCF75AFB0F20207038BD9DF800001E
:103BB00020719DF8010040424010A0719DF8020064
:103BC0004042401060710020A06038BD9DF80000A8
:103BD0004042401020739DF80100802802D28008E6
:103BE000607303E0A0F58070801060739DF80200A0
:103BF00040424010A07302484068206138BD000078
:103C0000D00000200148807870470000D0000020DC
:103C1000F8B506460C461546002000906946204639
:103C200000F018F82278AA4201D90120F8BD3146E7
:103C30009DF8000000F040F80020F8BD08B5012212
:103C40006946152000F066F89DF80000404240F3F8
:103C5000470008BD38B504460D46022269461320C8
:103C600000F058F8FFF7CEFF01280BD140F20470A6
:103C700000F07CF8C00905D040F2027000F076F840
:103C8000207002E09DF8000020709DF8010028706F
:103C900038BD000010B500F0A3F800F081FB002053
:103CA00000F0DAFA012000F0F7F80249012048702C
:103CB00010BD0000D00000202DE9F04104460D4663
:103CC0001646FFF72DFFDFF848804FF4805700229B
:103CD00039464046FDF736FC1E2000F005FC204624
:103CE00000F002FC002000F0FFFB002405E00020B3
:103CF00000F0FAFB2855641CA4B2B442F7D30122A9
:103D000039464046FDF71EFCBDE8F04100F03CBBE3
:103D1000000400482DE9F04104460D461646FFF721
:103D2000FFFEDFF844804FF48057002239464046BA
:103D3000FDF708FC204600F0D7FB002000F0D4FB84
:103D4000002405E0002000F0CFFB2855641CA4B23D
:103D5000B442F7D3012239464046FDF7F3FBBDE8F4
:103D6000F04100F011BB00000004004808B501223A
:103D7000694600F003F89DF8000008BD2DE9F04108
:103D800004460D461646FFF7CBFEDFF850804FF491
:103D90008057002239464046FDF7D4FB1D2000F035
:103DA000A3FB200A00F0A0FBE0B200F09DFB002086
:103DB00000F09AFB002405E0002000F095FB285558
:103DC000641CA4B2B442F7D3012239464046FDF741
:103DD000B9FBBDE8F04100F0D7BA0000000400488C
:103DE00010B50A2002F01AFA094C002240212046A0
:103DF000FDF7A8FB142002F011FA01224021204611
:103E0000FDF7A0FBBDE810400A2002F007BA000051
:103E10000008004810B5144600F06CF92046BDE8D3
:103E2000104000F03BBA08B58DF800008DF8011085
:103E3000022269468F2000F0F7FA08BD10B5002273
:103E40001146C52000F0F0FA01490720487010BD66
:103E5000D000002008B5010A8DF800108DF801008F
:103E6000FFF7D0FE002805D10222694640F2BE606D
:103E700000F00CFB08BD08B5010A8DF800108DF8A4
:103E80000100FFF7BFFE002805D10222694640F27B
:103E9000BC6000F0FBFA08BD01B5012269469D2017
:103EA00000F0C2FA08BD1CB5040A8DF800408DF878
:103EB0000100080A8DF802008DF80310100A8DF831
:103EC00004008DF80520180A8DF806008DF80730DB
:103ED00008226946104600F0A7FA1CBD01B5012270
:103EE0006946A02000F0A0FA08BD000030B50446E5
:103EF0002DED028B83B00020019002903449207890
:103F00008978884201D000F0E7F82078B0B1012824
:103F100010D10422207C8DF80400607C8DF805000F
:103F2000A07C8DF80600E07C8DF8070001A98B20AD
:103F300000F07AFA03B0BDEC028B30BD0825606852
:103F4000FCF754FB41EC100B9FED228B53EC102B34
:103F500051EC180BFCF7CAFA9FED201B53EC112B08
:103F6000FCF74FFAFCF74FFB010C8DF80410010A27
:103F70008DF805108DF80600207B8DF80700607B1A
:103F80008DF808009FED171B9FED180B01F060F8EE
:103F900053EC102B51EC180BFCF7A8FA41EC180B62
:103FA000A068FCF723FB53EC182BFCF79FFAFCF7F7
:103FB0002AFB010C8DF80910010A8DF80A108DF802
:103FC0000B002A4601A98B2000F02EFAB2E7000070
:103FD000D00000200000000080847E41000000002E
:103FE00000004040000000000000394000000000D8
:103FF0000000004008B58DF800008DF801108DF824
:1040000002208DF8033004226946952000F00CFA56
:1040100008BD00003EB504460020009001900290CB
:104020002C4920788978884201D000F055F8207812
:10403000C8B1012816D10622A089010A8DF8001006
:104040008DF80100A07B8DF80200E07B8DF8030065
:10405000207C8DF80400607C8DF8050069468C207A
:1040600000F0E2F93EBD607AF12802D0F2280AD0D1
:1040700012E04FF6FF70FFF7FEFE48F20500FFF773
:10408000E9FE022008E041F60F50FFF7F4FE41F28E
:104090002100FFF7DFFE062009226188090A8DF85A
:1040A0000010A1788DF8011021798DF80210617946
:1040B0008DF80310A1798DF80410E1798DF80510C1
:1040C000217A8DF806108DF80700A07A8DF8080087
:1040D000C4E70000D000002001B505499DF80000AC
:1040E0008870012269468A2000F09EF908BD000010
:1040F000D00000200A460146002000F06BB901B54F
:1041000001226946962000F08FF908BD30B50546BA
:104110002DED028B81B01B4C2078002804D128465D
:10412000FFF7BCFC012020709FED171B9FED180BC3
:1041300000F08EFF53EC102B9FED170B51EC100B82
:10414000FCF7D4F941EC180B2846FCF74FFA53EC76
:10415000182BFCF7CBF9FCF756FA010E8DF800107E
:10416000010C8DF80110010A8DF802108DF8030082
:1041700004226946862000F057F901B0BDEC028B9D
:1041800030BD0000D00000200000000000003940D9
:1041900000000000000000400000000080847E411C
:1041A000022100F094B8000008B5084A05215170BA
:1041B000010C8DF80010010A8DF801108DF8020035
:1041C00003226946822000F02FF908BDD0000020AC
:1041D00038B504460A4905204870962140F6AC00DF
:1041E00000F04EF9200C8DF80000200A8DF8010037
:1041F0008DF8024003226946822000F015F938BD8F
:10420000D00000201CB5020C8DF80020020A8DF8A9
:1042100001208DF80200080C8DF80300080A8DF8C3
:1042200004008DF8051006226946942000F0FCF881
:104230000149062048701CBDD000002001B5FFF7E1
:104240002BFC01226946842000F0EEF80149002091
:10425000487008BDD000002001B5012269468020C9
:1042600000F0E2F89DF80010034811B102214170FE
:1042700008BD0121417008BDD000002001B5012218
:1042800069469F2000F0D0F808BD10B5014608220D
:104290004FF4D86000F0FAF8002010BD08B5084AC5
:1042A00004215170010C8DF80010010A8DF80110E5
:1042B0008DF8020003226946832000F0B5F808BD9E
:1042C000D000002000221146D12000F0ADB8F8B592
:1042D00004460D460020FFF753FC40F6E7066FF05A
:1042E0000207012809D00123002207210420FFF73B
:1042F00081FE162C1CDD16241DE00F2C09D0012395
:104300001A4600210420FFF775FE0E2C08DB0E2450
:1043100009E001231A4600210620FFF76BFEF4E7AF
:10432000BC4200DA3C461821304600F0A9F806E00D
:10433000BC4200DA3C463821304600F0A1F88DF846
:1043400000408DF80150022269468E2000F06CF882
:10435000F8BD70B50446FFF755FC002812D14FF4A4
:10436000D7652846FFF702FD00F0FE00C4F30021E8
:104370000143284600F084F8E1B2681CBDE87040B3
:1043800000F07EB870BD000010B5044C012120463D
:10439000FDF7D1F80128F9D010BD00000004004855
:1043A00070B50B4D4FF48054002221462846FDF78E
:1043B000C9F8C02000F098F8002000F095F801221C
:1043C00021462846FDF7BEF8BDE87040FFF7DCBF88
:1043D000000400482DE9F04104460D461646FFF75B
:1043E0009FFBDFF840804FF480570022394640465B
:1043F000FDF7A8F80E2000F077F8204600F074F8DA
:10440000002404E0285D00F06FF8641CA4B2B442FC
:10441000F8D3012239464046FDF794F8BDE8F04153
:10442000FFF7B2BF000400482DE9F04707460D46EC
:104430001646FFF775FBDFF844904FF480580022D2
:1044400041464846FDF77EF8384600F04DF8002416
:1044500004E0285D00F048F8641CA4B2B442F8D32C
:10446000012241464846FDF76DF8842F03D0BDE890
:10447000F047FFF789BFBDE8F0870000000400485F
:1044800013B5012201A900F001F81CBD2DE9F0418E
:1044900004460D461646FFF743FBDFF848804FF40D
:1044A0008057002239464046FDF74CF80D2000F0B9
:1044B0001BF8200A00F018F8E0B200F015F800240C
:1044C00004E0285D00F010F8641CA4B2B442F8D3F4
:1044D000012239464046FDF735F8BDE8F041FFF7C7
:1044E00053BF00000004004801B582B04FF47A7059
:1044F0000090012301AA02A90248FDF7D5FE9DF80C
:1045000004000EBD9C050020FDF728B810B598B03A
:104510001948816D41F080518165806D00F08050B7
:1045200001900121079108040890022011900324B2
:10453000129413911421149107211591169017903C
:1045400007A8FDF7CDFB00B1FEE70F200290039412
:104550000020049005900690042102A8FDF79AFA25
:1045600000B1FEE74FF40070FDF778F8002800D0A6
:10457000FEE718B010BD0000001002400D480168B1
:1045800041F4700101600C48016841F001010160D3
:10459000002181600268094B1A4002608214C260E7
:1045A000026822F48022026081610249C0038039DE
:1045B0000860704788ED00E000100240FFFFF6EA57
:1045C0000148FDF7CFBF0000C004002090F8241080
:1045D000C90706D001684A68836A22F400321A4388
:1045E0004A6090F82410890706D501684A68C36AB2
:1045F00022F480321A434A6090F82410490706D505
:1046000001684A68036B22F480221A434A6090F8DA
:104610002410090706D501684A68436B22F400425A
:104620001A434A6090F82410C90606D501688A68C2
:10463000836B22F480521A438A6090F82410890612
:1046400006D501688A68C36B22F400521A438A6057
:1046500090F82410490611D501684A68036C22F4C9
:1046600080121A434A60016CB1F5801F06D10168BF
:104670004A68436C22F4C0021A434A6090F824103E
:10468000090606D501684A68806C22F400220243BC
:104690004A607047F8B5044600266667FCF758FF85
:1046A0000746206800686FF07E4500070AD53B4644
:1046B00000224FF400112046009500F07FFA08B167
:1046C0000320F8BD2068006840070AD53B46002259
:1046D0004FF480012046009500F070FA08B10320E5
:1046E000F8BD202070346070A07026700020F8BDE6
:1046F00010B5806A0021A0F85A10A0F85210FDF7FA
:104700002FFF10BD01680A6822F490720A600168E8
:104710008A6822F001028A60202180F8721000214C
:104720000166704710B501680A6822F040020A600D
:10473000202180F8711000214166FEF781F910BD3B
:1047400010B5B0F85C2090F872300168222B04D0CC
:10475000088B40F00800088310BD898C436D114020
:104760001980416D891C4165B0F85A10491E090431
:10477000090CA0F85A10EFD101680A6822F490726F
:104780000A6001688A6822F001028A60202180F8AC
:10479000721000210166FEF72FF910BD10B5B0F8B8
:1047A0005C3090F872200168222A04D0088B40F017
:1047B0000800088310BD8A8C416D1A404B1C43656C
:1047C0000A70B0F85A10491E0904090CA0F85A10D2
:1047D000F0D101680A6822F490720A6001688A6860
:1047E00022F001028A60202180F872100021016607
:1047F000FEF702F910BD00002DE9F0470446102530
:10480000002600270020E14B2168D4F810C0A268E0
:10481000D4F81C8042EA0C02D4F814C04CEA080C0C
:1048200042EA0C02D1F800C0DFF864830CEA080CFD
:104830004CEA020CC1F800C021684A68D4F80CC0E8
:1048400022F4405242EA0C024A60A16922689A426C
:1048500003D0D4F820C04CEA0101D2F808C02CF4EF
:10486000306C4CEA010CC2F808C0DFF828C321689C
:10487000C94A614513D1D2F8882012F0030206D04C
:10488000012A08D0022A04D0032A01D105E001251B
:1048900080E002257EE004257CE008257AE0DFF850
:1048A000FCC2614513D1D2F8882012F00C0206D068
:1048B000042A08D0082A04D00C2A6BD105E0002570
:1048C00068E0022566E0042564E0082562E0DFF880
:1048D000D0C2614513D1D2F8882012F0300206D040
:1048E000102A08D0202A04D0302A53D105E0002510
:1048F00050E002254EE004254CE008254AE0DFF8B0
:10490000A4C2614513D1D2F8882012F0C00206D0AB
:10491000402A08D0802A04D0C02A3BD105E00025D7
:1049200038E0022536E0042534E0082532E0DFF8DF
:1049300078C2614516D1D2F8882012F4407209D0AD
:10494000B2F5807F0AD0B2F5007F05D0B2F5407F86
:1049500020D105E000251DE002251BE0042519E01B
:10496000082517E0994215D1D2F8882012F4406248
:1049700009D0B2F5806F0AD0B2F5006F05D0B2F55C
:10498000406F07D105E0002504E0022502E0042580
:1049900000E00825DFF814C24FF000084FF4004291
:1049A000994260D195B1022D13D0042D13D0082D5A
:1049B00014D00127002808D0626802EB420181422E
:1049C00002D8B0EB023F0BD90127D8E0FDF70AF976
:1049D000F0E76046EEE7FDF729F9EBE71046E9E777
:1049E00075B1022D1AD0042D22D0082D2ED001270A
:1049F0006F49A6F54070884233D82068C660BEE093
:104A0000FDF7F0F86268010E03025008181841EB38
:104A100008010023FBF7D4FB0646E9E76549500887
:104A2000401848F100010023FBF7CAFB0646DFE708
:104A3000FDF7FCF86268010E03025008181841EBFC
:104A400008010023FBF7BCFB0646D1E750084FF4F2
:104A50000001401848F100010023FBF7B1FB0646B6
:104A6000C6E701278BE0E0694FF6EF79904248D125
:104A7000092D35D2DFE805F0050F1934213434341F
:104A80002B00FDF7AFF84100606801EB5001B1FB6E
:104A9000F0F086B225E0FDF7B7F84100606801EB61
:104AA0005001B1FBF0F086B21BE04349606801EBB6
:104AB0005001B1FBF0F086B213E0FDF7B7F841000A
:104AC000606801EB5001B1FBF0F086B209E060686C
:104AD0004FF4803101EB5001B1FBF0F086B200E001
:104AE0000127A6F11000484509D84FF6F07106EAF3
:104AF0000100C6F3420108432168C8603FE0012776
:104B00003DE0092D32D2DFE805F0050F19312031E3
:104B100031312A00FDF766F80146606801EB50016B
:104B2000B1FBF0F086B222E0FDF76EF80146606856
:104B300001EB5001B1FBF0F086B218E060680CEBBD
:104B40005001B1FBF0F086B211E0FDF76FF80146BD
:104B5000606801EB5001B1FBF0F086B207E06168DC
:104B600002EB5100B0FBF1F086B200E00127A6F1A4
:104B70001000484502D82068C66000E00127C4F84C
:104B80006080C4F864803846BDE8F087008000404B
:104B9000F369FFEF0038014000100240004400407C
:104BA00000480040004C0040005000400024F40049
:104BB000FFFC0F00000024F40048E8012DE9F0415B
:104BC00004460E4617469846069D1DE0681C1BD0FD
:104BD0002DB1FCF7BDFCA0EB0800A84214D9206859
:104BE000016821F4D07101602068816821F0010121
:104BF0008160202084F8710084F87200002084F81D
:104C000070000320BDE8F0812068C06936EA00002A
:104C100004D00020B842D9D00020F3E70120F9E702
:104C20000148FDF79FBC00004804002038B51B4830
:104C30000068C069C043800627D44FF47A7301220C
:104C400069461648FDF7FAFD154A508801041CD440
:104C500041044FF0000309D59DF800100A2901D046
:104C6000538012E040F4004050800EE09DF80010A8
:104C70000D290ED0094DC0F30D04C83D2955401C27
:104C800080B25080C72800D953800448FDF76AFCE1
:104C900038BD40F480405080F7E70000D00300208A
:104CA00020000020FEE700000FB4054B10B503A95B
:104CB000044A029801F01AF910BC5DF814FB0000D8
:104CC000A9630008240000200FB4084B10B504A904
:104CD00002AA039801F00AF9044602A9002001F093
:104CE000E4F9204610BC5DF814FB0000AB6000083E
:104CF00003B401984100009850EAC12018BF042075
:104D00004A0D18BF40F0010040F2FF72B2EB515F54
:104D100008BF40F00200012808BF052002B070471C
:104D200000487047D800002030B52DED048B81B0CD
:104D3000B0EE408AF0EE608A6A4651EC180B01F042
:104D40003FFB00989FED329B7E300090002821DCD5
:104D500053EC192B51EC180BFBF7E8FE1AD000218D
:104D600040F60800FCF7F7F8044651EC180BFCF786
:104D7000D6F808EE100A40F6080004EA0001FCF735
:104D8000EAF8B5EEC08AF1EE10FA04BF022001F095
:104D90009FF82DE00098FF2830DB00210846FCF743
:104DA000DAF800F4400553EC192B51EC180BFBF723
:104DB00043FC8CBF00240124022001F089F89FED00
:104DC000168A4DB1002C0CBF4FF400004FF4800048
:104DD000A84218BF9FED118A04210846FCF7BBF8D2
:104DE000002C01BFB1EE480A01B0BDEC048B30BD10
:104DF000B0EE480A01B0BDEC048B30BD51EC180B8D
:104E0000FCF78DF801B000EE100ABDEC048B30BD4C
:104E100000000000000000000000807FFFFF7F7F97
:104E20002DE9F0412DED020B9FED3D0B2DED028B99
:104E30009FED3D8BDDE90254C4F30A50A0F2FF362A
:104E4000142E37DA002E18DA53EC102B9DED020BDE
:104E500051EC100BFBF726FA53EC182BFBF7ECFB8D
:104E600057D2002CBCBF4FF00044002551DB54EA60
:104E7000050018BF2E4C1BD14BE02E4820FA06F738
:104E800004EA070028431FD053EC102B9DED020BC2
:104E900051EC100BFBF706FA53EC182BFBF7CCFB8D
:104EA00037D2002C03DD4FF48010F0400444BC43A3
:104EB00000252EE0332E07DCA6F114004FF0FF3161
:104EC00021FA00F73D4206D19DED020BBDEC028BAD
:104ED00002B0BDE8F08153EC102B9DED020B51ECBC
:104EE000100BFBF783FA53EC182BFBF7A5FB10D242
:104EF000002C0DDD142E08BF641C09D0C6F134004F
:104F0000012101FA00F02844A84238BF641C05467C
:104F1000BD43CDE902549DED020BD7E70000000030
:104F20009C7500883CE4377E000000000000000013
:104F30000000F03FFFFF0F002DE9F0412DED020BC7
:104F40009FED3D0B2DED028B9FED3D8BDDE9025476
:104F5000C4F30A50A0F2FF36142E37DA002E18DA06
:104F600053EC102B9DED020B51EC100BFBF79AF953
:104F700053EC182BFBF760FB57D2002CA4BF002486
:104F8000254652DA24F00040284318BF2E4C4CD05E
:104F90001AE02E4820FA06F704EA070028431FD03B
:104FA00053EC102B9DED020B51EC100BFBF77AF933
:104FB00053EC182BFBF740FB37D2002C03DA4FF4ED
:104FC0008010F0400444BC4300252EE0332E07DC63
:104FD000A6F114004FF0FF3121FA00F73D4206D14F
:104FE0009DED020BBDEC028B02B0BDE8F08153ECED
:104FF000102B9DED020B51EC100BFBF7F7F953EC66
:10500000182BFBF719FB10D2002C0DDA142E08BF59
:10501000641C09D0C6F13400012101FA00F02844D3
:10502000A84238BF641C0546BD43CDE902549DED3E
:10503000020BD7E7000000009C7500883CE4377E37
:1050400000000000000000000000F0BFFFFF0F00A4
:105050002DE9F04D2DED040B2DED0E8B96B0DDE915
:105060002550279CDDF890A025F0004624F000484C
:10507000BAF1000F14BF0121002101EB4502FC49E8
:1050800053184A1093422AD3002814BF0123002347
:1050900003EB44030B44F7498B4220D358EA000149
:1050A0009FEDF59B76D0DFF8D8B35D4503D1BAF11B
:1050B000000F05D188E0BAF1000F08BF002100D031
:1050C000012101EB450111F5001F08D8002814BF8C
:1050D0000121002101EB440111F5001F0BD99DEDC9
:1050E000261B9DED240B16B000F0DABD04B0BDE820
:1050F000F04D00F099BE0027002DBCBFE149884566
:1051000021DAE1498845A8BF02271CDAC3451ADC29
:10511000DE4901EB2851142908DDC1F1340220FADF
:1051200002F101FA02F282420DD108E058B9C1F150
:10513000140228FA02F101FA02F2424503D101F009
:105140000101C1F1020756EA0A0124D1002C22DA3A
:10515000002D18BF022F01D0012F0AD0022000F02D
:10516000B7FE16B000F0A2BD04B0BDE8F04D00F0EF
:1051700043BE022000F0ACFE00F03EFE51EC100BEE
:1051800081F0004141EC100B16B000F095BD04B069
:10519000BDE8F08D18E09FEDBEAB9FEDBF8B002802
:1051A00071D1B848804522D105F1804010F58010BA
:1051B00008BFBAF1000F07D0B3450ADC002CA8BF26
:1051C0009DED260BE0DA0DE0B0EE490AF0EE690A3B
:1051D000DAE7002C06DA9DED260B51EC100B81F07E
:1051E00000416FE0AE48784490ED000BCCE7D84525
:1051F0004DD1002C48DA2EB186423AD1BAF1000FD7
:1052000042D126E0BAF1000F13D0022000F060FE78
:1052100000F026FE8DED020B9DED240B8DED000BB5
:1052200010EE900A039961F31E0003909DED020BAE
:10523000AAE78DED02AB9DED240B1AEE901A10EE4D
:10524000900A8DED000B61F31E0003909DED020BA3
:105250009AE78DED028B9DED240B18EE901A10EE5F
:10526000900A8DED000B61F31E0003909DED020B83
:105270008AE709DA9DED240B51EC190B53EC102B46
:10528000FBF734F91EE020E09DED240B7CE786421D
:105290001BDAB4F1804F0DD0A4F10050B0F1FF50F3
:1052A00013D1002D11DB9DED240B51EC100B01F0FF
:1052B00053FA07E09DED240B53EC102B51EC100B2F
:1052C00000F0C2BC41EC100B5EE79DED240B51ECED
:1052D000100B01F05CF8BAF1000FCDE90E0142D1DC
:1052E0009FED710B46B3A6F1E040B0F17F600CD0AA
:1052F0005E4538D1002D00DAA7B3022F0CBF012084
:105300004FF0FF30FBF761F9DCE7002D01DD002CE9
:105310000DDA002D01DD002C1FDB002D16DA002C2C
:1053200014DB012F08BF9FED620B3FF42DAFB0EEF1
:105330004A0AF0EE6A0A27E7022F18BF002D0CD0A8
:10534000012F0AD1002DFFF61FAF06E0002DB8BFD8
:10535000002C08DA012F3FF417AFB0EE480AF0EE48
:10536000680A11E71BE0012000EBE57050EA070135
:1053700015D0791EB0EE498AF0EE698A084308BF5D
:105380009FED4D8B4E480025804570DD4D494E48C0
:10539000884514DDB0420DDB002C19DB2FE0012025
:1053A00000F096FD16B000F08DBC04B0BDE8F04DE5
:1053B00000F046BDB34502DC002C09DC1FE086424C
:1053C00002DA002C1BDA03E05E452BDD002C16DD33
:1053D000022000F07DFD00F043FD8DED020B53EC4B
:1053E0001A2B51EC180BFBF70CF8CDE900010399CF
:1053F000019861F31E0003909DED020BC4E60220AC
:1054000000F066FD00F03CFD10EE901A18EE900AD8
:105410008DED020B8DED008B61F31E0003909DED71
:10542000020BB1E69DED0E0B53EC192B51EC100B5A
:10543000FAF7D9FF9FED260BCDE9080153EC102BAD
:105440009DED080B51EC100BFAF7DBFF9FED221BD3
:1054500053EC112BFAF7CAFF9DED081B53EC112BEF
:10546000FAF7CFFF9FED1E1B53EC112B3CE08CE0B5
:10547000FFFF1F00FFFF0F00000000000000F03FD3
:105480000000F03F0000F07F0000404301FCFFFF00
:10549000000000000000F07F00000000000000009D
:1054A00096180000000000000000000000000080CE
:1054B000000000000000F0FF000000000000F0BF4E
:1054C0000000E0410000F043FFFFEF3F000000005C
:1054D000000000000000D03F555555555555D53FAB
:1054E000000000000000E03FFAF780FF9DED080B90
:1054F00041EC1A0B53EC102B51EC100BFAF781FF17
:1055000053EC1A2BFAF77DFF41EC1A0B9FEDFE0BC3
:1055100053EC102B9DED080B51EC100BFAF771FFBB
:1055200041EC1B0B9FEDFA0B51EC1A0B53EC102BBB
:10553000FAF767FF41EC1A0B9FEDF70B53EC102BBA
:105540009DED080B51EC100BFAF75BFF53EC1A2B97
:10555000FAF749FF41EC1A0B51EC1B0B53EC1A2BD9
:10556000FAF7A0FE0690CDE906519DED060B53EC2F
:105570001B2B51EC100BFAF736FF53EC1A2BFAF7F2
:1055800035FF41EC100B00F0A1B90020B6F5801FEB
:105590000EDA9FEDE30B53EC102B9DED0E0B51EC4F
:1055A000100BFAF72EFFCDE90E016FF034000E4616
:1055B00000EB2650A0F2FF37C6F31300DA4940F0A3
:1055C0007F6646F040568842D8BF002408DDD749A0
:1055D0008142C8BF012403DC0024A6F580167F1C8D
:1055E000D348784400EBC4000F9690ED00CB9DEDBE
:1055F0000E0B53EC1C2B51EC100BFAF7F4FE9DED47
:105600000E0B41EC1B0B53EC1C2B51EC100BFAF75F
:1056100049FE41EC100B51EC190B53EC102BFAF72F
:1056200065FF41EC1D0B51EC1B0B53EC1D2BFAF7E6
:10563000E8FE41EC1A0BBF488DED10AB7844109595
:1056400090ED000B4FF0005040EA660000EB844004
:105650008DED080B00F5002009909DED080B53EC33
:105660001C2B51EC100BFAF7BEFE9DED0E1B53ECFC
:10567000112BFAF7BBFE41EC100B53EC102B9DEDF8
:10568000100B51EC100BFAF7BCFE9DED080B41EC32
:105690001C0B53EC102B9DED100B51EC100BFAF77B
:1056A000B0FE53EC1B2BFAF7A1FE53EC1C2BFAF7C0
:1056B0009AFE53EC1D2BFAF7A4FE41EC1C0B53ECA5
:1056C0001A2B51EC1A0BFAF79CFE41EC1B0B9A4873
:1056D0000621B0EE4B0AF0EE6B0A784400F010FBA6
:1056E000B0EE401AF0EE601AB0EE41DAF0EE61DA98
:1056F00053EC1B2B51EC1B0BFAF783FE53EC1D2BC9
:10570000FAF77FFE9DED100B41EC1B0B53EC1A2BAF
:1057100051EC100BFAF7C6FD53EC1C2BFAF771FE97
:1057200053EC1B2BFAF7BEFD9DED100B41EC1B0B50
:1057300053EC102B51EC100BFAF763FE41EC1D0BF0
:105740009FED7FEB53EC1E2BFAF7ACFD53EC1B2BBC
:10575000FAF7A8FD0890CDE908519DED080B53EC30
:105760001E2B51EC100BFAF73EFE53EC1D2BFAF7F3
:105770003AFE53EC1B2BFAF739FE9DED080B41EC7A
:105780001D0B53EC102B9DED100B51EC100BFAF789
:1057900038FE41EC1B0B53EC1A2B51EC1D0BFAF7A6
:1057A00030FE9DED080B41EC1A0B53EC102B51EC25
:1057B0001C0BFAF726FE53EC1A2BFAF773FD41EC9B
:1057C0001A0B51EC1B0B53EC1A2BFAF76BFD0C90D8
:1057D000CDE90C519DED0C0B53EC1B2B51EC100B38
:1057E000FAF701FE53EC1A2BFAF700FE41EC1B0B03
:1057F0009FED550B53EC102B9DED0C0B51EC100B4A
:10580000FAF7FFFD41EC1A0B9FED510B51EC1B0B0E
:1058100053EC102BFAF7F5FD41EC1B0B9FED4E0BF3
:1058200053EC102B9DED0C0B51EC100BFAF7E9FD2E
:1058300053EC1B2BFAF736FD41EC100B484878442B
:1058400000EBC40090ED001B51EC100B53EC112B3E
:10585000FAF728FD41EC1B0B3846FAF7B6FECDE906
:10586000080153EC1B2B51EC1A0BFAF71BFD41EC12
:10587000100B3C48784400EBC40090ED00CB51EC99
:10588000100B53EC1C2BFAF70DFD9DED081B53EC90
:10589000112BFAF707FD0690CDE906519DED080B97
:1058A00053EC102B9DED060B51EC100BFAF79BFD02
:1058B00053EC1C2BFAF797FD53EC1A2BFAF793FDD8
:1058C00053EC1B2BFAF792FD41EC100B9DED261BC0
:1058D00053EC102B8DED001B00959DED260B51EC2C
:1058E000100BFAF78EFD9DED000B41EC1A0B53ECFB
:1058F000102B9DED260B51EC100BFAF774FD9DED6E
:10590000061B53EC112B2FE0000000604715F73FFA
:10591000FE822B654715F73F44DF5DF80BAE543E22
:1059200000000000000040438E9803007AB60B0090
:1059300012140000401400004A1300000000000090
:105940000000000000000840000000E009C7EE3F32
:10595000FD033ADC09C7EE3FF5015B14E02F3EBEC4
:10596000D611000090110000FAF74BFD53EC1A2BF2
:10597000FAF798FC9DED060B41EC1A0B53EC102B3B
:105980009DED000B51EC100BFAF73BFDCDE90C013E
:105990009DED0C0B51EC1A0B53EC102BFAF782FC1B
:1059A000CDE902010C46AA498C422FDB611A08435B
:1059B00018D19DED0C0B53EC102B9DED020B51EC0F
:1059C000100BFAF710FD41EC1B0B9FEDA30B51ECF4
:1059D0001A0B53EC102BFAF765FC53EC1B2BFAF760
:1059E0002BFE2DD2022000F073FA00F039FA10EEEF
:1059F000901A18EE900A8DED020B8DED008B61F37D
:105A00001E0003909DED020BFFF7BEBB944A24F0ED
:105A10000041914214D39349214408437FF4EFACF1
:105A20009DED0C0B53EC102B9DED020B51EC100B6C
:105A3000FAF7D9FC53EC1A2BFAF7FEFD7FF6DFAC30
:105A400024F000408849894A002601EB2051824217
:105A50002BDA481C4FF4801121FA00F02044844ACC
:105A6000C0F30A517A44A1F2FF3192ED000B814A52
:105A70008DED080BCA4020EA0202C0F3130040F487
:105A80008010C1F1140120FA01F60992002CB8BF70
:105A900076429DED080B53EC102B9DED0C0B51EC59
:105AA000100BFAF7A0FCCDE90C019DED0C0B51ECAD
:105AB0001A0B53EC102BFAF7F5FB9FED6F0B0890C8
:105AC000CDE9085153EC102B9DED080B51EC100B58
:105AD000FAF797FC41EC1B0B9FED690B53EC102B75
